:100000000C94DE050C9406060C9406060C94060669
:100010000C9406060C9406060C9406060C94060630
:100020000C9406060C9406060C9406060C94060620
:100030000C9406060C9406060C9406060C94060610
:100040000C94E6160C9406060C9456170C94301774
:100050000C9406060C9406060C9406060C940606F0
:100060000C9488170C94060608000000BE922449E0
:10007000123EABAAAA2ABECDCCCC4C3E00000080DA
:10008000BEABAAAAAA3E00000000BF000000803F4D
:100090000000000000084178D3BB4387D1133D190D
:1000A0000E3CC3BD4282AD2B3E68EC8276BED98F3A
:1000B000E1A93E4C80EFFFBE01C4FF7F3F0000007E
:1000C000000007634236B79BD8A71A39685618AEA6
:1000D000BAAB558C1D3CB7CC5763BD6DEDFD753E7D
:1000E000F6177231BF000000803F00000000003EA4
:1000F0005B4F5B3E3E6B4F6B3E1C3E7C3E1C183C98
:100100007E3C181C577D571C1C5E7F5E1C00183CF3
:100110001800FFE7C3E7FF0018241800FFE7DBE73C
:10012000FF30483A060E2629792926407F05050723
:10013000407F05253F5A3CE73C5A7F3E1C1C08087F
:100140001C1C3E7F14227F22145F5F005F5F060944
:100150007F017F006689956A606060606094A2FF9D
:10016000A29408047E040810207E201008082A1C8F
:1001700008081C2A08081E101010100C1E0C1E0C5B
:1001800030383E3830060E3E0E06000000000000FB
:10019000005F00000007000700147F147F14242A6A
:1001A0007F2A12231308646236495620500008073C
:1001B0000300001C2241000041221C002A1C7F1C5D
:1001C0002A08083E0808008070300008080808085F
:1001D000000060600020100804023E5149453E00C6
:1001E000427F400072494949462141494D33181424
:1001F000127F1027454545393C4A49493141211173
:1002000009073649494936464949291E0000140064
:100210000000403400000008142241141414141487
:10022000004122140802015909063E415D594E7CE5
:100230001211127C7F494949363E414141227F419A
:1002400041413E7F494949417F090909013E4141F8
:1002500051737F0808087F00417F41002040413FE3
:10026000017F081422417F404040407F021C027FF2
:100270007F0408107F3E4141413E7F090909063E47
:100280004151215E7F091929462649494932030116
:100290007F01033F4040403F1F2040201F3F403828
:1002A000403F631408146303047804036159494D03
:1002B00043007F4141410204081020004141417F39
:1002C00004020102044040404040000307080020AF
:1002D000545478407F2844443838444444283844AF
:1002E00044287F385454541800087E090218A4A4E6
:1002F0009C787F0804047800447D40002040403D05
:10030000007F1028440000417F40007C047804787E
:100310007C080404783844444438FC182424181811
:10032000242418FC7C08040408485454542404046D
:100330003F44243C4040207C1C2040201C3C40305A
:10034000403C44281028444C9090907C4464544C89
:1003500044000836410000007700000041360800E4
:1003600002010204023C2623263C1EA1A161123A8E
:100370004040207A385454555921555579412254DA
:10038000547842215554784020545579400C1E52DF
:100390007212395555555939545454593955545484
:1003A000580000457C410002457D420001457C40EB
:1003B0007D1211127DF0282528F07C54554500202F
:1003C00054547C547C0A097F4932494949323A44A1
:1003D00044443A324A4848303A4141217A3A42400C
:1003E0002078009DA0A07D3D4242423D3D404040DE
:1003F0003D3C24FF2424487E4943662B2FFC2F2BB1
:10040000FF0929F620C0887E090320545479410051
:1004100000447D413048484A32384040227A007AD0
:100420000A0A727D0D19317D2629292F28262929AE
:10043000292630484D4020380808080808080808D0
:10044000382F10C8ACBA2F102834FA00007B0000F7
:1004500008142A142222142A14085500550055AAFB
:1004600055AA55AAFF55FF55FF000000FF001010C8
:1004700010FF00141414FF001010FF00FF1010F004
:1004800010F0141414FC001414F700FF0000FF0017
:10049000FF1414F404FC141417101F10101F101F65
:1004A0001414141F00101010F0000000001F101092
:1004B00010101F10101010F010000000FF1010108E
:1004C000101010101010FF10000000FF140000FFAB
:1004D00000FF00001F10170000FC04F41414171094
:1004E000171414F404F40000FF00F7141414141487
:1004F0001414F700F7141414171410101F101F14FD
:100500001414F4141010F010F000001F101F00005D
:10051000001F14000000FC140000F010F01010FF89
:1005200010FF141414FF141010101F00000000F02E
:1005300010FFFFFFFFFFF0F0F0F0F0FFFFFF000003
:10054000000000FFFF0F0F0F0F0F3844443844FC2A
:100550004A4A4A347E02020606027E027E02635541
:100560004941633844443C04407E201E2006027EFC
:10057000020299A5E7A5991C2A492A1C4C7201720E
:100580004C304A4D4D303048784830BC625A463D78
:100590003E494949007E0101017E2A2A2A2A2A442D
:1005A000445F444440514A444040444A5140000062
:1005B000FF0103E080FF000008086B6B083612366D
:1005C0002436060F090F060000181800000010104E
:1005D000003040FF0101001F01011E00191D17120C
:1005E000003C3C3C3C0000000000000103070F1FE2
:1005F0003F7F0080C0E0F0F8FCFEDB40A4A62EAFF9
:100600002000A1C8D300408DAED580A800006000B6
:1006100000000000000000000000000000E00000FA
:10062000000000000000000000000001E0000000E9
:100630000000000000000000000001F000000000C9
:1006400000000000000000000003F00000000000B7
:10065000000000000000000007F0000000000000A3
:100660000000000000000007F8000000000000008B
:100670000000000000000FF800000003C0007E0032
:100680000001E0007F0FF800000003C000FE000042
:1006900001E000FFEFF800000003C000FE000001D1
:1006A000E000FFFFF800000003C000F00000000FB2
:1006B000007FFE7FC0000003C000F00000000F00BC
:1006C0003FFE7FF83FF1FBCFFCFEF3BC3DEFE01FA8
:1006D000FE7FFF7FFBFFDFFEFEFFBC3DEFE01FC69E
:1006E000FFFF7FFBFFDFFEFEFFBC3DEFE00FE3C738
:1006F000FE787BC3DE1EF0FFBC3DEF0007FF87FCEA
:10070000787BC3DE1EF0F83C3DEF0001FFFFF000F8
:100710007BC3C01EF0F03C3DEF0001F37FE03FFBE8
:10072000C3CFFEF0F03C3DEF0003E33F807FFBC30F
:10073000DFFEF0F03C3DEF0007E73C00787BC3DED6
:100740001EF0F03C3DEF0007FFBE00787BC3DE1ECD
:10075000F0F03C3DEF0007FFFE00787BC3DE1EF0AB
:10076000F03C3DEF000FFFFE007FFBFFDFFEF0F0EF
:100770003FFDEFE00FFFFF007FFBFFDFFEF0F03FEC
:10078000FDEFE00FF9FF003E79F9CF9EF0F01F3D3D
:10079000E7E01FF1FF000000000000000000000083
:1007A000001F80FF007FFFFFFFFFFFFFFFFFFFE055
:1007B0001C007F007FFFFFFFFEB46D888D18E000F6
:1007C000001F007FFFFFFFFE95AD7DB577E00000C5
:1007D0000F007FFFFFFFFEA5AD9D8D19E000000615
:1007E000007FFFFFFFFEB5ADEDB57EE0000000002D
:1007F00000018000000000000000000003800000F5
:100800000000000000000007C00000000000000021
:10081000000007C00000000000000000000FC00042
:1008200000000000000000001FE0000000000000C9
:100830000000001FE00000000000000000003FE09A
:100840000000000000000000003FF0000000000079
:10085000000000007FF0000000000000001FF87F93
:10086000F0000000000000003FFE7FF000000000EC
:100870000000003FFF7FF0000000000000001FFFAD
:10088000FBE0000000000000000FFFF9FFC00000C7
:10089000000000000FFFF9FFF80000000000000753
:1008A000FFF1FFFF00000000000003FC73FFFF806A
:1008B000000000000001FE3FFFFF8000000000007C
:1008C00000FF1E0FFF000000000000007FFE1FFC65
:1008D000000000000000003FFFFFF80000000000E3
:1008E00000000FDFFFE0000000000000001F19FF04
:1008F000C0000000000000003F3CFF0000000000BE
:100900000000007E7CF800000000000000007FFE78
:100910007C0000000000000000FFFFFC0000000061
:1009200000000000FFFFFE0000000000000000FFCC
:10093000FFFE0000000000000001FFEFFE000000CD
:100940000000000001FFCFFE0000000000000003D7
:10095000FF07FE0000000000000003FC07FE00008F
:10096000000000000003F003FE0000000000000093
:10097000018000FE000000000000000000007E007A
:100980000000000000000000003E00000000000029
:10099000000000000C000000000000078000FC00C8
:1009A0000003C0000000078001FC000003C000003D
:1009B00000078001FC000003C0000000078001E088
:1009C0000000001E000000078001E00000001E0083
:1009D0007FE3F79FF9FDE7787BDFC0FFF7FFBFFDFF
:1009E000FDFF787BDFC0FFF7FFBFFDFDFF787BDFFA
:1009F000C0F0F787BC3DE1FF787BDE00F0F787BCF5
:100A00003DE1F0787BDE0000F787803DE1E0787B18
:100A1000DE007FF7879FFDE1E0787BDE00FFF78750
:100A2000BFFDE1E0787BDE00F0F787BC3DE1E078D8
:100A30007BDE00F0F787BC3DE1E0787BDE00F0F77D
:100A400087BC3DE1E0787BDE00FFF7FFBFFDE1E022
:100A50007FFBDFC0FFF7FFBFFDE1E07FFBDFC07C76
:100A6000F3F39F3DE1E03E7BCFC0000000000000BB
:100A70000000000000FFFFFFFFFFFFFFFFFFFFC0C0
:100A8000FFFFFFFFFD68DB111A31C0FFFFFFFFFD15
:100A90002B5AFB6AEFC0FFFFFFFFFD4B5B3B1A3396
:100AA000C0FFFFFFFFFD6B5BDB6AFDC0643A200007
:100AB000633A2000623A2000613A20006164636773
:100AC00061696E61646A3A20006164636F6666738F
:100AD00061646A3A2000706D696E3A200052656167
:100AE0006420454550524F4D2E00556E7375707001
:100AF0006F7274656420454550524F4D2076657283
:100B000073696F6E3A2000706D640A760053534427
:100B10003133303620616C6C6F636174696F6E20A5
:100B20006661696C65640053657269616C207374F9
:100B300061727465642E0064426D0057002A2A2A8F
:100B400057002C207077723A20002C2076696E3A7C
:100B50002000416463416363756D756C61746F72ED
:100B60003A200000000000240027002A00000000B6
:100B700000250028002B00040404040404040402DB
:100B8000020202020203030303030301020408102A
:100B900020408001020408102001020408102000F7
:100BA000000008000201000003040700000000002C
:100BB0000000002200FF2100A718C21E11241FBE42
:100BC000CFEFD8E0DEBFCDBF11E0A0E0B1E0E2EBB7
:100BD000F8E402C005900D92AA38B107D9F723E0D6
:100BE000AAE8B1E001C01D92A134B207E1F715E017
:100BF000CDEDD5E004C02197FE010E94FB1ECC3D47
:100C0000D107C9F70E942B190C944C240C940000B6
:100C1000089590E0FC01E156F44F2491FC01E55762
:100C2000F44F3491FC01E958F44FE491EE23C9F0FC
:100C3000222339F0233001F1A8F4213019F12230B8
:100C400029F1F0E0EE0FFF1FE359F44FA591B491A5
:100C50008FB7F894EC91611126C030953E233C93F8
:100C60008FBF08952730A9F02830C9F0243049F704
:100C7000809180008F7D03C0809180008F7780936A
:100C80008000DFCF84B58F7784BDDBCF84B58F7DC7
:100C9000FBCF8091B0008F778093B000D2CF80914E
:100CA000B0008F7DF9CF3E2BDACFCF93DF9390E06A
:100CB000FC01E557F44F24918958944FFC0184912D
:100CC0008823D1F090E0880F991FFC01ED59F44F73
:100CD000A591B491FC01E359F44FC591D4916111F0
:100CE0000EC09FB7F8948C91E22FE0958E238C93E1
:100CF0002881E223E8839FBFDF91CF9108958FB7CA
:100D0000F894EC91E22BEC938FBFF6CF3FB7F894B9
:100D100080914C0290914D02A0914E02B0914F02F1
:100D200026B5A89B05C02F3F19F00196A11DB11D46
:100D30003FBFBA2FA92F982F8827BC01CD01620F82
:100D4000711D811D911D42E0660F771F881F991F3D
:100D50004A95D1F708958F929F92AF92BF92CF920A
:100D6000DF92EF92FF924B015C010E9486066B01BD
:100D70007C010E9486066C197D098E099F09683ED8
:100D8000734081059105A8F321E0821A9108A1081A
:100D9000B10888EEC80E83E0D81EE11CF11C811456
:100DA0009104A104B10429F7FF90EF90DF90CF9058
:100DB000BF90AF909F908F90089508950895EF92FF
:100DC000FF920F931F93CF93DF938C017B01D0E0B1
:100DD000C0E0F701EC0FFD1F6491662361F0D801BC
:100DE000ED91FC910190F081E02DC8010995892BCE
:100DF00011F02196EECFCE01DF91CF911F910F918F
:100E0000FF90EF900895AF92BF92CF92DF92EF9252
:100E1000FF920F931F93CF93DF936C017B018B01A4
:100E2000040F151FEB015E01AE18BF08C017D107F4
:100E300059F06991D601ED91FC910190F081E02D7E
:100E4000C6010995892B79F7C501DF91CF911F91D3
:100E50000F91FF90EF90DF90CF90BF90AF900895EB
:100E6000FC01538D448D252F30E0842F90E0821BB0
:100E7000930B541710F0CF96089501970895FC0135
:100E8000918D828D981761F0A28DAE0FBF2FB11D8D
:100E90005D968C91928D9F5F9F73928F90E00895E5
:100EA0008FEF9FEF0895FC01918D828D981731F09F
:100EB000828DE80FF11D858D90E008958FEF9FEFF3
:100EC0000895FC01918D228D892F90E0805C9F4FC9
:100ED000821B91098F739927089584E592E00E94FF
:100EE000610721E0892B09F420E0822F089580E03A
:100EF00090E0892B29F00E946D0781110C9400006D
:100F00000895FC01A48DA80FB92FB11DA35ABF4F9E
:100F10002C91848D90E001968F739927848FA689F8
:100F2000B7892C93A089B1898C91837080648C934C
:100F3000938D848D981306C00288F389E02D8081FB
:100F40008F7D80830895EF92FF920F931F93CF932D
:100F5000DF93EC0181E0888F9B8D8C8D98131AC0F4
:100F6000E889F989808185FF15C09FB7F894EE89DB
:100F7000FF896083E889F989808183708064808338
:100F80009FBF81E090E0DF91CF911F910F91FF9083
:100F9000EF900895F62E0B8D10E00F5F1F4F0F732B
:100FA0001127E02E8C8D8E110CC00FB607FCFACFE6
:100FB000E889F989808185FFF5CFCE010E948107FC
:100FC000F1CFEB8DEC0FFD2FF11DE35AFF4FF082B7
:100FD0009FB7F8940B8FEA89FB8980818062CFCF1D
:100FE000CF93DF93EC01888D8823B9F0AA89BB8960
:100FF000E889F9898C9185FD03C0808186FD0DC04B
:101000000FB607FCF7CF8C9185FFF2CF808185FF6B
:10101000EDCFCE010E948107E9CFDF91CF910895F6
:10102000EF92FF920F931F93CF93DF93EC01EC802D
:10103000FD806E157F050CF070C057FF04C0240FB3
:10104000351F50E040E08E819F81FA01E20FF31FCF
:101050008E179F071CF49C01241B350B12161306D8
:101060000CF05BC0922F842F8695869586958E9D79
:10107000D0018F9DB00D11246A0F7B1FAF8DB8A1D9
:10108000A60FB71F477049F188E0841B482F682FCF
:1010900070E0FB01EE50FA4FE491281708F063C0AE
:1010A000621B71092FEF30E002C0359527956A95D4
:1010B000E2F7E2230130110539F0B0F102301105F9
:1010C00061F58C91E82702C08C91E82BEC93941782
:1010D00020F12C813D81A20FB31FE92FE41BE830E2
:1010E00078F00230110521F58E2F9C9190959C93FC
:1010F0002C813D81A20FB31F88508830B0F7E77074
:10110000EE2359F0F0E0E651FA4FE4910130110579
:10111000F9F010F10230110519F1DF91CF911F9113
:101120000F91FF90EF900895E0958C91E823CECF3A
:1011300081E00115110509F480E081959E2F8C93C3
:101140002C813D81A20FB31F98509830C0F7D7CFA4
:101150008C91E82BEC93E1CFE0958C91E823FACFCA
:101160008C91E827F7CF0130110509F4ADCFE0F2FB
:101170000230110509F4A5CFAE0DBF1DAECF0F9300
:101180001F93CF93DF9377FF04C0260F371F70E0C4
:1011900060E0DC011496CD91DC91FB01E20FF31FBE
:1011A000CE17DF071CF49E01261B370B1216130601
:1011B0004CF5FA0157FD3796A3E0F595E795AA950A
:1011C000E1F7EC9FD001ED9FB00DFC9FB00D112415
:1011D0006A0F7B1FDC015F96ED91FC91E60FF71F14
:1011E0004770552781E090E001C0880F4A95EAF7E3
:1011F000482F0130110559F0A8F02E0F3F1F023083
:101200001105E1F0DF91CF911F910F9108952E0FFD
:101210003F1FE217F307B1F38191DF011197842B90
:101220008C93F7CF80952E0F3F1FE217F30751F3F2
:101230009191DF01119798239C93F7CFE217F30761
:1012400009F38191DF01119784278C93F7CF0F93D6
:101250001F93FA01DC0156964C9156974230E9F003
:101260004330A1F1413061F514964D915C91DA0162
:10127000AE1BBF0BFD01E21BF30B77FD0BC0DC01C6
:1012800016964D915C916417750724F4AB01BF016C
:101290000E94BF081F910F91089514964D915C9183
:1012A000DA01A61BB70BBD0161507109DC0116966E
:1012B0004D915C91DA01AE1BBF0BFD01E21BF30BFC
:1012C00077FDE8CFAF010E941008E4CF16964D914C
:1012D0005C91DA01A61BB70BBD0161507109CDCF3E
:1012E0000F931F93FA01DC0156964C9156974230AA
:1012F000A9F0433091F1413019F514964D915C916C
:10130000DA01AE1BBF0BFD013197F7FD04C0AB0145
:10131000BF010E9410081F910F91089514964D91DE
:101320005C91DA01A61BB70BBD01DC0116964D914D
:101330005C91DA01AE1BBF0BFD013197621B730B91
:10134000F7FDE9CFDC0116964D915C91E417F507A6
:1013500014F7AF010E94BF08DECF16964D915C9145
:10136000DA01A61BB70BBD01621B730BCECFFC01CC
:1013700077FD64C080859185681779070CF05EC0A1
:1013800057FD5CC082859385481759070CF056C0FD
:1013900086898230B1F0833029F1813041F4848133
:1013A0009581841B950BAB01BC0161507109213003
:1013B000310509F108F443C02230310509F463C056
:1013C000089584819581DC01A61BB70BBD01615096
:1013D000710986819781DC01A41BB50BAD014150D9
:1013E0005109E5CF86819781861B970BBA01AC0125
:1013F00041505109DCCFCA0157FD0796A3E09595EE
:101400008795AA95E1F7A481B5818A9F90018B9F6A
:10141000300D9A9F300D1124620F731F078CF0A1BD
:10142000E02DE60FF71F4770552721E030E001C09F
:10143000220F4A95EAF78081822B80830895CA01A2
:1014400057FD079633E0959587953A95E1F7A48186
:10145000B5818A9F90018B9F300D9A9F300D11248A
:10146000620F731F078CF0A1E02DE60FF71F477086
:10147000552781E090E001C0880F4A95EAF78095F2
:1014800090818923DACFCA0157FD079623E095950D
:1014900087952A95E1F7A481B5818A9F90018B9F5A
:1014A000300D9A9F300D1124620F731F078CF0A12D
:1014B000E02DE60FF71F4770552721E030E001C00F
:1014C000220F4A95EAF780818227B7CF08958EBD13
:1014D00000000DB407FEFDCF8EB508958CBD9DBDF7
:1014E00008950895FC016370668B8481958126813F
:1014F0003781613039F0633029F0918780873387F5
:1015000022870895318720879387828708952F92B5
:101510003F924F925F926F927F928F929F92AF9283
:10152000BF92CF92DF92EF92FF920F931F93CF93D0
:10153000DF93CDB7DEB76A970FB6F894DEBF0FBE64
:10154000CDBF9A8F898F7A8369834A01D22E1887FB
:101550000F833701BC2CDC0159962D913C915A9791
:101560002115310509F015C118968D919C91199797
:10157000681779070CF0D7C11A968D919C9148177E
:1015800059070CF0D0C14C2C512CB6E0CB9E600D0D
:10159000711D11247C876B87161617060CF0C3C1CA
:1015A000EA2DF0E0FA87E98793E0EE0FFF1F9A95A6
:1015B000E1F7F88BEF87CF01840F951F18161906F6
:1015C0000CF0B1C1A98DBA8D58968C91811104C0CF
:1015D000BFEABD1508F4D394A98DBA8DED91FC91A5
:1015E00011970284F385E02DCD010995B5E0DB9ECE
:1015F000C0011124E981FA81FC83EB83312C212C79
:101600009C0126513F4F388F2F8B4A2D50E05E8B27
:101610004D8BEF89F88DE20DF31D44919E828D82F2
:10162000D12CC12C69817A81620D731D7A8B698BF3
:10163000842F90E09C8B8B8BE98DFA8DA081B181FA
:1016400040FF82C0F1E0BF126FC0AF126DC01C96A8
:10165000ED91FC912F813885A4014C0D5D1D6989A8
:101660007A89898D9A8D0995EB89FC89F595E7959D
:101670004E2F5FEFC51AD50A6D817E818D899E89B7
:10168000680F791F7E836D8398E0C916D10481F6B7
:10169000AFEF2A1A3A0AEB81FC81E40DF51DFC83B9
:1016A000EB83F5E02F16310409F0B3CF2F81388595
:1016B00026153705B9F0A98DBA8DED91FC91B1E0F1
:1016C000BB1257C0AB1255C069817A816B5F7F4FE7
:1016D0000088F189E02D830128E030E0A401898DA4
:1016E0009A8D0995A98DBA8DED91FC911197068877
:1016F000F789E02DCD016A960FB6F894DEBF0FBED4
:10170000CDBFDF91CF911F910F91FF90EF90DF90B0
:10171000CF90BF90AF909F908F907F906F905F9091
:101720004F903F902F9009941E96ED91FC91EF8081
:10173000F88409851A8592014D815E816B817C81D7
:10174000898D9A8D099590CF2F813885261537057B
:1017500009F48ACF31E0B31207C0A31205C01C966A
:10176000ED91FC91930178CF1E96ED91FC91730160
:10177000E0CF6B857C85641975090684F785E02DBB
:1017800073010F8518899201A401898D9A8D09959D
:10179000A9CFF90134969491329745915491D91A71
:1017A000B7E0DB9E400D511D1124F90125913491C4
:1017B0003C8B2B8BFA0125903490FA013296749071
:1017C00031963491398B329664903196449041E051
:1017D0004C1518F04A1508F07FC0662D062C000C39
:1017E000770B7C836B83842D042C000C990B9E83D8
:1017F0008D83A98DBA8DED91FC9111970284F385AB
:10180000E02DCD010995512CD12CC12CEA2DF0E011
:10181000FA87E9872B2D30E03C872B87A401440D04
:10182000511D47FC5A95588F4F8B69817A81660DFF
:10183000711D67FC7A957E876D877989C71608F0D8
:1018400051CF2C2D30E04D815E81420F531FA98571
:10185000BA854A9FC0014B9F900D5A9F900D11244D
:10186000FC01E80DF91DF88BEF87852D612C4F8960
:10187000588D420F531F5E8B4D8B671408F050C07C
:1018800044244394480E877041F4C1010196EB89CA
:10189000FC89E20DF31DD4901C01D7FE19C0A98D5F
:1018A000BA8DED91FC91662D70E0B1E0BB1219C0CC
:1018B000AB1217C02D853E85620F731F0484F5851A
:1018C000E02D2F8138854D895E89898D9A8D099506
:1018D000DD0C6394842DD1CF1E821D821C821B825D
:1018E00088CF4B815C81640F751FAB85BC856A9F77
:1018F000C0016B9F900D7A9F900D112469817A81B0
:10190000680F791F0684F785E02DEF80F88409853C
:101910001A859D014F855889898D9A8D0995D8CF53
:10192000570CC3948ACF6A960FB6F894DEBF0FBEE9
:10193000CDBFDF91CF911F910F91FF90EF90DF907E
:10194000CF90BF90AF909F908F907F906F905F905F
:101950004F903F902F9008958F929F92AF92CF9289
:10196000EF92FF920F931F93CF93DF93EC01262FFB
:10197000898D9A8D009709F051C06A30D1F41D8687
:101980001C868D8948E0849F900111248E859F8557
:10199000820F931F9F878E8781E090E0DF91CF9128
:1019A0001F910F91FF90EF90CF90AF909F908F90ED
:1019B00008956D3089F3CC88AD888F898823C1F074
:1019C0008C859D8536E0C39E800D911D1124488530
:1019D00059854817590764F44E855F851D861C8616
:1019E00038E0A39EC0011124840F951F9F878E8726
:1019F000EA88FB88088919894E855F856C857D8515
:101A0000CE010E94870A2C898C859D8546E0249F03
:101A1000800D911D11249D878C87BECF6A3069F49B
:101A20001D861C86FC013896E4912D898E859F8544
:101A3000E29F800D911D1124ADCF6D3009F4ACCF24
:101A4000FC0134963491631708F4A6CF3296E491E2
:101A5000E61708F4A1CFFC01329685909490462FAA
:101A6000431B342F47E0349F800C911C1124F40158
:101A7000329634913196E4913323A9F1EE2399F112
:101A8000CC88F4013596E491AD884F89442301F167
:101A90000E2E000CFF0BE30FF11DCE9EA001CF9E7A
:101AA000500D11246C857D85460F571F68857985FB
:101AB000641775076CF44E855F851D861C86FC01D6
:101AC0003896E491AE9E400D511D11245F874E87DC
:101AD000EA88FB88088919894E855F856C857D8534
:101AE000CE010E94870AF4013496E4912C898C85FA
:101AF0009D85E29F800D911D11248DCF6F927F9265
:101B00008F929F92AF92BF92CF92DF92EF92FF920D
:101B10000F931F93CF93DF93EC016B015A013901AF
:101B20004801E881F9810284F385E02D0995E88177
:101B3000F9810288F389E02D87019301A501B6019F
:101B4000CE010995A501480D591D41505109E88163
:101B5000F9810288F389E02D9301B601CE01099540
:101B6000E881F9810088F189E02D9401A501B60191
:101B7000CE010995C60CD71CB60161507109E881E8
:101B8000F9810088F189E02D9401A501CE01099524
:101B9000E881F9810688F789E02DCE01DF91CF91A8
:101BA0001F910F91FF90EF90DF90CF90BF90AF907B
:101BB0009F908F907F906F9009946F927F928F92F9
:101BC0009F92AF92BF92CF92DF92EF92FF920F93CC
:101BD0001F93CF93DF935C01EB016A014901380148
:101BE0008701DC01ED91FC916217730719F564160A
:101BF00075062CF0962D872D3A01C92ED82E960108
:101C0000261937092F5F3F4F048CF58DE02DA30176
:101C1000BE01C5010995DF91CF911F910F91FF90F2
:101C2000EF90DF90CF90BF90AF909F908F907F907C
:101C30006F9008954615570591F42617370724F03D
:101C4000892D4B01C22FD82F9E01281939092F5FEA
:101C50003F4F068CF78DE02DA601B401DACF028448
:101C6000F385E02D0995D501ED91FC910488F58966
:101C7000E02D83019401A601BE01C5010995D5019E
:101C8000ED91FC910688F789E02DC501DF91CF9198
:101C90001F910F91FF90EF90DF90CF90BF90AF908A
:101CA0009F908F907F906F900994EF92FF920F9387
:101CB0001F93DC011A960D911C911B9718962D917C
:101CC0003C911997ED91FC9100A0F1A1E02D7B01D1
:101CD00050E040E070E060E009951F910F91FF90A7
:101CE000EF9008954F925F926F927F928F929F92A2
:101CF000AF92BF92CF92DF92EF92FF920F931F931A
:101D0000CF93DF936C012B015A0139014801DC01AB
:101D1000ED91FC910284F385E02D0995E201640CBC
:101D2000751CD601ED91FC91C615D7055CF40088B1
:101D3000F189E02D87019401A501BE01C601099535
:101D40002196EFCF0688F789E02DC601DF91CF916C
:101D50001F910F91FF90EF90DF90CF90BF90AF90C9
:101D60009F908F907F906F905F904F9009948F928B
:101D70009F92AF92BF92CF92DF92EF92FF920F931A
:101D80001F93CF93DF93EC015B014A016901E88166
:101D9000F9810284F385E02D099595012C0D3D1DF7
:101DA00021503109E881F9810488F589E02D780115
:101DB0008401A401B501CE010995E881F981068865
:101DC000F789E02DCE01DF91CF911F910F91FF9008
:101DD000EF90DF90CF90BF90AF909F908F9009943D
:101DE0008F929F92AF92BF92CF92DF92EF92FF922B
:101DF0000F931F93CF93DF93EC015B014A016901BD
:101E00007801E881F9810284F385E02D0995C80CF9
:101E1000D91C860101501109E881F9810488F589EE
:101E2000E02D9501A401B501CE010995E881F98164
:101E30000688F789E02DCE01DF91CF911F910F9198
:101E4000FF90EF90DF90CF90BF90AF909F908F90DA
:101E50000994EF92FF920F931F93DC01ED91FC9197
:101E600000A0F1A1E02D09951F910F91FF90EF9037
:101E700008950F931F93DC01ED91FC91068CF78D73
:101E8000E02D09951F910F9108950F931F93DC0189
:101E9000ED91FC91048CF58DE02D09951F910F912A
:101EA0000895DC01ED91FC910084F185E02D099409
:101EB0003F924F925F926F927F928F929F92AF92DA
:101EC000BF92CF92DF92EF92FF920F931F93CF9327
:101ED000DF935C017B014A016901390187E0680EEB
:101EE000711C93E0759467949A95E1F72B01400E6D
:101EF000511E10E000E0312CD0E0C0E0CE01877030
:101F00009927330C892B59F4FE0183E0F595E79569
:101F10008A95E1F7E00FF11FE80DF91D349037FEC7
:101F20000AC021E030E0A701B5016C0F7D1F8DEFE5
:101F300092E00E94510F2196CC16DD06F9F68FEF44
:101F4000E81AF80A060D171DE414F504A9F6DF9146
:101F5000CF911F910F91FF90EF90DF90CF90BF90A6
:101F6000AF909F908F907F906F905F904F903F9039
:101F700008952F923F924F925F926F927F928F922D
:101F80009F92AF92BF92CF92DF92EF92FF920F9308
:101F90001F93CF93DF9300D000D000D0CDB7DEB732
:101FA0003C016A013E832D83FC82EB825801A41A16
:101FB000B50AB7FE03C0B194A194B1088D809E808C
:101FC000861A970A97FE03C09194819491088A1407
:101FD0009B045CF0902F812F0D811E819D838E8349
:101FE0009C2D8D2D6B01692F782F0C151D055CF034
:101FF0009D818E817E836D83692F782F902F812F15
:102000008601C92ED82E1601201A310A2B012D81E6
:102010003E81421A530A57FE03C05194419451081D
:10202000710137FE03C03FEFE31AF30AF594E7941A
:102030008D819E81861797075CF5A1E0B0E0BA8399
:10204000A983C016D1064CF1D301ED91FC91048413
:10205000F585E02D2B813C81A8016D817E818A145C
:102060009B041CF04D815E81B801C3010995E41801
:10207000F508F7FE0AC02D813E8189819A81280FDB
:10208000391F3E832D83E20CF31C0F5F1F4FD9CF06
:102090002FEF3FEF3A832983D4CF26960FB6F894DB
:1020A000DEBF0FBECDBFDF91CF911F910F91FF908B
:1020B000EF90DF90CF90BF90AF909F908F907F90E8
:1020C0006F905F904F903F902F90089508952091CA
:1020D000F001260F3327331F21323105ECF4209114
:1020E0001402FC0190E080E0243069F082E0089561
:1020F000A091F0012191AC0140535E4FA40FB52F88
:10210000B11D2C930196861798F38091F001680F0A
:102110006093F00180E0089581E008951092140228
:1021200081E0809316021092150261E082E10E9424
:10213000090661E083E10E940906E9EBF0E0808195
:102140008E7F808380818D7F808388E48093B80038
:1021500085E48093BC000895CF93DF9391E0909342
:10216000CF018823B9F0C091B800D091BA00809116
:10217000BC008A7B8093BC0060E082E10E9409067B
:1021800060E083E10E9409060E948E10D093BA009D
:10219000C093B800DF91CF910895E0914002809103
:1021A0003F02E81730F4F0E0E655FE4F808190E002
:1021B00008958FEF9FEF08959091400280913F0224
:1021C0002FEF3FEF981748F4E92FF0E0E655FE4F68
:1021D000208130E09F5F90934002C9010895809173
:1021E0003F0290914002891B990B0895CF92DF9294
:1021F000EF92FF920F931F93CF93DF937C01CB015C
:102200008A0120915302222389F0EB016B01C40E55
:10221000D51ECC15DD0569F06991D701ED91FC91D2
:102220000190F081E02DC7010995F3CF642F0E9442
:102230006710C801DF91CF911F910F91FF90EF9030
:10224000DF90CF900895CF93DF931F92CDB7DEB785
:102250006983209153022223F9F020915002203209
:1022600058F021E030E0FC013383228390E080E0ED
:102270000F90DF91CF91089580915102E82FF0E007
:10228000E657FE4F998190838F5F80935102809330
:10229000500281E090E0ECCF61E0CE0101960E9417
:1022A0006710F7CFCF92DF92EF92FF920F931F93B9
:1022B000CF93DF93D091500281E0D13208F09CC0DF
:1022C000C09152020E9486066B017C01809114022B
:1022D00081116CC082E08093140281E08093160229
:1022E0008FEF8093130210923802D0933702AAE83E
:1022F000B1E0E7E1F2E080E0D8138DC0109239023E
:1023000080913902CC0FC82BC093390280911502FD
:10231000813009F084C0109215020E9486066B017C
:102320007C01809139028093BB008091CB01909118
:10233000CC01A091CD01B091CE01892B8A2B8B2BA2
:10234000A1F00E9486060091CB011091CC01209152
:10235000CD013091CE016C197D098E099F090617B8
:1023600017072807390708F442C08091BC0083FD95
:10237000D8CF85EC8093BC000E9486066B017C015F
:1023800080911402823009F44CC0809113028F3F77
:1023900009F469C080911302803209F466C080910B
:1023A0001302803309F463C084E026C08091CB011E
:1023B0009091CC01A091CD01B091CE01892B8A2BB7
:1023C0008B2B09F483CF0E9486060091CB011091DC
:1023D000CC012091CD013091CE016C197D098E097F
:1023E0009F09061717072807390708F06FCF809154
:1023F000CA010E94AC1085E0109251021092500266
:1024000010925302DF91CF911F910F91FF90EF90A7
:10241000DF90CF9008959D9191938F5F6DCF85EE62
:10242000A9CF8091CB019091CC01A091CD01B09129
:10243000CE01892B8A2B8B2B09F4A2CF0E94860612
:102440000091CB011091CC012091CD013091CE01B2
:102450006C197D098E099F09061717072807390788
:1024600008F08ECFC4CF80E0C7CF82E0C5CF83E035
:10247000C3CFEF92FF920F931F93CF93DF937C0113
:10248000C62F80911A0390911B03009709F459C03D
:1024900020911E0331E03093530220935202109298
:1024A000510210925002DC01ED91FC910190F081FB
:1024B000E02D60E009958701EE24E394F12CD1E052
:1024C000C15080911A0390911B03CF3F91F1B0E26C
:1024D000EB16F104D8F00E94521180911A039091EA
:1024E0001B0320911E03D09353022093520210929B
:1024F000510210925002DC01ED91FC910190F081AB
:10250000E02D60E00995EE24E394F12C80911A030C
:1025100090911B03F8016491DC01ED91FC91019015
:10252000F081E02D0995BFEFEB1AFB0A0F5F1F4FFB
:10253000C7CFDF91CF911F910F91FF90EF900C9437
:102540005211E0912A03F0912B0390818091300386
:102550008095892380838701C15008F438C0F80131
:1025600084912091180330911903232B29F00E94A4
:10257000670A0F5F1F4FF0CF28E030E040E8E0919E
:102580002603F091270390912E03582F5423D9F05E
:102590005081952B9083E0912803F091290390813D
:1025A00050912F03952B9083E0912803F0912903FC
:1025B000508190912F0390959523908346952150BB
:1025C0003109E9F6D6CF508190959523E3CFDF917D
:1025D000CF911F910F91FF90EF9008951F93CF938C
:1025E000DF93EC018D8D9E8D009721F1162F29A18F
:1025F00031E0309353022093520210925102109214
:102600005002DC01ED91FC910190F081E02D60E041
:1026100009958D8D9E8DDC01ED91FC910190F081ED
:10262000E02D612F09958D8D9E8DDF91CF911F91AA
:102630000C945211ADA5BEA59C918BA980958923C0
:102640008C938B8D9C8D892B31F0862FDF91CF91D0
:102650001F910C94670A28E030E080E8A9A5BAA58C
:1026600099A9462F4823C1F04C91942B9C93ABA57C
:10267000BCA59C914AA9942B9C93ABA5BCA54C915D
:102680009AA9909594239C9386952150310931F70E
:10269000DF91CF911F9108954C9190959423E6CFAF
:1026A000DF92EF92FF920F931F93CF93DF9380916E
:1026B0001A0390911B03892B09F498C020913203CF
:1026C00030913303409134035091350360E074E25C
:1026D00084EF90E00E94D91E20513109410951092F
:1026E00056954795379527952093B80065E083EB7D
:1026F0009BE00E9439126091010361508DEF92E0DE
:102700000E94EE122091030330910403C901079641
:1027100097FD079633E0959587953A95E1F72091D7
:10272000010330910203829F8001839F100D929FCD
:10273000100D1124C0911C03D0911D0380911A0328
:1027400090911B030C0F1D1F009709F48FC020915F
:102750001E0331E030935302209352021092510233
:1027600010925002DC01ED91FC910190F081E02D7E
:1027700060E40995EE24E394F12CDD24D394809158
:102780001A0390911B030C171D0709F446C0B0E211
:10279000EB16F104D8F00E94521180911A03909127
:1027A0001B0320911E03D0925302209352021092D9
:1027B000510210925002DC01ED91FC910190F081E8
:1027C000E02D60E40995EE24E394F12C80911A0346
:1027D00090911B036991DC01ED91FC910190F081D6
:1027E000E02D0995BFEFEB1AFB0AC9CF80911803C2
:1027F00090911903892B31F080913B0390913C0318
:102800000E946E0AE0912C03F0912D03908180913B
:10281000310380958923808369CF0E945211809172
:102820001A0390911B03892B09F461C02091360390
:1028300030913703409138035091390360E074E2DE
:1028400084EF90E00E94D91E2051310941095109BD
:1028500056954795379527952093B800DF91CF91EE
:102860001F910F91FF90EF90DF900895E0912A0360
:10287000F0912B03808190913003892B80830C177A
:102880001D0769F289912091180330911903232BB8
:1028900019F00E94670AF3CF28E030E040E8E091A9
:1028A0002603F091270390912E03582F5423D9F03B
:1028B0005081952B9083E0912803F091290390811A
:1028C00050912F03952B9083E0912803F0912903D9
:1028D000508190912F039095952390834695215098
:1028E0003109E9F6CCCF508190959523E3CFE09163
:1028F0002C03F0912D03808190913103892B8083EB
:10290000ADCF1F93CF93DF93EC01162F8D8D9E8D4E
:10291000892BB1F12DA93EA94FA958AD60E074E211
:1029200084EF90E00E94D91E2051310941095109DC
:1029300056954795379527952093B80066EA11116B
:1029400067EACE010E94EE128D8D9E8D892B41F19A
:1029500029AD3AAD4BAD5CAD60E074E284EF90E040
:102960000E94D91E205131094109510956954795B8
:10297000379527952093B800DF91CF911F91089547
:102980008B8D9C8D892B21F08EAD9FAD0E946E0AA0
:10299000EFA5F8A990818CA9809589238083CECF5B
:1029A000EFA5F8A980819CA9892B8083E5CF90E0D1
:1029B00080E008952091030330910403C901079634
:1029C00097FD079623E0959587952A95E1F7209145
:1029D000010330910203829FA001839F500D929FBB
:1029E000500D112470E060E080911C0390911D0354
:1029F0000C9445240E944024FB0101900020E9F73B
:102A00003197AF01461B570BDC01ED91FC91028021
:102A1000F381E02D0994CF93DF93BC0184E592E02C
:102A20000E94DF06EC0165E771E084E592E00E9418
:102A3000FC148C0F9D1FDF91CF9108958F929F9270
:102A4000AF92BF92EF92FF920F931F93CF93DF93BA
:102A5000CDB7DEB7A1970FB6F894DEBF0FBECDBFDE
:102A60007C01FA01CB0119A2223008F42AE08E0180
:102A70000F5D1F4F822E912CB12CA12CBF01A501FF
:102A800094010E94D91EF901CA016A300CF5605DFB
:102A9000D8016E938D01232B242B252B79F790E001
:102AA00080E0109721F0BD01C7010E94FC14A1969F
:102AB0000FB6F894DEBF0FBECDBFDF91CF911F914F
:102AC0000F91FF90EF90BF90AF909F908F900895DF
:102AD000695CDECFCF92DF92EF92FF92CF93DF93CC
:102AE0006B017C016DE284E592E00E94A307EC019A
:102AF00044275527BA014C195D096E097F092AE060
:102B000084E592E00E941E158C0F9D1FDF91CF91EE
:102B1000FF90EF90DF90CF900895CF93DF93AC01BB
:102B2000990F660B770B77FF10C0CB01BA010E949B
:102B30006A15EC0165E771E084E592E00E94FC14FF
:102B40008C0F9D1FDF91CF9108952AE084E592E0DC
:102B50000E941E15EECF2F923F924F925F926F927E
:102B60007F928F929F92AF92BF92CF92DF92EF921D
:102B7000FF921F93CF93DF93EC016A017B01722ECA
:102B8000AB019601CB01B6010E943F2268E771E0DC
:102B9000811126C046015701E894B7F82FEF3FEFA7
:102BA0004FE75FE7C501B4010E943F2281110CC0CD
:102BB0002FEF3FEF4FE75FE7C501B4010E946E1FA3
:102BC0006CE771E0181664F02FEF3FEF4FE75FE41A
:102BD000C701B6010E9425211816B4F460E871E01F
:102BE000CE01DF91CF911F91FF90EF90DF90CF90BA
:102BF000BF90AF909F908F907F906F905F904F901D
:102C00003F902F900C94FC142FEF3FEF4FE75FECB9
:102C1000C701B6010E946E1F87FDE0CF20E030E0C3
:102C2000A901C701B6010E946E1F312C212C87FF1C
:102C30000DC0E881F9810190F081E02D6DE2CE01B7
:102C400009951C01F7FAF094F7F8F09410E060E0B1
:102C500070E080E09FE3711641F020E030E040E258
:102C600051E40E94731F1F5FF6CFA70196010E94D7
:102C7000021F2B013C010E94EC1F4B015C012AE06A
:102C8000BC01A401CE010E941E157C01E20CF31CC4
:102C90001123E1F1C501B4010E941B209B01AC018D
:102CA000C301B2010E94011F4B015C01E881F9815F
:102CB0000190F081E02D6EE2CE010995E80EF91E3B
:102CC000115020F120E030E040E251E4C501B401B0
:102CD0000E9482212B013C010E94EC1F4B01B12C70
:102CE000A12C2AE0B501A401CE010E941E15E80E18
:102CF000F91EC501B4010E941B209B01AC01C30158
:102D0000B2010E94011F4B015C01DACFC701DF91C4
:102D1000CF911F91FF90EF90DF90CF90BF90AF9039
:102D20009F908F907F906F905F904F903F902F90EB
:102D30000895CF93DF93AB01BC012AE084E592E0D4
:102D40000E94AB15EC0165E771E084E592E00E941A
:102D5000FC148C0F9D1FDF91CF91089585ED80931A
:102D6000BC008091CB019091CC01A091CD01B0919C
:102D7000CE010796A11DB11D23E0B695A7959795A5
:102D800087952A95D1F72091BC0024FD03C01092AD
:102D9000140208954091CB015091CC016091CD0176
:102DA0007091CE01452B462B472B69F30097A10567
:102DB000B10541F025E32A95F1F700000197A1093B
:102DC000B109E1CF8091CA010C94AC101F920F920F
:102DD0000FB60F9211242F933F938F939F93AF932E
:102DE000BF938091480290914902A0914A02B0910C
:102DF0004B023091470223E0230F2D3758F50196FF
:102E0000A11DB11D2093470280934802909349026F
:102E1000A0934A02B0934B0280914C0290914D02D4
:102E2000A0914E02B0914F020196A11DB11D809359
:102E30004C0290934D02A0934E02B0934F02BF916B
:102E4000AF919F918F913F912F910F900FBE0F9057
:102E50001F90189526E8230F0296A11DB11DD2CF11
:102E60001F920F920FB60F9211242F933F934F93FF
:102E70005F936F937F938F939F93AF93BF93EF93E2
:102E8000FF9384E592E00E948107FF91EF91BF914B
:102E9000AF919F918F917F916F915F914F913F91F2
:102EA0002F910F900FBE0F901F9018951F920F92A9
:102EB0000FB60F9211242F938F939F93EF93FF934D
:102EC000E0916402F09165028081E0916A02F091E4
:102ED0006B0282FD1BC0908180916D028F5F8F73AA
:102EE00020916E02821741F0E0916D02F0E0EC5A01
:102EF000FD4F958F80936D02FF91EF919F918F9180
:102F00002F910F900FBE0F901F9018958081F4CFD6
:102F10001F920F920FB60F9211242F933F934F934E
:102F20005F936F937F938F939F93AF93BF93EF9331
:102F3000FF938091B900887F803609F44AC0F0F58C
:102F4000883209F4A7C018F5803109F49BC0B8F4A1
:102F5000882309F4F9C0883009F494C0FF91EF91F7
:102F6000BF91AF919F918F917F916F915F914F91A1
:102F70003F912F910F900FBE0F901F9018958831A1
:102F800009F488C0803251F78093130214C0803452
:102F900009F49DC040F48033B9F38833F9F6809387
:102FA000130285ECB0C0803509F485C0883509F47A
:102FB00096C0883499F60E94AE16D0CF883909F4AD
:102FC0008CC038F5883729F050F4883611F08037F6
:102FD00029F683E0809314021092120257C08838B9
:102FE00009F47BC0803919F0803809F0B7CF80919F
:102FF0001202803208F071C0E091120281E08E0F5F
:10300000809312028091BB00F0E0EE50FE4F80836F
:103010003DC0803B39F0E0F4803A09F479C0883A49
:1030200009F09CCF84E0809314021092F101109279
:10303000F001E0913D02F0913E0209958091F0018E
:1030400081110FC081E08093F0011092D00109C07E
:10305000803C09F4A6CF883C09F4A3CF883B09F053
:103060007DCFE091F10181E08E0F8093F101F0E0DE
:10307000E053FE4F80818093BB009091F1018091DD
:10308000F00129C0809139028093BB0085EC8093C8
:10309000BC0064CF9091380280913702981758F5A0
:1030A000E091380281E08E0F80933802F0E0E95E13
:1030B000FD4F8081E9CFE091380281E08E0F80934F
:1030C00038028091BB00F0E0E95EFD4F8083909173
:1030D0003802809137029817C8F285E8D8CFE0917E
:1030E000380281E08E0F809338028091BB00F0E0BF
:1030F000E95EFD4F80838091160281115CCF81E0F3
:103100008093150284EA8093BC001092140226CFAB
:1031100085EC8093BC0010921402809112028032E0
:1031200030F4E0911202F0E0EE50FE4F1082609118
:10313000120270E0E0913B02F0913C0282EF91E0DC
:103140000995109212020ACF1092130234CFE4E5CF
:10315000F2E01382128248EE53E060E070E04483B4
:1031600055836683778389E291E09183808385EC40
:1031700090E09587848784EC90E09787868780EC41
:1031800090E0918B808B81EC90E0938B828B82EC32
:1031900090E0958B848B86EC90E0978B868B118EDC
:1031A000128E138E148EA1EFB2E013961C921E9213
:1031B000129714964D935D936D937C9317978BE3C1
:1031C00091E011969C938E93EDEFF2E013821282C0
:1031D00020E830E03583248380E490E09783868381
:1031E0003187208793878287168A158614861786EB
:1031F000168681E0858B848B2FEF3FEF338B228BFC
:10320000318B208B878B108E128E118E8DE491E086
:1032100091838083148E138EB68FA58F10A2178E84
:103220008FEF84A385A386A387A384E080A780E88B
:103230009AE1A6E0B0E085AB96ABA7ABB0AF80EA71
:1032400096E8A1E0B0E081AF92AFA3AFB4AF80E564
:1032500086AF17AE0895CF93DF9300D000D0CDB7DF
:10326000DEB7789484B5826084BD84B5816084BD06
:1032700085B5826085BD85B5816085BD80916E0014
:10328000816080936E001092810080918100826045
:103290008093810080918100816080938100809182
:1032A00080008160809380008091B1008460809371
:1032B000B1008091B00081608093B00080917A006D
:1032C000846080937A0080917A00826080937A0093
:1032D00080917A00816080937A0080917A00806882
:1032E00080937A001092C10060E08EE00E94550643
:1032F00083E080930001E0916402F091650282E036
:103300008083E0916002F09161021082E09162029C
:10331000F09163028FEC808310926C02E09168025E
:10332000F091690286E08083E0916602F091670285
:10333000808180618083E0916602F09167028081E4
:1033400088608083E0916602F091670280818068E6
:103350008083E0916602F091670280818F7D808397
:1033600087E29BE00E940B1580911C0390911D0346
:10337000892B31F52091030330910403C90107968D
:1033800097FD0796B3E095958795BA95E1F720915B
:10339000010330910203AC01429FC001439F900D95
:1033A000529F900D11240E941B2390931D03809324
:1033B0001C03892B29F48DE09BE00E940B15FFCFA5
:1033C0000E94DA14209103033091040380910103D9
:1033D00090910203B901213231050CF445C16054CA
:1033E000710977FF02C06F5F7F4F759567958255B2
:1033F000910997FD019600E410E022E530E04CEEE3
:1034000057E0959587950E94580F82E080931F039F
:1034100080911A0390911B03892B09F438C18CE326
:1034200080931E031092400210923F0210925102AC
:10343000109250020E948E108DED96E090933E0205
:1034400080933D028EED96E090933C0280933B0288
:103450008091250387FD1EC061E00E94550661E052
:10346000809125030E94090661E070E080E090E011
:103470000E94AB0660E0809125030E9409066AE085
:1034800070E080E090E00E94AB0661E0809125034F
:103490000E94090680911A0390911B03892B09F45D
:1034A000B7C12091320330913303409134035091DE
:1034B000350360E074E284EF90E00E94D91E205151
:1034C000310941095109569547953795279520931C
:1034D000B80064E088E096E00E943912609103032E
:1034E00061508DEF92E00E94EE1264E084E096E07D
:1034F0000E94391280911F0360E1813009F064E17C
:103500008DEF92E00E94EE1264E080E096E00E946F
:1035100039128FE880933A0380910103909102035E
:103520008038910509F08DC18091030390910403C7
:103530008034910509F09AC180911F03813009F010
:103540007EC18FE980933A0392E199836AED8DEF12
:1035500092E00E94EE1269818DEF92E00E94EE12DD
:1035600061E88DEF92E00E94EE1260913A038DEFD8
:1035700092E00E94EE1269ED8DEF92E00E94EE1251
:1035800080911F0362E2813009F061EF8DEF92E0DC
:103590000E94EE1266E08AEF95E00E943912809157
:1035A0001A0390911B03892B09F469C120913603FA
:1035B00030913703409138035091390360E074E251
:1035C00084EF90E00E94D91E205131094109510930
:1035D00056954795379527952093B8000E94DA14A1
:1035E0000E94501382E0809311038093120381E0C4
:1035F00090E09093100380930F0390930E038093B9
:103600000D038093150367E07BE08DEF92E00E944D
:10361000DF0664E871E08DEF92E00E94FC1465E73C
:1036200071E08DEF92E00E94FC140E94501368EE4E
:1036300073E080E090E00E94AB0690E080E00E94A2
:10364000D11E482F50E05A8349834130510509F477
:1036500020C16AEE7AE084E592E00E94DF0689816B
:103660009A810E948D15FFCF6052710977FF02C0C9
:103670006F5F7F4F759567958357910997FD019609
:1036800000E210E023E730E04CE056E0BACE61E023
:10369000809123030E94550661E0809124030E94DB
:1036A000550680912303082E000C990BFC01E95864
:1036B000F44FE491F0E0EE0FFF1FE359F44F259132
:1036C000349130932B0320932A03FC01E557F44FE8
:1036D000E491E093300380912403082E000C990BB1
:1036E000FC01E958F44FE491F0E0EE0FFF1FE359BD
:1036F000F44FA591B491B0932D03A0932C03FC013A
:10370000E557F44FE491E09331038C91E82BEC936F
:103710008091180390911903892B09F436C05FB783
:103720005983F89480913A02811127C0E1E8FBE0C7
:103730008491E5E9FBE09491E82FF0E0EE0FFF1FA4
:10374000ED59F44FA591B491EC91E92321F461E096
:103750008AE00E94090661E08AE00E9455068CB565
:1037600080618CBD8CB580648CBD61E08DE00E9471
:10377000550661E08BE00E94550680913A028F5F0A
:1037800080933A0289818FBF63CE61E080912103EB
:103790000E94550661E0809122030E9455068091A7
:1037A0002103082E000C990BFC01E958F44FE49119
:1037B000F0E0EE0FFF1FE359F44F25913491309361
:1037C000270320932603FC01E557F44FE491E0938F
:1037D0002E0380912203082E000C990BFC01E9585E
:1037E000F44FE491F0E0EE0FFF1FE359F44FA59181
:1037F000B491B0932903A0932803FC01E557F44F3B
:10380000E491E0932F038C91E095E823EC9320CE94
:103810008091180390911903892B31F080913B031B
:1038200090913C030E946E0AE0912C03F0912D03CD
:103830009081809131038095892380834ACE8FECDB
:1038400081CE80369105A9F4809103039091040301
:10385000409791F480911F03813031F480E180938F
:103860003A03E2E0E98372CE8FEAF9CFF2E0F9831E
:103870006DCE22E029836ACE32E0398367CEE091B3
:103880002C03F0912D03808190913103892B80834B
:10389000A5CE01E011E01A82198289819A810E94E5
:1038A000D11EF80181938F0129813A812F5F3F4F0B
:1038B0003A8329832E31310581F78DED9AE00E94FC
:1038C0000B1566ED7AE084E592E00E94DF066091D8
:1038D00005017091060180910701909108010E94F5
:1038E000991669EC7AE084E592E00E94DF06809107
:1038F000090190910A010E948D156CEB7AE084E534
:1039000092E00E94DF0680910B0190910C010E94D1
:103910008D1568EB7AE084E592E00E94DF06609105
:103920000F017091100180911101909112010E947C
:10393000991664EB7AE084E592E00E94DF066091DC
:1039400013017091140180911501909116010E944C
:10395000991660EB7AE084E592E00E94DF066091C0
:103960001701709118018091190190911A010E941C
:1039700099166CEA7AE084E592E00E94DF06609195
:103980001B0170911C0180911D0190911E010E94EC
:103990009916609103017091040190E080E00E940B
:1039A0001B209B01AC016DEC7CEC8CE89FE30E943A
:1039B000731F6B017C0180900B0190900C01092C0E
:1039C000000CAA08BB0860E074E080E090E0681991
:1039D00079098A099B090E941D209B01AC01C7013E
:1039E000B6010E94731F609341027093420280935C
:1039F00043029093440230E0232E30E0332E809136
:103A00000301909104019093460280934502C12CDA
:103A1000D12C760180914502909146029C01215063
:103A200031093093460220934502892B39F1809168
:103A3000000130E4839FC001112480937C008091B9
:103A40007A00806480937A0080917A0086FDFCCFB2
:103A50009091780080917900892798278927092EED
:103A6000000CAA0BBB0BC80ED91EEA1EFB1E64E697
:103A700070E080E090E00E94AB06CCCF609109013D
:103A800070910A01072E000C880B990B0E941D20D3
:103A90004B015C01609103017091040190E080E0B2
:103AA0000E941B209B01AC01C501B4010E94822130
:103AB0004B015C01C701B6010E941D209B01AC01B6
:103AC000C501B4010E94021F2091410230914202BF
:103AD00040914302509144020E9482214B015C01BB
:103AE00020E030E040E450E40E94EF2169837A83D3
:103AF0008B839C8320911301309114014091150117
:103B000050911601C501B4010E94822120910F013C
:103B10003091100140911101509112010E94021F39
:103B20002B013C01A5019401C501B4010E94822131
:103B300020911701309118014091190150911A01FB
:103B40000E9482219B01AC01C301B2010E94021FAD
:103B50002B013C0120911B0130911C0140911D0162
:103B600050911E0169817A818B819C810E94822102
:103B70009B01AC01C301B2010E94021F2B013C0159
:103B800062E57BE084E592E00E94DF06F7FEE7C095
:103B9000C701B6010E946A156AE47BE084E592E001
:103BA0000E94DF062AE0B501A40184E592E00E94AC
:103BB000AB1562E47BE084E592E00E94DF06C3017E
:103BC000B2010E94991620910501309106014091A1
:103BD000070150910801C301B2010E946E1F87FDC9
:103BE000C6C02FE632E143E85AE3C301B2010E94A6
:103BF000731F0E942A2120E030E040E251E40E943D
:103C000082216B017C0120E030E040E251E40E941F
:103C1000731F0E9458209B01AC0160E070E080EAB5
:103C200090E40E94011F0E94E51F162F0E94DA14E3
:103C300010920A031092090310920C0310920B03C6
:103C400042E04093110340931203A301920160915B
:103C500005017091060180910701909108010E9471
:103C600025216DE37BE018164CF0212FB301A20152
:103C70008DEF92E00E94AB156BE37BE08DEF92E05D
:103C80000E94DF0610920A031092090385E190E07A
:103C900090930C0380930B0320E030E044EC52EC53
:103CA000C701B6010E94252118160CF04AC021E078
:103CB000B701A6018DEF92E00E94AB1567E37BE0B0
:103CC0008DEF92E00E94DF0620E030E040E250E419
:103CD000C701B6010E94822120E030E040E05FE3AE
:103CE0000E94021F0E94E51F4091070350910803A4
:103CF00046515109EE24E394F12C05E110E09B01BB
:103D000070E060E08DEF92E00E94720E98E1C92EA3
:103D1000D12C40910703509108034B505109F12CCD
:103D2000E12C0AE010E021E030E0B6018DEF92E0F6
:103D30000E94720E99E1C90ED11CE5E9CE16D1049C
:103D400041F70E9450132114310409F458CE0E9407
:103D50006D07882309F453CE0E94000050CE2AE05C
:103D6000B701A60184E592E00E941E1515CFC12C73
:103D7000D12C26ECE22E22ECF22E412C512C3201D9
:103D800013E054CF8DE491E09093FE028093FD0206
:103D900080911C0390911D03009711F00C94B723A0
:103DA0000895F999FECF92BD81BDF89A992780B503
:103DB0000895A1E21A2EAA1BBB1BFD010DC0AA1F6C
:103DC000BB1FEE1FFF1FA217B307E407F50720F084
:103DD000A21BB30BE40BF50B661F771F881F991FFF
:103DE0001A9469F760957095809590959B01AC0148
:103DF000BD01CF010895EE0FFF1F0590F491E02D56
:103E000009945058BB27AA270E94191F0C94D3204D
:103E10000E94C52038F00E94CC2020F039F49F3F4A
:103E200019F426F40C94C2200EF4E095E7FB0C94F0
:103E30009320E92F0E94E42058F3BA176207730712
:103E40008407950720F079F4A6F50C941E210EF452
:103E5000E0950B2EBA2FA02D0B01B90190010C019A
:103E6000CA01A0011124FF27591B99F0593F50F4B2
:103E7000503E68F11A16F040A22F232F342F44270A
:103E8000585FF3CF469537952795A795F040539502
:103E9000C9F77EF41F16BA0B620B730B840BBAF0D2
:103EA0009150A1F0FF0FBB1F661F771F881FC2F73D
:103EB0000EC0BA0F621F731F841F48F48795779551
:103EC0006795B795F7959E3F08F0B0CF9395880F0B
:103ED00008F09927EE0F9795879508950E946F2017
:103EE00008F481E008950E94871F0C94D3200E945B
:103EF000CC2058F00E94C52040F029F45F3F29F003
:103F00000C94932051110C941F210C94C2200E94F8
:103F1000E42068F39923B1F3552391F3951B550BD6
:103F2000BB27AA2762177307840738F09F5F5F4F8C
:103F3000220F331F441FAA1FA9F335D00E2E3AF0CB
:103F4000E0E832D091505040E695001CCAF72BD0E3
:103F5000FE2F29D0660F771F881FBB1F2617370734
:103F60004807AB07B0E809F0BB0B802DBF01FF2766
:103F700093585F4F3AF09E3F510578F00C94932090
:103F80000C941F215F3FE4F3983ED4F38695779518
:103F90006795B795F7959F5FC9F7880F911D96951F
:103FA000879597F90895E1E0660F771F881FBB1F7B
:103FB000621773078407BA0720F0621B730B840B28
:103FC000BA0BEE1F88F7E09508950E94EC1F6894E5
:103FD000B1110C941F2108950E94EC2088F09F5786
:103FE00098F0B92F9927B751B0F0E1F0660F771F1D
:103FF000881F991F1AF0BA95C9F714C0B13091F013
:104000000E941E21B1E008950C941E21672F782F85
:104010008827B85F39F0B93FCCF3869577956795D7
:10402000B395D9F73EF490958095709561957F4F43
:104030008F4F9F4F0895E89409C097FB3EF49095E9
:104040008095709561957F4F8F4F9F4F9923A9F071
:10405000F92F96E9BB279395F69587957795679500
:10406000B795F111F8CFFAF4BB0F11F460FF1BC044
:104070006F5F7F4F8F4F9F4F16C0882311F096E9D7
:1040800011C0772321F09EE8872F762F05C0662385
:1040900071F096E8862F70E060E02AF09A95660F3E
:1040A000771F881FDAF7880F9695879597F90895F7
:1040B0000E94062190F09F3748F4911116F00C945D
:1040C0001F2160E070E080E89FEB089526F41B1646
:1040D000611D711D811D0C9499200C94B420990FC1
:1040E0000008550FAA0BE0E8FEEF16161706E807C2
:1040F000F907C0F012161306E407F50798F0621BE3
:10410000730B840B950B39F40A2661F0232B242BB7
:10411000252B21F408950A2609F4A140A6958FEFD6
:10412000811D811D089597F99F6780E870E060E028
:104130000895882371F4772321F09850872B762FE8
:1041400007C0662311F499270DC09051862B70E0AB
:1041500060E02AF09A95660F771F881FDAF7880FBC
:104160009695879597F908959F3F31F0915020F4E7
:10417000879577956795B795880F911D9695879543
:1041800097F908959FEF80EC089500240A9416167D
:10419000170618060906089500240A941216130635
:1041A000140605060895092E0394000C11F48823C3
:1041B00052F0BB0F40F4BF2B11F460FF04C06F5FDF
:1041C0007F4F8F4F9F4F089557FD9058440F551FB5
:1041D00059F05F3F71F04795880F97FB991F61F089
:1041E0009F3F79F087950895121613061406551F00
:1041F000F2CF4695F1DF08C0161617061806991F6C
:10420000F1CF869571056105089408950E94EC2010
:10421000A0F0BEE7B91788F4BB279F3860F41616E4
:10422000B11D672F782F8827985FF7CF86957795F0
:104230006795B11D93959639C8F30895E894BB2707
:1042400066277727CB0197F908950E946F2008F41D
:104250008FEF08950E943A2129ED3BE54EED5EE394
:104260000C94822116F00C94B4200C94C220689413
:104270000C9493200E94EC20A8F39923C1F3AEF391
:10428000DF93CF931F930F93FF92C92FDD278823CE
:104290002AF02197660F771F881FDAF720E030E0B9
:1042A00040E85FEB9FE3883920F0803E38F02196AC
:1042B0008F770E94021FE8E6F0E004C00E94021F10
:1042C000E5E9F0E00E947E228B01BE01EC01FB2EAD
:1042D0006F5771097595771F880B990B0E941D20E8
:1042E00028E132E741E35FE30E949521AF2D980179
:1042F000AE01FF900F911F91CF91DF910E94191F86
:104300000C94D3200E9495210C94D3200E94C520A8
:1043100038F00E94CC2020F0952311F00C949320CB
:104320000C94C22011240C941F210E94E42070F3ED
:10433000959FC1F3950F50E0551F629FF001729F4A
:10434000BB27F00DB11D639FAA27F00DB11DAA1F59
:10435000649F6627B00DA11D661F829F2227B00DA6
:10436000A11D621F739FB00DA11D621F839FA00D31
:10437000611D221F749F3327A00D611D231F849F81
:10438000600D211D822F762F6A2F11249F575040D8
:104390009AF0F1F088234AF0EE0FFF1FBB1F661F53
:1043A000771F881F91505040A9F79E3F510580F01C
:1043B0000C9493200C941F215F3FE4F3983ED4F3B8
:1043C000869577956795B795F795E7959F5FC1F7C0
:1043D000FE2B880F911D9695879597F90895FA0100
:1043E000EE0FFF1F309621053105A1F16115710512
:1043F00061F48038BFE39B0749F1689490388105E8
:1044000061F08038BFEF9B0741F099234AF5FF3FE9
:10441000E1053105210519F1E8940894E795D901E2
:10442000AA2329F4AB2FBE2FF85FD0F310C0FF5F93
:1044300070F4A695E0F7F73950F019F0FF3A38F428
:104440009F779F930DD00F9007FC9058089546F0EA
:104450000C94C22060E070E080E89FE308954FE78D
:104460009F775F934F933F932F930E943A212F9111
:104470003F914F915F910E9482210C944C220E94A7
:104480006F20880B990B089529F416F00C94932053
:104490000C941E210C94C2200E94EC20A8F39638A4
:1044A000A0F707F80F92E8942BE33AEA48EB5FE7AE
:1044B0000E9498210F920F920F924DB75EB70F9204
:1044C0000E94E722E2ECF0E00E947E224F915F9191
:1044D000EF91FF91E595EE1FFF1F49F0FE57E06851
:1044E0004427EE0F441FFA95E1F74195550B0E94C2
:1044F000B1220F9007FE0C94A5220895DF93CF936D
:104500001F930F93FF92EF92DF927B018C016894CF
:1045100006C0DA2EEF010E949521FE01E894A591D4
:104520002591359145915591A6F3EF010E94191FF0
:10453000FE019701A801DA9469F7DF90EF90FF90F0
:104540000F911F91CF91DF9108959B01AC0160E025
:1045500070E080E89FE30C94731F0C9493200C94FC
:10456000B4200E94EC20D8F39923C9F3940F511D75
:10457000A3F39150504094F059F0882332F0660F25
:10458000771F881F91505040C1F79E3F51052CF76F
:10459000880F911D9695879597F908955F3FACF028
:1045A000983E9CF0BB27869577956795B79508F45C
:1045B000B1609395C1F7BB0F58F711F460FFE8CFD6
:1045C0006F5F7F4F8F4F9F4FE3CF0C941F21FA01F6
:1045D000DC01AA0FBB1F9B01AC01BF5728F42227A7
:1045E00033274427507820C0B75190F4AB2F0024D4
:1045F000469537952795011CA395D2F3002071F0BD
:10460000220F331F441FB395DAF30ED00C94011F11
:1046100061307105A0E88A07B94630F49B01AC010E
:104620006627772788279078309621F0208331837A
:104630004283538308950F931F93CF93DF93823068
:10464000910510F482E090E0E0913F03F091400387
:1046500030E020E0B0E0A0E0309799F4211531057A
:1046600009F44AC0281B390B24303105D8F58A815A
:104670009B816115710589F1FB0193838283FE01A2
:1046800011C0408151810281138148175907E0F020
:104690004817590799F4109761F012960C931297E6
:1046A00013961C933296CF01DF91CF911F910F91FA
:1046B000089500933F0310934003F4CF2115310573
:1046C00051F04217530738F0A901DB019A01BD01EF
:1046D000DF01F801C1CFEF01F9CF90934003809340
:1046E0003F03CDCFFE01E20FF31F81939193225040
:1046F000310939832883D7CF20913D0330913E0380
:10470000232B41F4209121013091220130933E036B
:1047100020933D0320911F01309120012115310587
:1047200041F42DB73EB74091230150912401241B41
:10473000350BE0913D03F0913E03E217F307A0F43F
:104740002E1B3F0B2817390778F0AC014E5F5F4FE7
:104750002417350748F04E0F5F1F50933E034093D8
:104760003D03819391939FCFF0E0E0E09CCFCF9306
:10477000DF930097E9F0FC01329713821282A09137
:104780003F03B0914003ED0130E020E01097A1F429
:1047900020813181820F931F20913D0330913E0390
:1047A0002817390709F061C0F0933E03E0933D03F9
:1047B000DF91CF910895EA01CE17DF07E8F54A812E
:1047C0005B819E0141155105B1F7E901FB83EA8345
:1047D00049915991C40FD51FEC17FD0761F48081F1
:1047E00091810296840F951FE901998388838281C4
:1047F00093819B838A83F0E0E0E012968D919C91F7
:1048000013970097B9F52D913C911197CD01029620
:10481000820F931F20913D0330913E0328173907E3
:1048200039F6309751F51092400310923F03B09340
:104830003E03A0933D03BCCFD383C283408151810B
:10484000840F951FC817D90761F44E5F5F4F8881A9
:104850009981480F591F518340838A819B8193839B
:1048600082832115310509F0B0CFF0934003E09326
:104870003F039ECFFD01DC01C0CF13821282D7CF50
:1048800081E090E0F8940C944C24DC0101C06D931D
:1048900041505040E0F7089515E0CDEDD5E004C05B
:1048A000FE010E94FB1E2196CE3DD107C9F7F89468
:0248B000FFCF38
:1048B20001000004006F12833A000000000000F0C3
:1048C2007C27B8E9D1773EF9990742000000000041
:1048D200004103800000000000A30703073007F037
:1048E2000761073F075307000000002311F610D7A6
:1048F200140806EF10DC10CD1000000000AC0C0311
:1049020007D7146610B7090806510F290F450F394A
:104912000FB90F0806720A811427097009720E5521
:104922000EDD0D7E0D0D0A006E616E00696E660071
:0A4932006F766600302E303800006A
:00000001FF
