:107C000001C0EBC0112484B7882361F0982F9A70CB
:107C1000923041F081FF02C097EF94BF282E80E0A0
:107C2000C7D0EEC182E08093C00088E18093C1009C
:107C300086E08093C20080E18093C4008EE0B8D0DB
:107C400023E0D22ECC24C39435E0B32E41E1A42E00
:107C5000A3D0813471F4A0D0182FB0D081E01238B5
:107C600021F088E0113809F083E08FD080E18DD0D9
:107C7000EFCF823419F484E1A9D0F8CF853411F420
:107C800085E0FACF853541F487D0C82F85D0D82F2D
:107C9000CC0FDD1F93D0EACF863521F484E096D057
:107CA00080E0E3CF843609F045C076D075D0182F38
:107CB00073D0082F812C9924939474018FEFE81AC4
:107CC000F80A6AD0F401808347011E11F6CF76D0FE
:107CD000053491F4E12EF12C10E000E0F801F39569
:107CE0000E151F0509F4C2CF6081C8018C0F9D1FBE
:107CF0008CD00F5F1F4FF2CFFE01D7BEE89507B6BD
:107D000000FCFDCFFE01A0E0B1E0CD0102962D9177
:107D10003C910901C7BEE89511243296DC01181385
:107D2000F4CFFE01B7BEE89507B600FCFDCFA7BEB5
:107D3000E8959CCF8437D1F42FD02ED0182F2CD09B
:107D4000082F3CD07E01053451F4C70156D01DD018
:107D50001150FFEFEF1AFF0A1111F7CF87CFF7018C
:107D600085917F0112D01150D1F780CF853739F43A
:107D700025D08EE10AD085E908D08FE076CF813515
:107D800009F088CF88E014D085CF9091C00095FF8E
:107D9000FCCF8093C60008958091C00087FFFCCF80
:107DA0008091C00084FD01C0A8958091C60008950F
:107DB000E0E6F0E098E1908380830895EDDF803283
:107DC00019F088E0F5DFFFCF84E1DFCFCF93C82F34
:107DD000E3DFC150E9F7CF91F1CFFC010A0167BFA2
:107DE000E895112407B600FCFDCF667029F0452BFD
:107DF00019F481E187BFE8950895F999FECF92BD06
:107E000081BDF89A992780B50895262FF999FECF5C
:107E10001FBA92BD81BD20BD0FB6F894FA9AF99AA7
:107E20000FBE0196089556657273696F6E3D382EC8
:107E300031004F505449424F4F545F435553544FB4
:107E40004D5645523D30004465766963653D617429
:107E50006D6567613332387000465F4350553D3180
:107E6000363030303030304C00424947424F4F546A
:107E70003D31004275696C743A4A756C2031382086
:107E8000323032303A30393A30343A3036005541B7
:107E900052543D3000424155445F524154453D31BA
:107EA000313532303000535550504F52545F4545B4
:0E7EB00050524F4D3D31004C45443D4235008F
:027FFE00010878
:0400000300007C007D
:00000001FF
