:100000000C948A050C94B2050C94B2050C94B205BC
:100010000C94B2050C94B2050C94B2050C94B20584
:100020000C94B2050C94B2050C94B2050C94B20574
:100030000C94B2050C94B2050C94B2050C94B20564
:100040000C949E160C94B2050C946C160C944616E7
:100050000C94B2050C94B2050C94B2050C94B20544
:100060000C94E8160C94B20508000000BE922449D6
:10007000123EABAAAA2ABECDCCCC4C3E00000080DA
:10008000BEABAAAAAA3E00000000BF000000803F4D
:100090000000000000084178D3BB4387D1133D190D
:1000A0000E3CC3BD4282AD2B3E68EC8276BED98F3A
:1000B000E1A93E4C80EFFFBE01C4FF7F3F0000007E
:1000C000000000000000003E5B4F5B3E3E6B4F6B4C
:1000D0003E1C3E7C3E1C183C7E3C181C577D571C29
:1000E0001C5E7F5E1C00183C1800FFE7C3E7FF00A2
:1000F00018241800FFE7DBE7FF30483A060E2629F0
:10010000792926407F050507407F05253F5A3CE7B2
:100110003C5A7F3E1C1C08081C1C3E7F14227F2278
:10012000145F5F005F5F06097F017F006689956A43
:10013000606060606094A2FFA29408047E040810CE
:10014000207E201008082A1C08081C2A08081E10F7
:100150001010100C1E0C1E0C30383E3830060E3EAF
:100160000E06000000000000005F0000000700070E
:1001700000147F147F14242A7F2A12231308646238
:1001800036495620500008070300001C2241000099
:1001900041221C002A1C7F1C2A08083E08080080F7
:1001A000703000080808080800006060002010088F
:1001B00004023E5149453E00427F40007249494990
:1001C000462141494D331814127F102745454539C2
:1001D0003C4A4949314121110907364949493646C6
:1001E0004949291E000014000000403400000008A6
:1001F0001422411414141414004122140802015949
:1002000009063E415D594E7C1211127C7F494949D5
:10021000363E414141227F4141413E7F494949416A
:100220007F090909013E414151737F0808087F0099
:10023000417F41002040413F017F081422417F401F
:100240004040407F021C027F7F0408107F3E4141F6
:10025000413E7F090909063E4151215E7F09192966
:1002600046264949493203017F01033F4040403F50
:100270001F2040201F3F4038403F63140814630391
:10028000047804036159494D43007F414141020410
:10029000081020004141417F040201020440404017
:1002A0004040000307080020545478407F2844440D
:1002B000383844444428384444287F385454541827
:1002C00000087E090218A4A49C787F080404780022
:1002D000447D40002040403D007F10284400004104
:1002E0007F40007C047804787C0804047838444417
:1002F0004438FC1824241818242418FC7C0804040E
:1003000008485454542404043F44243C4040207C76
:100310001C2040201C3C4030403C44281028444CC9
:100320009090907C4464544C440008364100000096
:10033000770000004136080002010204023C262337
:10034000263C1EA1A161123A4040207A38545455EF
:1003500059215555794122545478422155547840B9
:1003600020545579400C1E52721239555555593941
:100370005454545939555454580000457C41000296
:10038000457D420001457C407D1211127DF02825FB
:1003900028F07C545545002054547C547C0A097F35
:1003A0004932494949323A4444443A324A48483049
:1003B0003A4141217A3A42402078009DA0A07D3DFB
:1003C0004242423D3D4040403D3C24FF2424487E83
:1003D0004943662B2FFC2F2BFF0929F620C0887E6E
:1003E000090320545479410000447D413048484A73
:1003F00032384040227A007A0A0A727D0D19317D26
:100400002629292F28262929292630484D402038F9
:100410000808080808080808382F10C8ACBA2F10B8
:100420002834FA00007B000008142A142222142A1F
:1004300014085500550055AA55AA55AAFF55FF5551
:10044000FF000000FF00101010FF00141414FF0044
:100450001010FF00FF1010F010F0141414FC001422
:1004600014F700FF0000FF00FF1414F404FC141440
:1004700017101F10101F101F1414141F001010103D
:10048000F0000000001F101010101F10101010F0CE
:1004900010000000FF101010101010101010FF10AE
:1004A000000000FF140000FF00FF00001F101700F5
:1004B00000FC04F414141710171414F404F40000CE
:1004C000FF00F714141414141414F700F714141480
:1004D000171410101F101F141414F4141010F0101F
:1004E000F000001F101F0000001F14000000FC148B
:1004F0000000F010F01010FF10FF141414FF14107F
:1005000010101F00000000F010FFFFFFFFFFF0F0D1
:10051000F0F0F0FFFFFF0000000000FFFF0F0F0FE3
:100520000F0F3844443844FC4A4A4A347E020206DB
:1005300006027E027E0263554941633844443C040E
:10054000407E201E2006027E020299A5E7A5991C86
:100550002A492A1C4C7201724C304A4D4D303048A9
:10056000784830BC625A463D3E494949007E010107
:10057000017E2A2A2A2A2A44445F444440514A449C
:100580004040444A51400000FF0103E080FF00006A
:1005900008086B6B083612362436060F090F060062
:1005A0000018180000001010003040FF0101001F6B
:1005B00001011E00191D1712003C3C3C3C000000CC
:1005C0000000000103070F1F3F7F0080C0E0F0F82C
:1005D000FCFE000000080002010000030407000008
:1005E000000000000000DB40A4A62EAF2000A1C840
:1005F000D300408DAED580A8000060000000000050
:10060000000000000000000000E00000000000000A
:100610000000000000000001E000000000000000F9
:1006200000000000000001F00000000000000000D9
:10063000000000000003F0000000000000000000C7
:100640000000000007F000000000000000000000B3
:1006500000000007F800000000000000000000009B
:1006600000000FF800000003C0007E000001E00061
:100670007F0FF800000003C000FE000001E000FF53
:10068000EFF800000003C000FE000001E000FFFFE3
:10069000F800000003C000F00000000F007FFE7FA4
:1006A000C0000003C000F00000000F003FFE7FF814
:1006B0003FF1FBCFFCFEF3BC3DEFE01FFE7FFF7F71
:1006C000FBFFDFFEFEFFBC3DEFE01FC6FFFF7FFB31
:1006D000FFDFFEFEFFBC3DEFE00FE3C7FE787BC30C
:1006E000DE1EF0FFBC3DEF0007FF87FC787BC3DE1A
:1006F0001EF0F83C3DEF0001FFFFF0007BC3C01E81
:10070000F0F03C3DEF0001F37FE03FFBC3CFFEF094
:10071000F03C3DEF0003E33F807FFBC3DFFEF0F0E2
:100720003C3DEF0007E73C00787BC3DE1EF0F03C69
:100730003DEF0007FFBE00787BC3DE1EF0F03C3DBE
:10074000EF0007FFFE00787BC3DE1EF0F03C3DEFBC
:10075000000FFFFE007FFBFFDFFEF0F03FFDEFE04C
:100760000FFFFF007FFBFFDFFEF0F03FFDEFE00F2C
:10077000F9FF003E79F9CF9EF0F01F3DE7E01FF151
:10078000FF0000000000000000000000001F80FFCC
:10079000007FFFFFFFFFFFFFFFFFFFE01C007F0068
:1007A0007FFFFFFFFEB46D888D18E000001F007F03
:1007B000FFFFFFFE95AD7DB577E000000F007FFFE6
:1007C000FFFFFEA5AD9D8D19E0000006007FFFFF35
:1007D000FFFEB5ADEDB57EE0000000000001800039
:1007E0000000000000000000038000000000000086
:1007F00000000007C000000000000000000007C06B
:100800000000000000000000000FC0000000000019
:10081000000000001FE00000000000000000001FBA
:10082000E00000000000000000003FE000000000C9
:1008300000000000003FF000000000000000000089
:100840007FF0000000000000001FF87FF0000000B3
:10085000000000003FFE7FF0000000000000003FAD
:10086000FF7FF0000000000000001FFFFBE0000021
:1008700000000000000FFFF9FFC0000000000000B2
:100880000FFFF9FFF800000000000007FFF1FFFF75
:1008900000000000000003FC73FFFF800000000068
:1008A0000001FE3FFFFF80000000000000FF1E0F60
:1008B000FF000000000000007FFE1FFC00000000A1
:1008C0000000003FFFFFF8000000000000000FDF05
:1008D000FFE0000000000000001F19FFC000000042
:1008E000000000003F3CFF00000000000000007E10
:1008F0007CF800000000000000007FFE7C0000008B
:100900000000000000FFFFFC0000000000000000ED
:10091000FFFFFE0000000000000000FFFFFE0000DF
:10092000000000000001FFEFFE00000000000000DA
:1009300001FFCFFE0000000000000003FF07FE00E3
:1009400000000000000003FC07FE000000000000A3
:100950000003F003FE00000000000000018000FE24
:10096000000000000000000000007E000000000009
:1009700000000000003E0000000000000000000039
:100980000C000000000000078000FC000003C00015
:100990000000078001FC000003C000000007800188
:1009A000FC000003C0000000078001E00000001E02
:1009B000000000078001E00000001E007FE3F79FB9
:1009C000F9FDE7787BDFC0FFF7FFBFFDFDFF787B18
:1009D000DFC0FFF7FFBFFDFDFF787BDFC0F0F787CB
:1009E000BC3DE1FF787BDE00F0F787BC3DE1F078AD
:1009F0007BDE0000F787803DE1E0787BDE007FF75B
:100A0000879FFDE1E0787BDE00FFF787BFFDE1E037
:100A1000787BDE00F0F787BC3DE1E0787BDE00F01C
:100A2000F787BC3DE1E0787BDE00F0F787BC3DE175
:100A3000E0787BDE00FFF7FFBFFDE1E07FFBDFC07A
:100A4000FFF7FFBFFDE1E07FFBDFC07CF3F39F3DDD
:100A5000E1E03E7BCFC0000000000000000000008D
:100A600000FFFFFFFFFFFFFFFFFFFFC0FFFFFFFFD4
:100A7000FD68DB111A31C0FFFFFFFFFD2B5AFB6A37
:100A8000EFC0FFFFFFFFFD4B5B3B1A33C0FFFFFFD3
:100A9000FFFD6B5BDB6AFDC0556E737570706F7226
:100AA00074656420454550524F4D207665727369D8
:100AB0006F6E3A20005353443133303620616C6CF2
:100AC0006F636174696F6E206661696C65640000B4
:100AD000000000250028002B000000000024002753
:100AE000002A0004040404040404040202020202B2
:100AF00002030303030303010204081020408001E2
:100B000002040810200102040810202200FF210026
:100B10001C18BE1D11241FBECFEFD8E0DEBFCDBF15
:100B200011E0A0E0B1E0EAEAF4E402C005900D9221
:100B3000AA3AB107D9F723E0AAEAB1E001C01D92B1
:100B4000AB37B207E1F715E0C9E8D5E004C021975B
:100B5000FE010E941121C838D107C9F70E94A018D0
:100B60000C9448220C94000090E0FC01E950F54FF1
:100B700024918D51954FFC018491882399F090E048
:100B8000880F991FFC01E752F54FA591B491FC0124
:100B9000E153F54F859194918FB7F894EC91E22B46
:100BA000EC938FBF0895089508950895AF92BF9272
:100BB000CF92DF92EF92FF920F931F93CF93DF9329
:100BC0006C017B018B01040F151FEB015E01AE1858
:100BD000BF08C017D10759F06991D601ED91FC917A
:100BE0000190F081E02DC6010995892B79F7C501A7
:100BF000DF91CF911F910F91FF90EF90DF90CF90F9
:100C0000BF90AF900895FC01538D448D252F30E0A7
:100C1000842F90E0821B930B541710F0CF96089509
:100C200001970895FC01918D828D981761F0A28D36
:100C3000AE0FBF2FB11D5D968C91928D9F5F9F73FC
:100C4000928F90E008958FEF9FEF0895FC01918DB2
:100C5000828D981731F0828DE80FF11D858D90E01F
:100C600008958FEF9FEF0895FC01918D228D892FBC
:100C700090E0805C9F4F821B91098F7399270895A4
:100C80008EE892E00E94340621E0892B09F420E0EE
:100C9000822F089580E090E0892B29F00E94400681
:100CA00081110C9400000895FC01A48DA80FB92FA8
:100CB000B11DA35ABF4F2C91848D90E001968F7384
:100CC0009927848FA689B7892C93A089B1898C91A3
:100CD000837080648C93938D848D981306C00288F2
:100CE000F389E02D80818F7D80830895EF92FF92BC
:100CF0000F931F93CF93DF93EC0181E0888F9B8D3F
:100D00008C8D98131AC0E889F989808185FF15C0F8
:100D10009FB7F894EE89FF896083E889F98980811B
:100D20008370806480839FBF81E090E0DF91CF91EA
:100D30001F910F91FF90EF900895F62E0B8D10E00C
:100D40000F5F1F4F0F731127E02E8C8D8E110CC07B
:100D50000FB607FCFACFE889F989808185FFF5CFC6
:100D6000CE010E945406F1CFEB8DEC0FFD2FF11D4B
:100D7000E35AFF4FF0829FB7F8940B8FEA89FB8903
:100D800080818062CFCF0F931F93CF93DF938C012D
:100D9000D0E0C0E0F801EC0FFD1F6491662341F044
:100DA0008EE892E00E947606892B11F02196F2CF10
:100DB000CE01DF91CF911F910F910895CF93DF93D3
:100DC000EC01888D8823B9F0AA89BB89E889F98963
:100DD0008C9185FD03C0808186FD0DC00FB607FC98
:100DE000F7CF8C9185FFF2CF808185FFEDCFCE01CB
:100DF0000E945406E9CFDF91CF91089590E0FC0165
:100E0000EE52FA4F2491FC01E950F54F3491FC0168
:100E1000ED51F54FE491EE23C9F0222339F0233050
:100E200001F1A8F4213019F1223029F1F0E0EE0FA0
:100E3000FF1FE153F54FA591B4918FB7F894EC9152
:100E4000611126C030953E233C938FBF0895273013
:100E5000A9F02830C9F0243049F7809180008F7DB7
:100E600003C0809180008F7780938000DFCF84B5AE
:100E70008F7784BDDBCF84B58F7DFBCF8091B000B1
:100E80008F778093B000D2CF8091B0008F7DF9CF63
:100E90003E2BDACF3FB7F89480915F0290916002C9
:100EA000A0916102B091620226B5A89B05C02F3FB8
:100EB00019F00196A11DB11D3FBFBA2FA92F982F80
:100EC0008827BC01CD01620F711D811D911D42E07B
:100ED000660F771F881F991F4A95D1F708958F9243
:100EE0009F92AF92BF92CF92DF92EF92FF924B010F
:100EF0005C010E944A076B017C010E944A076C1941
:100F00007D098E099F09683E734081059105A8F30C
:100F100021E0821A9108A108B10888EEC80E83E08A
:100F2000D81EE11CF11C81149104A104B10429F71D
:100F3000FF90EF90DF90CF90BF90AF909F908F90F9
:100F40000895EF92FF920F931F93CF93DF93EC01DD
:100F5000EC80FD806E157F050CF070C057FF04C05B
:100F6000240F351F50E040E08E819F81FA01E20F8F
:100F7000F31F8E179F071CF49C01241B350B1216C0
:100F800013060CF05BC0922F842F8695869586956C
:100F90008E9DD0018F9DB00D11246A0F7B1FAF8DE8
:100FA000B8A1A60FB71F477049F188E0841B482FEE
:100FB000682F70E0FB01E653FA4FE491281708F020
:100FC00063C0621B71092FEF30E002C03595279591
:100FD0006A95E2F7E2230130110539F0B0F10230F1
:100FE000110561F58C91E82702C08C91E82BEC93F8
:100FF000941720F12C813D81A20FB31FE92FE41B30
:10100000E83078F00230110521F58E2F9C919095F3
:101010009C932C813D81A20FB31F88508830B0F77C
:10102000E770EE2359F0F0E0EE53FA4FE49101300F
:101030001105F9F010F10230110519F1DF91CF918E
:101040001F910F91FF90EF900895E0958C91E82308
:10105000CECF81E00115110509F480E081959E2F26
:101060008C932C813D81A20FB31F98509830C0F70C
:10107000D7CF8C91E82BEC93E1CFE0958C91E823CE
:10108000FACF8C91E827F7CF0130110509F4ADCFE5
:10109000E0F20230110509F4A5CFAE0DBF1DAECFB1
:1010A0000F931F93CF93DF9377FF04C0260F371F53
:1010B00070E060E0DC011496CD91DC91FB01E20F61
:1010C000F31FCE17DF071CF49E01261B370B1216E9
:1010D00013064CF5FA0157FD3796A3E0F595E79511
:1010E000AA95E1F7EC9FD001ED9FB00DFC9FB00DEC
:1010F00011246A0F7B1FDC015F96ED91FC91E60FD6
:10110000F71F4770552781E090E001C0880F4A958E
:10111000EAF7482F0130110559F0A8F02E0F3F1FB4
:1011200002301105E1F0DF91CF911F910F910895E9
:101130002E0F3F1FE217F307B1F38191DF011197E3
:10114000842B8C93F7CF80952E0F3F1FE217F30768
:1011500051F39191DF01119798239C93F7CFE217F8
:10116000F30709F38191DF01119784278C93F7CF5F
:101170000F931F93FA01DC0156964C91569742301B
:10118000E9F04330A1F1413061F514964D915C9145
:10119000DA01AE1BBF0BFD01E21BF30B77FD0BC0A9
:1011A000DC0116964D915C916417750724F4AB0130
:1011B000BF010E9450081F910F91089514964D9100
:1011C0005C91DA01A61BB70BBD0161507109DC010E
:1011D00016964D915C91DA01AE1BBF0BFD01E21B2F
:1011E000F30B77FDE8CFAF010E94A107E4CF16967D
:1011F0004D915C91DA01A61BB70BBD0161507109DD
:10120000CDCF0F931F93FA01DC0156964C91569760
:101210004230A9F0433091F1413019F514964D91C7
:101220005C91DA01AE1BBF0BFD013197F7FD04C0E5
:10123000AB01BF010E94A1071F910F910895149661
:101240004D915C91DA01A61BB70BBD01DC0116962E
:101250004D915C91DA01AE1BBF0BFD013197621B12
:10126000730BF7FDE9CFDC0116964D915C91E41705
:10127000F50714F7AF010E945008DECF16964D9186
:101280005C91DA01A61BB70BBD01621B730BCECFBD
:10129000FC0177FD64C080859185681779070CF0A3
:1012A0005EC057FD5CC082859385481759070CF0D6
:1012B00056C086898230B1F0833029F1813041F403
:1012C00084819581841B950BAB01BC016150710930
:1012D0002130310509F108F443C02230310509F409
:1012E00063C0089584819581DC01A61BB70BBD0105
:1012F0006150710986819781DC01A41BB50BAD019A
:1013000041505109E5CF86819781861B970BBA0121
:10131000AC0141505109DCCFCA0157FD0796A3E04B
:1013200095958795AA95E1F7A481B5818A9F90014B
:101330008B9F300D9A9F300D1124620F731F078C05
:10134000F0A1E02DE60FF71F4770552721E030E0B0
:1013500001C0220F4A95EAF78081822B808308958D
:10136000CA0157FD079633E0959587953A95E1F7C1
:10137000A481B5818A9F90018B9F300D9A9F300D7B
:101380001124620F731F078CF0A1E02DE60FF71FE9
:101390004770552781E090E001C0880F4A95EAF731
:1013A000809590818923DACFCA0157FD079623E003
:1013B000959587952A95E1F7A481B5818A9F90013B
:1013C0008B9F300D9A9F300D1124620F731F078C75
:1013D000F0A1E02DE60FF71F4770552721E030E020
:1013E00001C0220F4A95EAF780818227B7CF08957E
:1013F0008EBD00000DB407FEFDCF8EB508958CBDE7
:101400009DBD08950895FC016370668B848195816C
:1014100026813781613039F0633029F091878087E8
:10142000338722870895318720879387828708959D
:101430002F923F924F925F926F927F928F929F92E4
:10144000AF92BF92CF92DF92EF92FF920F931F93D2
:10145000CF93DF93CDB7DEB76A970FB6F894DEBFB0
:101460000FBECDBF9A8F898F7A8369834A01D22EAE
:1014700018870F833701BC2CDC0159962D913C91C4
:101480005A972115310509F015C118968D919C9137
:101490001997681779070CF0D7C11A968D919C910E
:1014A000481759070CF0D0C14C2C512CB6E0CB9EFC
:1014B000600D711D11247C876B87161617060CF0C2
:1014C000C3C1EA2DF0E0FA87E98793E0EE0FFF1F32
:1014D0009A95E1F7F88BEF87CF01840F951F1816C7
:1014E00019060CF0B1C1A98DBA8D58968C91811155
:1014F00004C0BFEABD1508F4D394A98DBA8DED914F
:10150000FC9111970284F385E02DCD010995B5E09A
:10151000DB9EC0011124E981FA81FC83EB83312C2D
:10152000212C9C012E533F4F388F2F8B4A2D50E09A
:101530005E8B4D8BEF89F88DE20DF31D44919E82F9
:101540008D82D12CC12C69817A81620D731D7A8BB9
:10155000698B842F90E09C8B8B8BE98DFA8DA08119
:10156000B18140FF82C0F1E0BF126FC0AF126DC009
:101570001C96ED91FC912F813885A4014C0D5D1DC9
:1015800069897A89898D9A8D0995EB89FC89F59508
:10159000E7954E2F5FEFC51AD50A6D817E818D8943
:1015A0009E89680F791F7E836D8398E0C916D104E8
:1015B00081F6AFEF2A1A3A0AEB81FC81E40DF51DA2
:1015C000FC83EB83F5E02F16310409F0B3CF2F81B4
:1015D000388526153705B9F0A98DBA8DED91FC91A6
:1015E000B1E0BB1257C0AB1255C069817A816B5F05
:1015F0007F4F0088F189E02D830128E030E0A401CD
:10160000898D9A8D0995A98DBA8DED91FC911197CF
:101610000688F789E02DCD016A960FB6F894DEBFF3
:101620000FBECDBFDF91CF911F910F91FF90EF9033
:10163000DF90CF90BF90AF909F908F907F906F90F2
:101640005F904F903F902F9009941E96ED91FC91E2
:10165000EF80F88409851A8592014D815E816B8146
:101660007C81898D9A8D099590CF2F81388526159B
:10167000370509F48ACF31E0B31207C0A31205C0C1
:101680001C96ED91FC91930178CF1E96ED91FC9103
:101690007301E0CF6B857C85641975090684F78535
:1016A000E02D73010F8518899201A401898D9A8D0F
:1016B0000995A9CFF90134969491329745915491A7
:1016C000D91AB7E0DB9E400D511D1124F901259177
:1016D00034913C8B2B8BFA0125903490FA01329691
:1016E000749031963491398B32966490319644904F
:1016F00041E04C1518F04A1508F07FC0662D062C05
:10170000000C770B7C836B83842D042C000C990BCD
:101710009E838D83A98DBA8DED91FC9111970284E2
:10172000F385E02DCD010995512CD12CC12CEA2D4A
:10173000F0E0FA87E9872B2D30E03C872B87A40166
:10174000440D511D47FC5A95588F4F8B69817A8102
:10175000660D711D67FC7A957E876D877989C7163E
:1017600008F051CF2C2D30E04D815E81420F531F88
:10177000A985BA854A9FC0014B9F900D5A9F900D35
:101780001124FC01E80DF91DF88BEF87852D612CE4
:101790004F89588D420F531F5E8B4D8B671408F095
:1017A00050C044244394480E877041F4C10101960F
:1017B000EB89FC89E20DF31DD4901C01D7FE19C002
:1017C000A98DBA8DED91FC91662D70E0B1E0BB1250
:1017D00019C0AB1217C02D853E85620F731F04849C
:1017E000F585E02D2F8138854D895E89898D9A8D0B
:1017F0000995DD0C6394842DD1CF1E821D821C823D
:101800001B8288CF4B815C81640F751FAB85BC85C3
:101810006A9FC0016B9F900D7A9F900D1124698182
:101820007A81680F791F0684F785E02DEF80F884B0
:1018300009851A859D014F855889898D9A8D09954D
:10184000D8CF570CC3948ACF6A960FB6F894DEBFF0
:101850000FBECDBFDF91CF911F910F91FF90EF9001
:10186000DF90CF90BF90AF909F908F907F906F90C0
:101870005F904F903F902F9008958F929F92AF92DC
:10188000CF92EF92FF920F931F93CF93DF93EC01D0
:10189000262F898D9A8D009709F051C06A30D1F4B6
:1018A0001D861C868D8948E0849F900111248E85B9
:1018B0009F85820F931F9F878E8781E090E0DF9145
:1018C000CF911F910F91FF90EF90CF90AF909F908D
:1018D0008F9008956D3089F3CC88AD888F898823E7
:1018E000C1F08C859D8536E0C39E800D911D11242D
:1018F000488559854817590764F44E855F851D86CC
:101900001C8638E0A39EC0011124840F951F9F8779
:101910008E87EA88FB88088919894E855F856C85E2
:101920007D85CE010E94180A2C898C859D8546E014
:10193000249F800D911D11249D878C87BECF6A3016
:1019400069F41D861C86FC013896E4912D898E85EC
:101950009F85E29F800D911D1124ADCF6D3009F45C
:10196000ACCFFC0134963491631708F4A6CF3296BD
:10197000E491E61708F4A1CFFC013296859094908B
:10198000462F431B342F47E0349F800C911C1124B9
:10199000F401329634913196E4913323A9F1EE2388
:1019A00099F1CC88F4013596E491AD884F894423B0
:1019B00001F10E2E000CFF0BE30FF11DCE9EA001D6
:1019C000CF9E500D11246C857D85460F571F68856D
:1019D0007985641775076CF44E855F851D861C86B6
:1019E000FC013896E491AE9E400D511D11245F8795
:1019F0004E87EA88FB88088919894E855F856C8542
:101A00007D85CE010E94180AF4013496E4912C8958
:101A10008C859D85E29F800D911D11248DCF6F9245
:101A20007F928F929F92AF92BF92CF92DF92EF926E
:101A3000FF920F931F93CF93DF93EC016B015A0139
:101A400039014801E881F9810284F385E02D099587
:101A5000E881F9810288F389E02D87019301A501CE
:101A6000B601CE010995A501480D591D41505109F6
:101A7000E881F9810288F389E02D9301B601CE0156
:101A80000995E881F9810088F189E02D9401A5018B
:101A9000B601CE010995C60CD71CB601615071097B
:101AA000E881F9810088F189E02D9401A501CE013A
:101AB0000995E881F9810688F789E02DCE01DF914B
:101AC000CF911F910F91FF90EF90DF90CF90BF903B
:101AD000AF909F908F907F906F9009946F927F92BC
:101AE0008F929F92AF92BF92CF92DF92EF92FF922E
:101AF0000F931F93CF93DF935C01EB016A014901C0
:101B000038018701DC01ED91FC916217730719F52B
:101B1000641675062CF0962D872D3A01C92ED82E05
:101B20009601261937092F5F3F4F048CF58DE02D64
:101B3000A301BE01C5010995DF91CF911F910F91BE
:101B4000FF90EF90DF90CF90BF90AF909F908F90DD
:101B50007F906F9008954615570591F42617370723
:101B600024F0892D4B01C22FD82F9E012819390945
:101B70002F5F3F4F068CF78DE02DA601B401DACF21
:101B80000284F385E02D0995D501ED91FC9104883F
:101B9000F589E02D83019401A601BE01C5010995D7
:101BA000D501ED91FC910688F789E02DC501DF9103
:101BB000CF911F910F91FF90EF90DF90CF90BF904A
:101BC000AF909F908F907F906F900994EF92FF92CB
:101BD0000F931F93DC011A960D911C911B97189679
:101BE0002D913C911997ED91FC9100A0F1A1E02D70
:101BF0007B0150E040E070E060E009951F910F919B
:101C0000FF90EF9008954F925F926F927F928F9224
:101C10009F92AF92BF92CF92DF92EF92FF920F937B
:101C20001F93CF93DF936C012B015A0139014801B7
:101C3000DC01ED91FC910284F385E02D0995E20130
:101C4000640C751CD601ED91FC91C615D7055CF4AA
:101C50000088F189E02D87019401A501BE01C6012C
:101C600009952196EFCF0688F789E02DC601DF910F
:101C7000CF911F910F91FF90EF90DF90CF90BF9089
:101C8000AF909F908F907F906F905F904F9009944E
:101C90008F929F92AF92BF92CF92DF92EF92FF927C
:101CA0000F931F93CF93DF93EC015B014A0169010E
:101CB000E881F9810284F385E02D099595012C0DC9
:101CC0003D1D21503109E881F9810488F589E02D15
:101CD00078018401A401B501CE010995E881F9815B
:101CE0000688F789E02DCE01DF91CF911F910F91EA
:101CF000FF90EF90DF90CF90BF90AF909F908F902C
:101D000009948F929F92AF92BF92CF92DF92EF92FF
:101D1000FF920F931F93CF93DF93EC015B014A0176
:101D200069017801E881F9810284F385E02D099544
:101D3000C80CD91C860101501109E881F981048879
:101D4000F589E02D9501A401B501CE010995E88141
:101D5000F9810688F789E02DCE01DF91CF911F919F
:101D60000F91FF90EF90DF90CF90BF90AF909F903A
:101D70008F900994EF92FF920F931F93DC01ED91E6
:101D8000FC9100A0F1A1E02D09951F910F91FF900A
:101D9000EF9008950F931F93DC01ED91FC91068C59
:101DA000F78DE02D09951F910F9108950F931F93C3
:101DB000DC01ED91FC91048CF58DE02D09951F91CE
:101DC0000F910895DC01ED91FC910084F185E02DE7
:101DD00009943F924F925F926F927F928F929F925F
:101DE000AF92BF92CF92DF92EF92FF920F931F9329
:101DF000CF93DF935C017B014A016901390187E0E0
:101E0000680E711C93E0759467949A95E1F72B0125
:101E1000400E511E10E000E0312CD0E0C0E0CE01B9
:101E200087709927330C892B59F4FE0183E0F595CF
:101E3000E7958A95E1F7E00FF11FE80DF91D349061
:101E400037FE0AC021E030E0A701B5016C0F7D1F0D
:101E500087E393E00E94E20E2196CC16DD06F9F6A8
:101E60008FEFE81AF80A060D171DE414F504A9F619
:101E7000DF91CF911F910F91FF90EF90DF90CF9066
:101E8000BF90AF909F908F907F906F905F904F909A
:101E90003F9008952F923F924F925F926F927F9260
:101EA0008F929F92AF92BF92CF92DF92EF92FF926A
:101EB0000F931F93CF93DF9300D000D000D0CDB706
:101EC000DEB73C016A013E832D83FC82EB82580120
:101ED000A41AB50AB7FE03C0B194A194B1088D80CD
:101EE0009E80861A970A97FE03C091948194910868
:101EF0008A149B045CF0902F812F0D811E819D839D
:101F00008E839C2D8D2D6B01692F782F0C151D054F
:101F10005CF09D818E817E836D83692F782F902F59
:101F2000812F8601C92ED82E1601201A310A2B01C5
:101F30002D813E81421A530A57FE03C051944194A9
:101F40005108710137FE03C03FEFE31AF30AF5941D
:101F5000E7948D819E81861797075CF5A1E0B0E03C
:101F6000BA83A983C016D1064CF1D301ED91FC913F
:101F70000484F585E02D2B813C81A8016D817E8153
:101F80008A149B041CF04D815E81B801C301099540
:101F9000E418F508F7FE0AC02D813E8189819A81F7
:101FA000280F391F3E832D83E20CF31C0F5F1F4F58
:101FB000D9CF2FEF3FEF3A832983D4CF26960FB6A0
:101FC000F894DEBF0FBECDBFDF91CF911F910F916F
:101FD000FF90EF90DF90CF90BF90AF909F908F9049
:101FE0007F906F905F904F903F902F90089508954D
:101FF00020911002260F3327331F21323105ECF4D4
:1020000020913402FC0190E080E0243069F082E00D
:102010000895A09110022191AC0140515E4FA40F90
:10202000B52FB11D2C930196861798F3809110025D
:10203000680F6093100280E0089581E00895109287
:10204000340281E0809336021092350261E082E131
:102050000E94FE0661E083E10E94FE06E9EBF0E0EB
:1020600080818E7F808380818D7F808388E48093D0
:10207000B80085E48093BC000895CF93DF9391E08E
:102080009093EF018823B9F0C091B800D091BA00C5
:102090008091BC008A7B8093BC0060E082E10E945A
:1020A000FE0660E083E10E94FE060E941F10D093AE
:1020B000BA00C093B800DF91CF910895E091690212
:1020C00080916802E81730F4F0E0E653FE4F80811B
:1020D00090E008958FEF9FEF0895909169028091AD
:1020E00068022FEF3FEF981748F4E92FF0E0E6532E
:1020F000FE4F208130E09F5F90936902C9010895EF
:102100008091680290916902891B990B0895CF9282
:10211000DF92EF92FF920F931F93CF93DF937C0197
:10212000CB018A0120918D02222389F0EB016B0102
:10213000C40ED51ECC15DD0569F06991D701ED916E
:10214000FC910190F081E02DC7010995F3CF642F38
:102150000E94F80FC801DF91CF911F910F91FF905E
:10216000EF90DF90CF900895CF93DF931F92CDB77C
:10217000DEB7698320918D022223F9F020918A0233
:10218000203258F021E030E0FC013383228390E0DC
:1021900080E00F90DF91CF91089580918B02E82F1E
:1021A000F0E0E655FE4F998190838F5F80938B021C
:1021B00080938A0281E090E0ECCF61E0CE0101964D
:1021C0000E94F80FF7CFCF92DF92EF92FF920F931A
:1021D0001F93CF93DF93D0918A0281E0D13208F030
:1021E0009CC0C0918C020E944A076B017C018091C7
:1021F000340281116CC082E08093340281E08093CC
:1022000036028FEF8093330210925802D093570218
:10221000AAEAB1E0E7E3F2E080E0D8138DC01092C3
:10222000590280915902CC0FC82BC093590280915A
:102230003502813009F084C0109235020E944A07AD
:102240006B017C01809159028093BB008091EB016E
:102250009091EC01A091ED01B091EE01892B8A2BB8
:102260008B2BA1F00E944A070091EB011091EC0129
:102270002091ED013091EE016C197D098E099F09C5
:10228000061717072807390708F442C08091BC00D9
:1022900083FDD8CF85EC8093BC000E944A076B0178
:1022A0007C0180913402823009F44CC08091330269
:1022B0008F3F09F469C080913302803209F466C00F
:1022C00080913302803309F463C084E026C080919A
:1022D000EB019091EC01A091ED01B091EE01892B01
:1022E0008A2B8B2B09F483CF0E944A070091EB01C4
:1022F0001091EC012091ED013091EE016C197D09F6
:102300008E099F09061717072807390708F06FCFAE
:102310008091EA010E943D1085E010928B0210929C
:102320008A0210928D02DF91CF911F910F91FF9041
:10233000EF90DF90CF9008959D9191938F5F6DCF37
:1023400085EEA9CF8091EB019091EC01A091ED0178
:10235000B091EE01892B8A2B8B2B09F4A2CF0E941E
:102360004A070091EB011091EC012091ED013091B1
:10237000EE016C197D098E099F09061717072807BA
:10238000390708F08ECFC4CF80E0C7CF82E0C5CF39
:1023900083E0C3CFEF92FF920F931F93CF93DF930E
:1023A0007C01C62F8091540390915503009709F446
:1023B00059C02091580331E030938D0220938C0254
:1023C00010928B0210928A02DC01ED91FC91019037
:1023D000F081E02D60E009958701EE24E394F12C73
:1023E000D1E0C1508091540390915503CF3F91F1BA
:1023F000B0E2EB16F104D8F00E94E3108091540390
:102400009091550320915803D0938D0220938C0214
:1024100010928B0210928A02DC01ED91FC910190E6
:10242000F081E02D60E00995EE24E394F12C809199
:10243000540390915503F8016491DC01ED91FC91F6
:102440000190F081E02D0995BFEFEB1AFB0A0F5FB9
:102450001F4FC7CFDF91CF911F910F91FF90EF904A
:102460000C94E310E0916403F091650390818091F6
:102470006A038095892380838701C15008F438C09E
:10248000F80184912091520330915303232B29F0BA
:102490000E94F8090F5F1F4FF0CF28E030E040E8BE
:1024A000E0916003F091610390916803582F5423E9
:1024B000D9F05081952B9083E0916203F0916303F2
:1024C000908150916903952B9083E0916203F09184
:1024D000630350819091690390959523908346956D
:1024E00021503109E9F6D6CF508190959523E3CF5D
:1024F000DF91CF911F910F91FF90EF9008951F935F
:10250000CF93DF93EC018D8D9E8D009721F1162FD7
:1025100029A131E030938D0220938C0210928B021E
:1025200010928A02DC01ED91FC910190F081E02D86
:1025300060E009958D8D9E8DDC01ED91FC910190FF
:10254000F081E02D612F09958D8D9E8DDF91CF91CA
:102550001F910C94E310ADA5BEA59C918BA980950D
:1025600089238C938B8D9C8D892B31F0862FDF9165
:10257000CF911F910C94F80928E030E080E8A9A5DC
:10258000BAA599A9462F4823C1F04C91942B9C934E
:10259000ABA5BCA59C914AA9942B9C93ABA5BCA5CB
:1025A0004C919AA9909594239C938695215031093A
:1025B00031F7DF91CF911F9108954C91909594231D
:1025C000E6CFDF92EF92FF920F931F93CF93DF93AB
:1025D0008091540390915503892B09F498C0209160
:1025E0006C0330916D0340916E0350916F0360E076
:1025F00074E284EF90E00E94EF20205131094109FC
:10260000510956954795379527952093B80065E071
:102610008BE09BE00E94CA1160913B03615087E30D
:1026200093E00E947F1220913D0330913E03C90147
:10263000079697FD079633E0959587953A95E1F7CC
:1026400020913B0330913C03829F8001839F100DBA
:10265000929F100D1124C0915603D0915703809181
:102660005403909155030C0F1D1F009709F48FC060
:102670002091580331E030938D0220938C02109208
:102680008B0210928A02DC01ED91FC910190F081A5
:10269000E02D60E40995EE24E394F12CDD24D3943D
:1026A00080915403909155030C171D0709F446C0FF
:1026B000B0E2EB16F104D8F00E94E31080915403CD
:1026C0009091550320915803D0928D0220938C0253
:1026D00010928B0210928A02DC01ED91FC91019024
:1026E000F081E02D60E40995EE24E394F12C8091D3
:1026F0005403909155036991DC01ED91FC91019097
:10270000F081E02D0995BFEFEB1AFB0AC9CF80914C
:10271000520390915303892B31F08091750390916E
:1027200076030E94FF09E0916603F09167039081B0
:1027300080916B0380958923808369CF0E94E31089
:102740008091540390915503892B09F461C0209125
:10275000700330917103409172035091730360E0F4
:1027600074E284EF90E00E94EF202051310941098A
:10277000510956954795379527952093B800DF91D5
:10278000CF911F910F91FF90EF90DF900895E0910E
:102790006403F0916503808190916A03892B8083A3
:1027A0000C171D0769F28991209152033091530350
:1027B000232B19F00E94F809F3CF28E030E040E81D
:1027C000E0916003F091610390916803582F5423C6
:1027D000D9F05081952B9083E0916203F0916303CF
:1027E000908150916903952B9083E0916203F09161
:1027F000630350819091690390959523908346954A
:1028000021503109E9F6CCCF508190959523E3CF43
:10281000E0916603F0916703808190916B03892BAF
:102820008083ADCF1F93CF93DF93EC01162F8D8D57
:102830009E8D892BB1F12DA93EA94FA958AD60E01D
:1028400074E284EF90E00E94EF20205131094109A9
:10285000510956954795379527952093B80066EA14
:10286000111167EACE010E947F128D8D9E8D892BFA
:1028700041F129AD3AAD4BAD5CAD60E074E284EF5F
:1028800090E00E94EF2020513109410951095695ED
:102890004795379527952093B800DF91CF911F91E9
:1028A00008958B8D9C8D892B21F08EAD9FAD0E945C
:1028B000FF09EFA5F8A990818CA9809589238083D1
:1028C000CECFEFA5F8A980819CA9892B8083E5CF85
:1028D00090E080E0089520913D0330913E03C901CE
:1028E000079697FD079623E0959587952A95E1F73A
:1028F00020913B0330913C03829FA001839F500DA8
:10290000929F500D112470E060E0809156039091E9
:1029100057030C9441220E943C22FB0101900020AD
:10292000E9F73197AF01461B570BDC01ED91FC91A4
:102930000280F381E02D09948F929F92AF92BF9213
:10294000EF92FF920F931F93CF93DF93CDB7DEB734
:10295000A1970FB6F894DEBF0FBECDBF7C01FA0180
:10296000CB0119A2223008F42AE08E010F5D1F4F1F
:10297000822E912CB12CA12CBF01A50194010E94A3
:10298000EF20F901CA016A300CF5605DD8016E9341
:102990008D01232B242B252B79F790E080E01097D5
:1029A00021F0BD01C7010E948D14A1960FB6F894C5
:1029B000DEBF0FBECDBFDF91CF911F910F91FF9072
:1029C000EF90BF90AF909F908F900895695CDECF9D
:1029D000CF92DF92EF92FF92CF93DF936C01990F2A
:1029E000EE08FF08F7FE23C06DE28EE892E00E9439
:1029F0007606EC0144275527BA014C195D096E098A
:102A00007F092AE08EE892E00E949C14C80FD91F2B
:102A100067E571E08EE892E00E948D148C0F9D1F97
:102A2000DF91CF91FF90EF90DF90CF9008952AE053
:102A3000B701A6018EE892E00E949C14EC01E8CF59
:102A40002F923F924F925F926F927F928F929F92BE
:102A5000AF92BF92CF92DF92EF92FF921F93CF93EC
:102A6000DF93EC016A017B01722EAB019601CB0171
:102A7000B6010E94C3206AE571E0811126C04601BB
:102A80005701E894B7F82FEF3FEF4FE75FE7C50135
:102A9000B4010E94C32081110CC02FEF3FEF4FE71C
:102AA0005FE7C501B4010E94421E6EE571E0181691
:102AB00064F02FEF3FEF4FE75FE4C701B6010E94DC
:102AC000F91F1816B4F462E671E0CE01DF91CF91E0
:102AD0001F91FF90EF90DF90CF90BF90AF909F90AD
:102AE0008F907F906F905F904F903F902F900C94BD
:102AF0008D142FEF3FEF4FE75FECC701B6010E9447
:102B0000421E87FDE0CF20E030E0A901C701B601F9
:102B10000E94421E312C212C87FF0DC0E881F981D3
:102B20000190F081E02D6DE2CE0109951C01F7FACC
:102B3000F094F7F8F09410E060E070E080E09FE33C
:102B4000711641F020E030E040E251E40E94471E5F
:102B50001F5FF6CFA70196010E94D61D2B013C01F5
:102B60000E94C01E4B015C012AE0BC01A401CE0101
:102B70000E949C147C01E20CF31C1123E1F1C501BD
:102B8000B4010E94EF1E9B01AC01C301B2010E947F
:102B9000D51D4B015C01E881F9810190F081E02DA8
:102BA0006EE2CE010995E80EF91E115020F120E0E9
:102BB00030E040E251E4C501B4010E9456202B01EF
:102BC0003C010E94C01E4B01B12CA12C2AE0B50192
:102BD000A401CE010E949C14E80EF91EC501B401A7
:102BE0000E94EF1E9B01AC01C301B2010E94D51DE2
:102BF0004B015C01DACFC701DF91CF911F91FF90AC
:102C0000EF90DF90CF90BF90AF909F908F907F908C
:102C10006F905F904F903F902F90089585ED809337
:102C2000BC008091EB019091EC01A091ED01B0917D
:102C3000EE010796A11DB11D23E0B695A7959795C6
:102C400087952A95D1F72091BC0024FD03C01092EE
:102C5000340208954091EB015091EC016091ED0137
:102C60007091EE01452B462B472B69F30097A10588
:102C7000B10541F025E32A95F1F700000197A1097C
:102C8000B109E1CF8091EA010C943D101F920F929F
:102C90000FB60F9211242F933F934F935F936F932F
:102CA0007F938F939F93AF93BF93EF93FF938EE8A0
:102CB00092E00E945406FF91EF91BF91AF919F91D6
:102CC0008F917F916F915F914F913F912F910F90D5
:102CD0000FBE0F901F9018951F920F920FB60F9274
:102CE00011242F938F939F93EF93FF93E0919E0274
:102CF000F0919F028081E091A402F091A50282FDF3
:102D00001BC090818091A7028F5F8F732091A802D2
:102D1000821741F0E091A702F0E0E257FD4F958F56
:102D20008093A702FF91EF919F918F912F910F9028
:102D30000FBE0F901F9018958081F4CF1F920F92B5
:102D40000FB60F9211242F933F938F939F93AF93BE
:102D5000BF9380915B0290915C02A0915D02B09163
:102D60005E0230915A0223E0230F2D3758F5019669
:102D7000A11DB11D20935A0280935B0290935C02C7
:102D8000A0935D02B0935E0280915F029091600219
:102D9000A0916102B09162020196A11DB11D8093C4
:102DA0005F0290936002A0936102B0936202BF91B0
:102DB000AF919F918F913F912F910F900FBE0F90E8
:102DC0001F90189526E8230F0296A11DB11DD2CFA2
:102DD0001F920F920FB60F9211242F933F934F9390
:102DE0005F936F937F938F939F93AF93BF93EF9373
:102DF000FF938091B900887F803609F44AC0F0F5CE
:102E0000883209F4A7C018F5803109F49BC0B8F4E2
:102E1000882309F4F9C0883009F494C0FF91EF9138
:102E2000BF91AF919F918F917F916F915F914F91E2
:102E30003F912F910F900FBE0F901F9018958831E2
:102E400009F488C0803251F78093330214C0803473
:102E500009F49DC040F48033B9F38833F9F68093C8
:102E6000330285ECB0C0803509F485C0883509F49B
:102E700096C0883499F60E940E16D0CF883909F48E
:102E80008CC038F5883729F050F4883611F0803737
:102E900029F683E0809334021092320257C08838BA
:102EA00009F47BC0803919F0803809F0B7CF8091E0
:102EB0003202803208F071C0E091320281E08E0F60
:102EC000809332028091BB00F0E0EE5EFD4F808384
:102ED0003DC0803B39F0E0F4803A09F479C0883A8B
:102EE00009F09CCF84E0809334021092110210927A
:102EF0001002E0916602F09167020995809110023C
:102F000081110FC081E0809310021092F00109C07E
:102F1000803C09F4A6CF883C09F4A3CF883B09F094
:102F20007DCFE091110281E08E0F80931102F0E0DD
:102F3000E051FE4F80818093BB00909111028091FF
:102F4000100229C0809159028093BB0085EC8093C8
:102F5000BC0064CF9091580280915702981758F5A1
:102F6000E091580281E08E0F80935802F0E0E95C16
:102F7000FD4F8081E9CFE091580281E08E0F809370
:102F800058028091BB00F0E0E95CFD4F8083909196
:102F90005802809157029817C8F285E8D8CFE0917F
:102FA000580281E08E0F809358028091BB00F0E0C0
:102FB000E95CFD4F80838091360281115CCF81E016
:102FC0008093350284EA8093BC001092340226CFAD
:102FD00085EC8093BC0010923402809132028032E2
:102FE00030F4E0913202F0E0EE5EFD4F108260912D
:102FF000320270E0E0916402F091650282E192E0B9
:103000000995109232020ACF1092330234CFCF9337
:10301000DF93AB01BC012AE08EE892E00E9420150C
:10302000EC0167E571E08EE892E00E948D148C0F50
:103030009D1FDF91CF910895EEE8F2E01382128296
:1030400048EE53E060E070E0448355836683778305
:103050008BE091E09183808385EC90E09587848775
:1030600084EC90E09787868780EC90E0918B808B52
:1030700081EC90E0938B828B82EC90E0958B848B3B
:1030800086EC90E0978B868B118E128E138E148EA9
:10309000ABE2B3E013961C921E92129714964D93D6
:1030A0005D936D937C9317978DE191E011969C93BE
:1030B0008E93E7E3F3E01382128220E830E0358359
:1030C000248380E490E097838683318720879387E9
:1030D0008287168A158614861786168681E0858B68
:1030E000848B2FEF3FEF338B228B318B208B878BA1
:1030F000108E128E118E8FE291E091838083148E58
:10310000138EB68FA58F10A2178E8FEF84A385A381
:1031100086A387A384E080A780E89AE1A6E0B0E0D8
:1031200085AB96ABA7ABB0AF80EA96E8A1E0B0E084
:1031300081AF92AFA3AFB4AF80E586AF17AE08956D
:10314000789484B5826084BD84B5816084BD85B582
:10315000826085BD85B5816085BD80916E0081608E
:1031600080936E0010928100809181008260809334
:103170008100809181008160809381008091800036
:103180008160809380008091B10084608093B10061
:103190008091B00081608093B00080917A0084605B
:1031A00080937A0080917A00826080937A00809187
:1031B0007A00816080937A0080917A0080688093A1
:1031C0007A001092C10083E080930001E0919E029A
:1031D000F0919F0282E08083E0919A02F0919B023D
:1031E0001082E0919C02F0919D028FEC80831092FE
:1031F000A602E091A202F091A30286E08083E09112
:10320000A002F091A102808180618083E091A00200
:10321000F091A102808188608083E091A002F0910A
:10322000A102808180688083E091A002F091A102D8
:1032300080818F7D808366E671E08EE892E00E9457
:103240008D1467E571E08EE892E00E948D14809104
:10325000560390915703892B61F520913D033091DE
:103260003E03C901079697FD0796B3E095958795AC
:10327000BA95E1F720913B0330913C03AC01429FAA
:10328000C001439F900D529F900D11240E94172161
:103290009093570380935603892B59F485EB9AE05A
:1032A0000E94C30667E571E08EE892E00E948D14EB
:1032B000FFCF0E946B1420913D0330913E0380911B
:1032C0003B0390913C03B901213231050CF43CC120
:1032D0006054710977FF02C06F5F7F4F75956795E6
:1032E0008255910997FD019600E410E022E530E057
:1032F00048ED57E0959587950E94E90E82E080930E
:1033000059038091540390915503892B09F42FC1DF
:103310008CE3809358031092690210926802109215
:103320008B0210928A020E941F1084ED95E0909308
:1033300067028093660285ED95E090936502809325
:10334000640280915F0387FD1DC00E94B40561E0A7
:1033500080915F030E94FE0661E070E080E090E0F3
:103360000E946F0760E080915F030E94FE066AE0A2
:1033700070E080E090E00E946F0761E080915F0361
:103380000E94FE068091540390915503892B09F405
:10339000A5C120916C0330916D0340916E03509153
:1033A0006F0360E074E284EF90E00E94EF20205110
:1033B000310941095109569547953795279520932D
:1033C000B80064E084EF95E00E94CA1160913D036B
:1033D000615087E393E00E947F1264E080EF95E004
:1033E0000E94CA118091590360E1813009F064E1C3
:1033F00087E393E00E947F1264E08CEE95E00E94E8
:10340000CA118FE88093740380913B0390913C0331
:103410008038910509F07BC180913D0390913E0376
:103420008034910509F083C180915903813009F0FE
:103430006CC18FE980937403C2E16AED87E393E086
:103440000E947F126C2F87E393E00E947F1261E855
:1034500087E393E00E947F126091740387E393E017
:103460000E947F1269ED87E393E00E947F128091B2
:10347000590362E2813009F061EF87E393E00E9433
:103480007F1266E086EE95E00E94CA118091540397
:1034900090915503892B09F44EC12091700330910E
:1034A0007103409172035091730360E074E284EF02
:1034B00090E00E94EF2020513109410951095695B1
:1034C0004795379527952093B8000E946B1482E0AA
:1034D00080934B0380934C0381E090E090934A03E8
:1034E00080934903909348038093470380934F034D
:1034F00066E771E087E393E00E948D146CE771E06A
:1035000087E393E00E948D1467E571E087E393E021
:103510000E948D140E94E11268EE73E080E090E05A
:103520000E946F0790E080E00E94CD1DC82FD0E080
:10353000C130D10509F409C188E99AE00E94C306A7
:10354000CE010E94E814FFCF6052710977FF02C0DC
:103550006F5F7F4F759567958357910997FD01962A
:1035600000E210E023E730E048EF55E0C3CE809161
:103570005D030E94B40580915E030E94B4058091B2
:103580005D03082E000C990BFC01ED51F54FE49101
:10359000F0E0EE0FFF1FE153F54F2591349130938A
:1035A000650320936403FC01E950F54FE491E09337
:1035B0006A0380915E03082E000C990BFC01ED510B
:1035C000F54FE491F0E0EE0FFF1FE153F54FA591A9
:1035D000B491B0936703A0936603FC01E950F54FE3
:1035E000E491E0936B038C91E82BEC938091520370
:1035F00090915303892B89F1CFB7F894809163029E
:10360000811124C0EDEEFAE08491E1E0FBE09491B9
:10361000E82FF0E0EE0FFF1FE752F54FA591B491B0
:10362000EC91E92321F461E08AE00E94FE068AE041
:103630000E94B4058CB580618CBD8CB580648CBD56
:103640008DE00E94B4058BE00E94B4058091630276
:103650008F5F80936302CFBF74CE80915B030E9423
:10366000B40580915C030E94B40580915B03082E31
:10367000000C990BFC01ED51F54FE491F0E0EE0FD9
:10368000FF1FE153F54F259134913093610320934F
:103690006003FC01E950F54FE491E09368038091E9
:1036A0005C03082E000C990BFC01ED51F54FE491E1
:1036B000F0E0EE0FFF1FE153F54FA591B491B093E9
:1036C0006303A0936203FC01E950F54FE491E0939A
:1036D00069038C91E095E823EC9333CE80915203FB
:1036E00090915303892B31F080917503909176036B
:1036F0000E94FF09E0916603F09167039081809139
:103700006B038095892380835CCE8FEC93CE8036CB
:10371000910569F480913D0390913E03409739F4FF
:1037200080915903813029F480E180937403C2E0D1
:1037300084CE8FEAFACFE0916603F091670380812F
:1037400090916B03892B8083C0CE00E712E0D0E01C
:10375000C0E0CE010E94CD1DF80181938F0121961A
:10376000C831D105B1F761E871E08EE892E00E94BE
:103770008D1480917402909175020E94E8146AE899
:1037800071E08EE892E00E948D1460917802709151
:10379000790280917A0290917B020E9407186EE86C
:1037A00071E08EE892E00E948D1460917C0270912D
:1037B0007D0280917E0290917F020E94071862E94B
:1037C00071E08EE892E00E948D1460918002709109
:1037D000810280918202909183020E94071866E91B
:1037E00071E08EE892E00E948D14609184027091E5
:1037F000850280918602909187020E940718C0E09E
:10380000D0E032E0332E45E1C42ED12C1092890253
:1038100010928802809172029091730290936F02CD
:1038200080936E0280916E0290916F029C012150F4
:10383000310930936F0220936E02892B39F1809108
:103840000001F0E48F9FC001112480937C008091DF
:103850007A00806480937A0080917A0086FDFCCFA4
:103860002091780080917900382F80918802909182
:103870008902820F931F909389028093880264E6E5
:1038800070E080E090E00E946F07CCCF60918802EA
:103890007091890290E080E00E94EF1E4B015C0174
:1038A00060917402709175027C5F072E000C880B8A
:1038B000990B0E94F11E9B01AC01C501B4010E944D
:1038C000471E2DEC3CEC4CE85FE30E9456204B0178
:1038D0005C01609172027091730290E080E00E943E
:1038E000EF1E9B01AC01C501B4010E94471E4B01B4
:1038F0005C012FE632E143E05BE30E94421E87FD5C
:1039000014C180926A0290926B02A0926C02B092F3
:103910006D0280906A0290906B02A0906C02B09051
:103920006D0220917C0230917D0240917E02509187
:103930007F02C501B4010E94562020917802309187
:10394000790240917A0250917B020E94D61D2B0190
:103950003C01A5019401C501B4010E9456202091AB
:1039600080023091810240918202509183020E9434
:1039700056209B01AC01C301B2010E94D61D2B0150
:103980003C012FE632E143E05BE30E94421E87FDEB
:10399000D5C02FE632E143E85AE3C301B2010E94E9
:1039A000471E0E94FE1F20E030E040E251E40E94EA
:1039B00056204B015C0120E030E040E251E40E94DF
:1039C000471E0E942C1F9B01AC0160E070E080EA62
:1039D00090E40E94D51D0E94B91E162F0E946B1400
:1039E0001092440310924303109246031092450331
:1039F00030924B0330924C032FE632E143E05BE31D
:103A0000C301B2010E94421E6AE971E087FD09C04C
:103A1000212FB301A20187E393E00E94201560EA01
:103A200071E087E393E00E948D141092440310929A
:103A30004303D0924603C092450320E030E040E8C3
:103A40005FEBC501B4010E94F91F18160CF081C08C
:103A500021E0B501A40187E393E00E94201563EA09
:103A600071E087E393E00E948D1420E030E040E2B3
:103A700050E4C501B4010E94562020E030E040E04F
:103A80005FE30E94D61D0E94B91E4B014091410385
:103A90005091420345515109EE24E394F12C05E184
:103AA00010E0940170E060E087E393E00E94030E71
:103AB00020913F0330914003281939094091410377
:103AC0005091420345515109B4016F5F7F4FF12C72
:103AD000E12C87E393E00E94030E98E1A92EB12C1C
:103AE00040914103509142034A505109F12CE12C7D
:103AF0000AE010E021E030E0B50187E393E00E94A6
:103B0000030E29E1A20EB11C45E9A416B10441F748
:103B10000E94E112209709F479CE0E944006882382
:103B200009F474CE0E94000071CE10926A021092C5
:103B30006B0210926C0210926D02EBCE812C912CD4
:103B400020E8A22E2FEBB22E412C512C320113E093
:103B500045CF20913F033091400340914103509164
:103B6000420345515109F12CE12C05E110E070E0D0
:103B700060E087E393E00E94030ECACF8FE291E0FA
:103B800090933803809337038091560390915703A5
:103B9000009711F00C94B3210895F999FECF92BDCE
:103BA00081BDF89A992780B508955058BB27AA2758
:103BB0000E94ED1D0C94A71F0E94991F38F00E94CF
:103BC000A01F20F039F49F3F19F426F40C94961F9F
:103BD0000EF4E095E7FB0C94671FE92F0E94B81FD5
:103BE00058F3BA17620773078407950720F079F432
:103BF000A6F50C94F21F0EF4E0950B2EBA2FA02D13
:103C00000B01B90190010C01CA01A0011124FF2789
:103C1000591B99F0593F50F4503E68F11A16F04084
:103C2000A22F232F342F4427585FF3CF4695379583
:103C30002795A795F0405395C9F77EF41F16BA0B48
:103C4000620B730B840BBAF09150A1F0FF0FBB1FF6
:103C5000661F771F881FC2F70EC0BA0F621F731F3F
:103C6000841F48F4879577956795B795F7959E3F9C
:103C700008F0B0CF9395880F08F09927EE0F97952D
:103C8000879508950E94431F08F481E008950E94DB
:103C90005B1E0C94A71F0E94A01F58F00E94991F42
:103CA00040F029F45F3F29F00C94671F51110C94E8
:103CB000F31F0C94961F0E94B81F68F39923B1F369
:103CC000552391F3951B550BBB27AA276217730742
:103CD000840738F09F5F5F4F220F331F441FAA1FD6
:103CE000A9F335D00E2E3AF0E0E832D09150504092
:103CF000E695001CCAF72BD0FE2F29D0660F771F40
:103D0000881FBB1F261737074807AB07B0E809F025
:103D1000BB0B802DBF01FF2793585F4F3AF09E3FAA
:103D2000510578F00C94671F0C94F31F5F3FE4F388
:103D3000983ED4F3869577956795B795F7959F5FED
:103D4000C9F7880F911D9695879597F90895E1E039
:103D5000660F771F881FBB1F621773078407BA0798
:103D600020F0621B730B840BBA0BEE1F88F7E095F3
:103D700008950E94C01E6894B1110C94F31F089519
:103D80000E94C01F88F09F5798F0B92F9927B7510C
:103D9000B0F0E1F0660F771F881F991F1AF0BA95EF
:103DA000C9F714C0B13091F00E94F21FB1E008953C
:103DB0000C94F21F672F782F8827B85F39F0B93F2E
:103DC000CCF3869577956795B395D9F73EF49095A2
:103DD0008095709561957F4F8F4F9F4F0895E89420
:103DE00009C097FB3EF490958095709561957F4F43
:103DF0008F4F9F4F9923A9F0F92F96E9BB279395F1
:103E0000F695879577956795B795F111F8CFFAF400
:103E1000BB0F11F460FF1BC06F5F7F4F8F4F9F4F31
:103E200016C0882311F096E911C0772321F09EE88F
:103E3000872F762F05C0662371F096E8862F70E0F5
:103E400060E02AF09A95660F771F881FDAF7880FCF
:103E50009695879597F908950E94DA1F90F09F37FD
:103E600048F4911116F00C94F31F60E070E080E8C4
:103E70009FEB089526F41B16611D711D811D0C9486
:103E80006D1F0C94881F990F0008550FAA0BE0E8CE
:103E9000FEEF16161706E807F907C0F0121613060C
:103EA000E407F50798F0621B730B840B950B39F44C
:103EB0000A2661F0232B242B252B21F408950A26B2
:103EC00009F4A140A6958FEF811D811D089597F9F2
:103ED0009F6780E870E060E00895882371F477239D
:103EE00021F09850872B762F07C0662311F499276D
:103EF0000DC09051862B70E060E02AF09A95660F15
:103F0000771F881FDAF7880F9695879597F9089598
:103F10009F3F31F0915020F4879577956795B7953D
:103F2000880F911D9695879597F908959FEF80ECDE
:103F3000089500240A94161617061806090608950F
:103F400000240A9412161306140605060895092E75
:103F50000394000C11F4882352F0BB0F40F4BF2BE4
:103F600011F460FF04C06F5F7F4F8F4F9F4F089524
:103F700057FD9058440F551F59F05F3F71F047951A
:103F8000880F97FB991F61F09F3F79F087950895FF
:103F9000121613061406551FF2CF4695F1DF08C01E
:103FA000161617061806991FF1CF8695710561053B
:103FB000089408950E94C01FA0F0BEE7B91788F4C6
:103FC000BB279F3860F41616B11D672F782F8827FE
:103FD000985FF7CF869577956795B11D939596393C
:103FE000C8F30895E894BB2766277727CB0197F994
:103FF00008950E94431F08F48FEF08950E940E2039
:1040000029ED3BE54EED5EE30C94562016F00C9442
:10401000881F0C94961F68940C94671F0E94C01F01
:10402000A8F39923C1F3AEF3DF93CF931F930F93BC
:10403000FF92C92FDD2788232AF02197660F771F6B
:10404000881FDAF720E030E040E85FEB9FE3883933
:1040500020F0803E38F021968F770E94D61DE8E64A
:10406000F0E004C00E94D61DE5E9F0E00E94C820FF
:104070008B01BE01EC01FB2E6F5771097595771FFF
:10408000880B990B0E94F11E28E132E741E35FE3C0
:104090000E946920AF2D9801AE01FF900F911F91F2
:1040A000CF91DF910E94ED1D0C94A71F0E94692003
:1040B0000C94A71F0E94991F38F00E94A01F20F0A7
:1040C000952311F00C94671F0C94961F11240C94E7
:1040D000F31F0E94B81F70F3959FC1F3950F50E036
:1040E000551F629FF001729FBB27F00DB11D639FAA
:1040F000AA27F00DB11DAA1F649F6627B00DA11D50
:10410000661F829F2227B00DA11D621F739FB00DF5
:10411000A11D621F839FA00D611D221F749F332765
:10412000A00D611D231F849F600D211D822F762FFE
:104130006A2F11249F5750409AF0F1F088234AF0DB
:10414000EE0FFF1FBB1F661F771F881F9150504047
:10415000A9F79E3F510580F00C94671F0C94F31F44
:104160005F3FE4F3983ED4F3869577956795B795CE
:10417000F795E7959F5FC1F7FE2B880F911D9695E8
:10418000879597F908950E94431F880B990B08950E
:10419000DF93CF931F930F93FF92EF92DF927B01F8
:1041A0008C01689406C0DA2EEF010E946920FE019E
:1041B000E894A5912591359145915591A6F3EF018C
:1041C0000E94ED1DFE019701A801DA9469F7DF90C6
:1041D000EF90FF900F911F91CF91DF910895A1E291
:1041E0001A2EAA1BBB1BFD010DC0AA1FBB1FEE1F71
:1041F000FF1FA217B307E407F50720F0A21BB30BBC
:10420000E40BF50B661F771F881F991F1A9469F737
:1042100060957095809590959B01AC01BD01CF0193
:104220000895EE0FFF1F0590F491E02D09940F9370
:104230001F93CF93DF938230910510F482E090E0DA
:10424000E0917903F0917A0330E020E0B0E0A0E063
:10425000309799F42115310509F44AC0281B390B10
:1042600024303105D8F58A819B816115710589F16A
:10427000FB0193838283FE0111C040815181028141
:10428000138148175907E0F04817590799F4109718
:1042900061F012960C93129713961C933296CF01ED
:1042A000DF91CF911F910F9108950093790310939F
:1042B0007A03F4CF2115310551F04217530738F036
:1042C000A901DB019A01BD01DF01F801C1CFEF01B6
:1042D000F9CF90937A0380937903CDCFFE01E20F5B
:1042E000F31F819391932250310939832883D7CFCB
:1042F0002091770330917803232B41F4209103011F
:1043000030910401309378032093770320910101C9
:10431000309102012115310541F42DB73EB740918E
:10432000050150910601241B350BE0917703F091B4
:104330007803E217F307A0F42E1B3F0B2817390769
:1043400078F0AC014E5F5F4F2417350748F04E0FF1
:104350005F1F5093780340937703819391939FCF8E
:10436000F0E0E0E09CCFCF93DF930097E9F0FC0111
:10437000329713821282A0917903B0917A03ED01F2
:1043800030E020E01097A1F420813181820F931F4B
:1043900020917703309178032817390709F061C01D
:1043A000F0937803E0937703DF91CF910895EA01CA
:1043B000CE17DF07E8F54A815B819E014115510563
:1043C000B1F7E901FB83EA8349915991C40FD51FE5
:1043D000EC17FD0761F4808191810296840F951F8F
:1043E000E90199838883828193819B838A83F0E0AA
:1043F000E0E012968D919C9113970097B9F52D915D
:104400003C911197CD010296820F931F2091770363
:10441000309178032817390739F6309751F5109203
:104420007A0310927903B0937803A0937703BCCFFB
:10443000D383C28340815181840F951FC817D90748
:1044400061F44E5F5F4F88819981480F591F5183F6
:1044500040838A819B81938382832115310509F0F2
:10446000B0CFF0937A03E09379039ECFFD01DC0196
:10447000C0CF13821282D7CF81E090E0F8940C94E1
:104480004822DC0101C06D9341505040E0F708958F
:1044900015E0C9E8D5E004C0FE010E941121219673
:0A44A000CA38D107C9F7F894FFCF1E
:1044AA000100007B038000000000007606D60503A9
:1044BA0006DE0634061206260600000000B410873F
:1044CA00106814D30580106D105E10000000003DC6
:1044DA000CD6056814F70F4809D305E20EBA0ED6B2
:1044EA000ECA0E4A0FD305030A1214B808010903AB
:1044FA000EE60D6E0D0F0D0D0A006E616E00696EEF
:10450A0066006F76660053657269616C2073746128
:10451A00727465642E00706D64207600302E30331C
:10452A000061646361646A3A2000613A2000623A79
:10453A002000633A2000643A20003C302E303032AA
:0A454A002057002064426D2000009D
:00000001FF
