:100000000C94A5050C94CD050C94CD050C94CD0550
:100010000C94CD050C94CD050C94CD050C94CD0518
:100020000C94CD050C94CD050C94CD050C94CD0508
:100030000C94CD050C94CD050C94CD050C94CD05F8
:100040000C94CB160C94CD050C9499160C94731645
:100050000C94CD050C94CD050C94CD050C94CD05D8
:100060000C9415170C94CD0508000000BE9224498D
:10007000123EABAAAA2ABECDCCCC4C3E00000080DA
:10008000BEABAAAAAA3E00000000BF000000803F4D
:100090000000000000084178D3BB4387D1133D190D
:1000A0000E3CC3BD4282AD2B3E68EC8276BED98F3A
:1000B000E1A93E4C80EFFFBE01C4FF7F3F0000007E
:1000C000000007634236B79BD8A71A39685618AEA6
:1000D000BAAB558C1D3CB7CC5763BD6DEDFD753E7D
:1000E000F6177231BF000000803F00000000003EA4
:1000F0005B4F5B3E3E6B4F6B3E1C3E7C3E1C183C98
:100100007E3C181C577D571C1C5E7F5E1C00183CF3
:100110001800FFE7C3E7FF0018241800FFE7DBE73C
:10012000FF30483A060E2629792926407F05050723
:10013000407F05253F5A3CE73C5A7F3E1C1C08087F
:100140001C1C3E7F14227F22145F5F005F5F060944
:100150007F017F006689956A606060606094A2FF9D
:10016000A29408047E040810207E201008082A1C8F
:1001700008081C2A08081E101010100C1E0C1E0C5B
:1001800030383E3830060E3E0E06000000000000FB
:10019000005F00000007000700147F147F14242A6A
:1001A0007F2A12231308646236495620500008073C
:1001B0000300001C2241000041221C002A1C7F1C5D
:1001C0002A08083E0808008070300008080808085F
:1001D000000060600020100804023E5149453E00C6
:1001E000427F400072494949462141494D33181424
:1001F000127F1027454545393C4A49493141211173
:1002000009073649494936464949291E0000140064
:100210000000403400000008142241141414141487
:10022000004122140802015909063E415D594E7CE5
:100230001211127C7F494949363E414141227F419A
:1002400041413E7F494949417F090909013E4141F8
:1002500051737F0808087F00417F41002040413FE3
:10026000017F081422417F404040407F021C027FF2
:100270007F0408107F3E4141413E7F090909063E47
:100280004151215E7F091929462649494932030116
:100290007F01033F4040403F1F2040201F3F403828
:1002A000403F631408146303047804036159494D03
:1002B00043007F4141410204081020004141417F39
:1002C00004020102044040404040000307080020AF
:1002D000545478407F2844443838444444283844AF
:1002E00044287F385454541800087E090218A4A4E6
:1002F0009C787F0804047800447D40002040403D05
:10030000007F1028440000417F40007C047804787E
:100310007C080404783844444438FC182424181811
:10032000242418FC7C08040408485454542404046D
:100330003F44243C4040207C1C2040201C3C40305A
:10034000403C44281028444C9090907C4464544C89
:1003500044000836410000007700000041360800E4
:1003600002010204023C2623263C1EA1A161123A8E
:100370004040207A385454555921555579412254DA
:10038000547842215554784020545579400C1E52DF
:100390007212395555555939545454593955545484
:1003A000580000457C410002457D420001457C40EB
:1003B0007D1211127DF0282528F07C54554500202F
:1003C00054547C547C0A097F4932494949323A44A1
:1003D00044443A324A4848303A4141217A3A42400C
:1003E0002078009DA0A07D3D4242423D3D404040DE
:1003F0003D3C24FF2424487E4943662B2FFC2F2BB1
:10040000FF0929F620C0887E090320545479410051
:1004100000447D413048484A32384040227A007AD0
:100420000A0A727D0D19317D2629292F28262929AE
:10043000292630484D4020380808080808080808D0
:10044000382F10C8ACBA2F102834FA00007B0000F7
:1004500008142A142222142A14085500550055AAFB
:1004600055AA55AAFF55FF55FF000000FF001010C8
:1004700010FF00141414FF001010FF00FF1010F004
:1004800010F0141414FC001414F700FF0000FF0017
:10049000FF1414F404FC141417101F10101F101F65
:1004A0001414141F00101010F0000000001F101092
:1004B00010101F10101010F010000000FF1010108E
:1004C000101010101010FF10000000FF140000FFAB
:1004D00000FF00001F10170000FC04F41414171094
:1004E000171414F404F40000FF00F7141414141487
:1004F0001414F700F7141414171410101F101F14FD
:100500001414F4141010F010F000001F101F00005D
:10051000001F14000000FC140000F010F01010FF89
:1005200010FF141414FF141010101F00000000F02E
:1005300010FFFFFFFFFFF0F0F0F0F0FFFFFF000003
:10054000000000FFFF0F0F0F0F0F3844443844FC2A
:100550004A4A4A347E02020606027E027E02635541
:100560004941633844443C04407E201E2006027EFC
:10057000020299A5E7A5991C2A492A1C4C7201720E
:100580004C304A4D4D303048784830BC625A463D78
:100590003E494949007E0101017E2A2A2A2A2A442D
:1005A000445F444440514A444040444A5140000062
:1005B000FF0103E080FF000008086B6B083612366D
:1005C0002436060F090F060000181800000010104E
:1005D000003040FF0101001F01011E00191D17120C
:1005E000003C3C3C3C0000000000000103070F1FE2
:1005F0003F7F0080C0E0F0F8FCFE00000008000231
:1006000001000003040700000000000000000000DB
:100610000000240027002A00DB40A4A62EAF200003
:10062000A1C8D300408DAED580A8010204081020D7
:10063000408001020408102001020408102000007C
:100640000000250028002B00040404040404040412
:10065000020202020202030303030303000060001C
:1006600000000000000000000000000000E00000AA
:10067000000000000000000000000001E000000099
:100680000000000000000000000001F00000000079
:1006900000000000000000000003F0000000000067
:1006A000000000000000000007F000000000000053
:1006B0000000000000000007F8000000000000003B
:1006C0000000000000000FF800000003C0007E00E2
:1006D0000001E0007F0FF800000003C000FE0000F2
:1006E00001E000FFEFF800000003C000FE00000181
:1006F000E000FFFFF800000003C000F00000000F62
:10070000007FFE7FC0000003C000F00000000F006B
:100710003FFE7FF83FF1FBCFFCFEF3BC3DEFE01F57
:10072000FE7FFF7FFBFFDFFEFEFFBC3DEFE01FC64D
:10073000FFFF7FFBFFDFFEFEFFBC3DEFE00FE3C7E7
:10074000FE787BC3DE1EF0FFBC3DEF0007FF87FC99
:10075000787BC3DE1EF0F83C3DEF0001FFFFF000A8
:100760007BC3C01EF0F03C3DEF0001F37FE03FFB98
:10077000C3CFFEF0F03C3DEF0003E33F807FFBC3BF
:10078000DFFEF0F03C3DEF0007E73C00787BC3DE86
:100790001EF0F03C3DEF0007FFBE00787BC3DE1E7D
:1007A000F0F03C3DEF0007FFFE00787BC3DE1EF05B
:1007B000F03C3DEF000FFFFE007FFBFFDFFEF0F09F
:1007C0003FFDEFE00FFFFF007FFBFFDFFEF0F03F9C
:1007D000FDEFE00FF9FF003E79F9CF9EF0F01F3DED
:1007E000E7E01FF1FF000000000000000000000033
:1007F000001F80FF007FFFFFFFFFFFFFFFFFFFE005
:100800001C007F007FFFFFFFFEB46D888D18E000A5
:10081000001F007FFFFFFFFE95AD7DB577E0000074
:100820000F007FFFFFFFFEA5AD9D8D19E0000006C4
:10083000007FFFFFFFFEB5ADEDB57EE000000000DC
:1008400000018000000000000000000003800000A4
:100850000000000000000007C000000000000000D1
:10086000000007C00000000000000000000FC000F2
:1008700000000000000000001FE000000000000079
:100880000000001FE00000000000000000003FE04A
:100890000000000000000000003FF0000000000029
:1008A000000000007FF0000000000000001FF87F43
:1008B000F0000000000000003FFE7FF0000000009C
:1008C0000000003FFF7FF0000000000000001FFF5D
:1008D000FBE0000000000000000FFFF9FFC0000077
:1008E000000000000FFFF9FFF80000000000000703
:1008F000FFF1FFFF00000000000003FC73FFFF801A
:10090000000000000001FE3FFFFF8000000000002B
:1009100000FF1E0FFF000000000000007FFE1FFC14
:10092000000000000000003FFFFFF8000000000092
:1009300000000FDFFFE0000000000000001F19FFB3
:10094000C0000000000000003F3CFF00000000006D
:100950000000007E7CF800000000000000007FFE28
:100960007C0000000000000000FFFFFC0000000011
:1009700000000000FFFFFE0000000000000000FF7C
:10098000FFFE0000000000000001FFEFFE0000007D
:100990000000000001FFCFFE000000000000000387
:1009A000FF07FE0000000000000003FC07FE00003F
:1009B000000000000003F003FE0000000000000043
:1009C000018000FE000000000000000000007E002A
:1009D0000000000000000000003E000000000000D9
:1009E000000000000C000000000000078000FC0078
:1009F0000003C0000000078001FC000003C00000ED
:100A000000078001FC000003C0000000078001E037
:100A10000000001E000000078001E00000001E0032
:100A20007FE3F79FF9FDE7787BDFC0FFF7FFBFFDAE
:100A3000FDFF787BDFC0FFF7FFBFFDFDFF787BDFA9
:100A4000C0F0F787BC3DE1FF787BDE00F0F787BCA4
:100A50003DE1F0787BDE0000F787803DE1E0787BC8
:100A6000DE007FF7879FFDE1E0787BDE00FFF78700
:100A7000BFFDE1E0787BDE00F0F787BC3DE1E07888
:100A80007BDE00F0F787BC3DE1E0787BDE00F0F72D
:100A900087BC3DE1E0787BDE00FFF7FFBFFDE1E0D2
:100AA0007FFBDFC0FFF7FFBFFDE1E07FFBDFC07C26
:100AB000F3F39F3DE1E03E7BCFC00000000000006B
:100AC0000000000000FFFFFFFFFFFFFFFFFFFFC070
:100AD000FFFFFFFFFD68DB111A31C0FFFFFFFFFDC5
:100AE0002B5AFB6AEFC0FFFFFFFFFD4B5B3B1A3346
:100AF000C0FFFFFFFFFD6B5BDB6AFDC052656164F9
:100B000020454550524F4D2E00556E737570706FD5
:100B10007274656420454550524F4D20766572735E
:100B2000696F6E3A20005353443133303620616C84
:100B30006C6F636174696F6E206661696C656400D7
:100B40002200FF21000049181E1E11241FBECFEFF6
:100B5000D8E0DEBFCDBF11E0A0E0B1E0EAE6F7E407
:100B600002C005900D92A23CB107D9F723E0A2EC98
:100B7000B1E001C01D92AB37B207E1F715E0C4EA5E
:100B8000D5E004C02197FE010E947122C33AD1072B
:100B9000C9F70E94CD180C94A8230C940000089566
:100BA00008950895AF92BF92CF92DF92EF92FF9295
:100BB0000F931F93CF93DF936C017B018B01040F85
:100BC000151FEB015E01AE18BF08C017D10759F021
:100BD0006991D601ED91FC910190F081E02DC60163
:100BE0000995892B79F7C501DF91CF911F910F915D
:100BF000FF90EF90DF90CF90BF90AF900895FC01F1
:100C0000538D448D252F30E0842F90E0821B930B71
:100C1000541710F0CF96089501970895FC01918D17
:100C2000828D981761F0A28DAE0FBF2FB11D5D961A
:100C30008C91928D9F5F9F73928F90E008958FEFBC
:100C40009FEF0895FC01918D828D981731F0828D70
:100C5000E80FF11D858D90E008958FEF9FEF0895C7
:100C6000FC01918D228D892F90E0805C9F4F821B2B
:100C700091098F73992708958EE892E00E943006BB
:100C800021E0892B09F420E0822F089580E090E094
:100C9000892B29F00E943C0681110C9400000895D4
:100CA000FC01A48DA80FB92FB11DA35ABF4F2C91E1
:100CB000848D90E001968F739927848FA689B789D8
:100CC0002C93A089B1898C91837080648C93938DCF
:100CD000848D981306C00288F389E02D80818F7D72
:100CE00080830895EF92FF920F931F93CF93DF932A
:100CF000EC0181E0888F9B8D8C8D98131AC0E88958
:100D0000F989808185FF15C09FB7F894EE89FF8926
:100D10006083E889F98980818370806480839FBFC4
:100D200081E090E0DF91CF911F910F91FF90EF90C4
:100D30000895F62E0B8D10E00F5F1F4F0F731127D4
:100D4000E02E8C8D8E110CC00FB607FCFACFE8890F
:100D5000F989808185FFF5CFCE010E945006F1CF41
:100D6000EB8DEC0FFD2FF11DE35AFF4FF0829FB783
:100D7000F8940B8FEA89FB8980818062CFCF0F9333
:100D80001F93CF93DF938C01D0E0C0E0F801EC0F0C
:100D9000FD1F6491662341F08EE892E00E94720686
:100DA000892B11F02196F2CFCE01DF91CF911F91C7
:100DB0000F910895CF93DF93EC01888D8823B9F0CC
:100DC000AA89BB89E889F9898C9185FD03C0808156
:100DD00086FD0DC00FB607FCF7CF8C9185FFF2CFD3
:100DE000808185FFEDCFCE010E945006E9CFDF91D3
:100DF000CF91089590E0FC01E650FA4F2491FC0158
:100E0000E65DF94F3491FC01E85BF94FE491EE2384
:100E1000C9F0222339F0233001F1A8F4213019F16F
:100E2000223029F1F0E0EE0FFF1FE25CF94FA591AF
:100E3000B4918FB7F894EC91611126C030953E23A0
:100E40003C938FBF08952730A9F02830C9F0243093
:100E500049F7809180008F7D03C0809180008F775B
:100E600080938000DFCF84B58F7784BDDBCF84B5DE
:100E70008F7DFBCF8091B0008F778093B000D2CF71
:100E80008091B0008F7DF9CF3E2BDACFCF93DF93E7
:100E900090E0FC01E65DF94F2491885B994FFC01DD
:100EA00084918823D1F090E0880F991FFC01E25FC4
:100EB000F94FA591B491FC01E25CF94FC591D49131
:100EC00061110EC09FB7F8948C91E22FE0958E23AC
:100ED0008C932881E223E8839FBFDF91CF9108950F
:100EE0008FB7F894EC91E22BEC938FBFF6CF3FB71E
:100EF000F8948091770290917802A0917902B09154
:100F00007A0226B5A89B05C02F3F19F00196A11DB6
:100F1000B11D3FBFBA2FA92F982F8827BC01CD0143
:100F2000620F711D811D911D42E0660F771F881FA2
:100F3000991F4A95D1F708958F929F92AF92BF92D1
:100F4000CF92DF92EF92FF924B015C010E947707F4
:100F50006B017C010E9477076C197D098E099F093E
:100F6000683E734081059105A8F321E0821A91083B
:100F7000A108B10888EEC80E83E0D81EE11CF11C60
:100F800081149104A104B10429F7FF90EF90DF9040
:100F9000CF90BF90AF909F908F900895EF92FF9267
:100FA0000F931F93CF93DF93EC01EC80FD806E15C0
:100FB0007F050CF070C057FF04C0240F351F50E0B0
:100FC00040E08E819F81FA01E20FF31F8E179F0789
:100FD0001CF49C01241B350B121613060CF05BC08D
:100FE000922F842F8695869586958E9DD0018F9D14
:100FF000B00D11246A0F7B1FAF8DB8A1A60FB71FCC
:10100000477049F188E0841B482F682F70E0FB018E
:10101000EE50FA4FE491281708F063C0621B710983
:101020002FEF30E002C0359527956A95E2F7E2236D
:101030000130110539F0B0F10230110561F58C91E4
:10104000E82702C08C91E82BEC93941720F12C81B7
:101050003D81A20FB31FE92FE41BE83078F0023086
:10106000110521F58E2F9C9190959C932C813D81AB
:10107000A20FB31F88508830B0F7E770EE2359F005
:10108000F0E0E651FA4FE49101301105F9F010F16A
:101090000230110519F1DF91CF911F910F91FF904F
:1010A000EF900895E0958C91E823CECF81E0011573
:1010B000110509F480E081959E2F8C932C813D8150
:1010C000A20FB31F98509830C0F7D7CF8C91E82B60
:1010D000EC93E1CFE0958C91E823FACF8C91E8274F
:1010E000F7CF0130110509F4ADCFE0F20230110560
:1010F00009F4A5CFAE0DBF1DAECF0F931F93CF93B5
:10110000DF9377FF04C0260F371F70E060E0DC013B
:101110001496CD91DC91FB01E20FF31FCE17DF0790
:101120001CF49E01261B370B121613064CF5FA0110
:1011300057FD3796A3E0F595E795AA95E1F7EC9F63
:10114000D001ED9FB00DFC9FB00D11246A0F7B1FE5
:10115000DC015F96ED91FC91E60FF71F4770552774
:1011600081E090E001C0880F4A95EAF7482F0130EE
:10117000110559F0A8F02E0F3F1F02301105E1F0C4
:10118000DF91CF911F910F9108952E0F3F1FE2170E
:10119000F307B1F38191DF011197842B8C93F7CF83
:1011A00080952E0F3F1FE217F30751F39191DF0156
:1011B000119798239C93F7CFE217F30709F38191D6
:1011C000DF01119784278C93F7CF0F931F93FA01B8
:1011D000DC0156964C9156974230E9F04330A1F12C
:1011E000413061F514964D915C91DA01AE1BBF0B55
:1011F000FD01E21BF30B77FD0BC0DC0116964D9150
:101200005C916417750724F4AB01BF010E947D084F
:101210001F910F91089514964D915C91DA01A61BD0
:10122000B70BBD0161507109DC0116964D915C91BF
:10123000DA01AE1BBF0BFD01E21BF30B77FDE8CF1C
:10124000AF010E94CE07E4CF16964D915C91DA0172
:10125000A61BB70BBD0161507109CDCF0F931F9332
:10126000FA01DC0156964C9156974230A9F0433072
:1012700091F1413019F514964D915C91DA01AE1B54
:10128000BF0BFD013197F7FD04C0AB01BF010E9408
:10129000CE071F910F91089514964D915C91DA013C
:1012A000A61BB70BBD01DC0116964D915C91DA01CE
:1012B000AE1BBF0BFD013197621B730BF7FDE9CF2E
:1012C000DC0116964D915C91E417F50714F7AF0118
:1012D0000E947D08DECF16964D915C91DA01A61B27
:1012E000B70BBD01621B730BCECFFC0177FD64C051
:1012F00080859185681779070CF05EC057FD5CC04A
:1013000082859385481759070CF056C0868982302C
:10131000B1F0833029F1813041F484819581841BBF
:10132000950BAB01BC01615071092130310509F108
:1013300008F443C02230310509F463C00895848164
:101340009581DC01A61BB70BBD0161507109868137
:101350009781DC01A41BB50BAD0141505109E5CFCC
:1013600086819781861B970BBA01AC0141505109C8
:10137000DCCFCA0157FD0796A3E095958795AA95FE
:10138000E1F7A481B5818A9F90018B9F300D9A9FD0
:10139000300D1124620F731F078CF0A1E02DE60FB2
:1013A000F71F4770552721E030E001C0220F4A9512
:1013B000EAF78081822B80830895CA0157FD079642
:1013C00033E0959587953A95E1F7A481B5818A9F99
:1013D00090018B9F300D9A9F300D1124620F731F67
:1013E000078CF0A1E02DE60FF71F4770552781E02D
:1013F00090E001C0880F4A95EAF780959081892393
:10140000DACFCA0157FD079623E0959587952A956F
:10141000E1F7A481B5818A9F90018B9F300D9A9F3F
:10142000300D1124620F731F078CF0A1E02DE60F21
:10143000F71F4770552721E030E001C0220F4A9581
:10144000EAF780818227B7CF08958EBD00000DB4E2
:1014500007FEFDCF8EB508958CBD9DBD08950895FE
:10146000FC016370668B84819581268137816130B0
:1014700039F0633029F09187808733872287089578
:10148000318720879387828708952F923F924F92CA
:101490005F926F927F928F929F92AF92BF92CF9204
:1014A000DF92EF92FF920F931F93CF93DF93CDB70D
:1014B000DEB76A970FB6F894DEBF0FBECDBF9A8F26
:1014C000898F7A8369834A01D22E18870F83370167
:1014D000BC2CDC0159962D913C915A972115310570
:1014E00009F015C118968D919C9119976817790785
:1014F0000CF0D7C11A968D919C91481759070CF0A2
:10150000D0C14C2C512CB6E0CB9E600D711D112426
:101510007C876B87161617060CF0C3C1EA2DF0E026
:10152000FA87E98793E0EE0FFF1F9A95E1F7F88BB2
:10153000EF87CF01840F951F181619060CF0B1C163
:10154000A98DBA8D58968C91811104C0BFEABD1542
:1015500008F4D394A98DBA8DED91FC911197028472
:10156000F385E02DCD010995B5E0DB9EC001112486
:10157000E981FA81FC83EB83312C212C9C012651DB
:101580003F4F388F2F8B4A2D50E05E8B4D8BEF896C
:10159000F88DE20DF31D44919E828D82D12CC12CD9
:1015A00069817A81620D731D7A8B698B842F90E03B
:1015B0009C8B8B8BE98DFA8DA081B18140FF82C01D
:1015C000F1E0BF126FC0AF126DC01C96ED91FC919F
:1015D0002F813885A4014C0D5D1D69897A89898D1B
:1015E0009A8D0995EB89FC89F595E7954E2F5FEF6C
:1015F000C51AD50A6D817E818D899E89680F791FF4
:101600007E836D8398E0C916D10481F6AFEF2A1A64
:101610003A0AEB81FC81E40DF51DFC83EB83F5E0D8
:101620002F16310409F0B3CF2F81388526153705E1
:10163000B9F0A98DBA8DED91FC91B1E0BB1257C004
:10164000AB1255C069817A816B5F7F4F0088F18949
:10165000E02D830128E030E0A401898D9A8D099561
:10166000A98DBA8DED91FC9111970688F789E02D2F
:10167000CD016A960FB6F894DEBF0FBECDBFDF91E5
:10168000CF911F910F91FF90EF90DF90CF90BF907F
:10169000AF909F908F907F906F905F904F903F9012
:1016A0002F9009941E96ED91FC91EF80F8840985A6
:1016B0001A8592014D815E816B817C81898D9A8D25
:1016C000099590CF2F8138852615370509F48ACFE3
:1016D00031E0B31207C0A31205C01C96ED91FC9136
:1016E000930178CF1E96ED91FC917301E0CF6B854D
:1016F0007C85641975090684F785E02D73010F85D3
:1017000018899201A401898D9A8D0995A9CFF901B3
:1017100034969491329745915491D91AB7E0DB9E53
:10172000400D511D1124F901259134913C8B2B8BD7
:10173000FA0125903490FA013296749031963491E2
:10174000398B329664903196449041E04C1518F0F4
:101750004A1508F07FC0662D062C000C770B7C83A1
:101760006B83842D042C000C990B9E838D83A98D93
:10177000BA8DED91FC9111970284F385E02DCD0196
:101780000995512CD12CC12CEA2DF0E0FA87E9877C
:101790002B2D30E03C872B87A401440D511D47FCC5
:1017A0005A95588F4F8B69817A81660D711D67FC40
:1017B0007A957E876D877989C71608F051CF2C2DD1
:1017C00030E04D815E81420F531FA985BA854A9F43
:1017D000C0014B9F900D5A9F900D1124FC01E80D04
:1017E000F91DF88BEF87852D612C4F89588D420F9D
:1017F000531F5E8B4D8B671408F050C044244394F4
:10180000480E877041F4C1010196EB89FC89E20D15
:10181000F31DD4901C01D7FE19C0A98DBA8DED918E
:10182000FC91662D70E0B1E0BB1219C0AB1217C07D
:101830002D853E85620F731F0484F585E02D2F8171
:1018400038854D895E89898D9A8D0995DD0C639463
:10185000842DD1CF1E821D821C821B8288CF4B819A
:101860005C81640F751FAB85BC856A9FC0016B9F4F
:10187000900D7A9F900D112469817A81680F791FEC
:101880000684F785E02DEF80F88409851A859D018F
:101890004F855889898D9A8D0995D8CF570CC39457
:1018A0008ACF6A960FB6F894DEBF0FBECDBFDF9128
:1018B000CF911F910F91FF90EF90DF90CF90BF904D
:1018C000AF909F908F907F906F905F904F903F90E0
:1018D0002F9008958F929F92AF92CF92EF92FF92A6
:1018E0000F931F93CF93DF93EC01262F898D9A8D51
:1018F000009709F051C06A30D1F41D861C868D898D
:1019000048E0849F900111248E859F85820F931F4C
:101910009F878E8781E090E0DF91CF911F910F919B
:10192000FF90EF90CF90AF909F908F9008956D3083
:1019300089F3CC88AD888F898823C1F08C859D85FB
:1019400036E0C39E800D911D1124488559854817A6
:10195000590764F44E855F851D861C8638E0A39E7A
:10196000C0011124840F951F9F878E87EA88FB880A
:10197000088919894E855F856C857D85CE010E9419
:10198000450A2C898C859D8546E0249F800D911DFC
:1019900011249D878C87BECF6A3069F41D861C8612
:1019A000FC013896E4912D898E859F85E29F800DFC
:1019B000911D1124ADCF6D3009F4ACCFFC013496EC
:1019C0003491631708F4A6CF3296E491E61708F431
:1019D000A1CFFC01329685909490462F431B342F63
:1019E00047E0349F800C911C1124F401329634910D
:1019F0003196E4913323A9F1EE2399F1CC88F401D7
:101A00003596E491AD884F89442301F10E2E000CE8
:101A1000FF0BE30FF11DCE9EA001CF9E500D1124B0
:101A20006C857D85460F571F688579856417750716
:101A30006CF44E855F851D861C86FC013896E4910A
:101A4000AE9E400D511D11245F874E87EA88FB88AA
:101A5000088919894E855F856C857D85CE010E9438
:101A6000450AF4013496E4912C898C859D85E29F8A
:101A7000800D911D11248DCF6F927F928F929F9236
:101A8000AF92BF92CF92DF92EF92FF920F931F938C
:101A9000CF93DF93EC016B015A0139014801E881D2
:101AA000F9810284F385E02D0995E881F9810288A6
:101AB000F389E02D87019301A501B601CE010995B7
:101AC000A501480D591D41505109E881F98102884D
:101AD000F389E02D9301B601CE010995E881F981E2
:101AE0000088F189E02D9401A501B601CE01099588
:101AF000C60CD71CB60161507109E881F9810088D4
:101B0000F189E02D9401A501CE010995E881F981C3
:101B10000688F789E02DCE01DF91CF911F910F91BB
:101B2000FF90EF90DF90CF90BF90AF909F908F90FD
:101B30007F906F9009946F927F928F929F92AF9255
:101B4000BF92CF92DF92EF92FF920F931F93CF93AA
:101B5000DF935C01EB016A01490138018701DC0177
:101B6000ED91FC916217730719F5641675062CF058
:101B7000962D872D3A01C92ED82E960126193709A0
:101B80002F5F3F4F048CF58DE02DA301BE01C501F1
:101B90000995DF91CF911F910F91FF90EF90DF900A
:101BA000CF90BF90AF909F908F907F906F9008954F
:101BB0004615570591F42617370724F0892D4B0158
:101BC000C22FD82F9E01281939092F5F3F4F068C4D
:101BD000F78DE02DA601B401DACF0284F385E02D64
:101BE0000995D501ED91FC910488F589E02D8301DB
:101BF0009401A601BE01C5010995D501ED91FC91A5
:101C00000688F789E02DC501DF91CF911F910F91D3
:101C1000FF90EF90DF90CF90BF90AF909F908F900C
:101C20007F906F900994EF92FF920F931F93DC01C6
:101C30001A960D911C911B9718962D913C9119970E
:101C4000ED91FC9100A0F1A1E02D7B0150E040E07E
:101C500070E060E009951F910F91FF90EF9008955B
:101C60004F925F926F927F928F929F92AF92BF92AC
:101C7000CF92DF92EF92FF920F931F93CF93DF9358
:101C80006C012B015A0139014801DC01ED91FC91F5
:101C90000284F385E02D0995E201640C751CD601E0
:101CA000ED91FC91C615D7055CF40088F189E02D13
:101CB00087019401A501BE01C60109952196EFCFC8
:101CC0000688F789E02DC601DF91CF911F910F9112
:101CD000FF90EF90DF90CF90BF90AF909F908F904C
:101CE0007F906F905F904F9009948F929F92AF92E8
:101CF000BF92CF92DF92EF92FF920F931F93CF93F9
:101D0000DF93EC015B014A016901E881F9810284FA
:101D1000F385E02D099595012C0D3D1D21503109CC
:101D2000E881F9810488F589E02D78018401A40116
:101D3000B501CE010995E881F9810688F789E02D82
:101D4000CE01DF91CF911F910F91FF90EF90DF9027
:101D5000CF90BF90AF909F908F9009948F929F9259
:101D6000AF92BF92CF92DF92EF92FF920F931F93A9
:101D7000CF93DF93EC015B014A0169017801E881AF
:101D8000F9810284F385E02D0995C80CD91C8601E0
:101D900001501109E881F9810488F589E02D950148
:101DA000A401B501CE010995E881F9810688F7897A
:101DB000E02DCE01DF91CF911F910F91FF90EF9019
:101DC000DF90CF90BF90AF909F908F900994EF924B
:101DD000FF920F931F93DC01ED91FC9100A0F1A104
:101DE000E02D09951F910F91FF90EF9008950F93AB
:101DF0001F93DC01ED91FC91068CF78DE02D099588
:101E00001F910F9108950F931F93DC01ED91FC91A9
:101E1000048CF58DE02D09951F910F910895DC013B
:101E2000ED91FC910084F185E02D09943F924F9251
:101E30005F926F927F928F929F92AF92BF92CF925A
:101E4000DF92EF92FF920F931F93CF93DF935C018A
:101E50007B014A016901390187E0680E711C93E03A
:101E6000759467949A95E1F72B01400E511E10E08E
:101E700000E0312CD0E0C0E0CE0187709927330C10
:101E8000892B59F4FE0183E0F595E7958A95E1F7F2
:101E9000E00FF11FE80DF91D349037FE0AC021E074
:101EA00030E0A701B5016C0F7D1F87E393E00E942E
:101EB0000F0F2196CC16DD06F9F68FEFE81AF80A17
:101EC000060D171DE414F504A9F6DF91CF911F91BB
:101ED0000F91FF90EF90DF90CF90BF90AF909F90C9
:101EE0008F907F906F905F904F903F9008952F92CA
:101EF0003F924F925F926F927F928F929F92AF929A
:101F0000BF92CF92DF92EF92FF920F931F93CF93E6
:101F1000DF9300D000D000D0CDB7DEB73C016A011E
:101F20003E832D83FC82EB825801A41AB50AB7FECA
:101F300003C0B194A194B1088D809E80861A970A3F
:101F400097FE03C09194819491088A149B045CF0DD
:101F5000902F812F0D811E819D838E839C2D8D2D31
:101F60006B01692F782F0C151D055CF09D818E810A
:101F70007E836D83692F782F902F812F8601C92E44
:101F8000D82E1601201A310A2B012D813E81421ACA
:101F9000530A57FE03C0519441945108710137FE12
:101FA00003C03FEFE31AF30AF594E7948D819E8115
:101FB000861797075CF5A1E0B0E0BA83A983C01645
:101FC000D1064CF1D301ED91FC910484F585E02D0F
:101FD0002B813C81A8016D817E818A149B041CF0B9
:101FE0004D815E81B801C3010995E418F508F7FE3B
:101FF0000AC02D813E8189819A81280F391F3E8335
:102000002D83E20CF31C0F5F1F4FD9CF2FEF3FEF53
:102010003A832983D4CF26960FB6F894DEBF0FBE3D
:10202000CDBFDF91CF911F910F91FF90EF90DF9087
:10203000CF90BF90AF909F908F907F906F905F9068
:102040004F903F902F900895089520912802260FD9
:102050003327331F21323105ECF420914C02FC016F
:1020600090E080E0243069F082E00895A091280299
:102070002191AC01485F5D4FA40FB52FB11D2C938A
:102080000196861798F380912802680F60932802C2
:1020900080E0089581E0089510924C0281E08093E1
:1020A0004E0210924D0261E082E10E94FA0661E068
:1020B00083E10E94FA06E9EBF0E080818E7F808365
:1020C00080818D7F808388E48093B80085E480934D
:1020D000BC000895CF93DF9391E09093070288238B
:1020E000B9F0C091B800D091BA008091BC008A7B51
:1020F0008093BC0060E082E10E94FA0660E083E128
:102100000E94FA060E944C10D093BA00C093B80007
:10211000DF91CF910895E091810280918002E817CC
:1021200030F4F0E0EE51FE4F808190E008958FEFA3
:102130009FEF089590918102809180022FEF3FEFF1
:10214000981748F4E92FF0E0EE51FE4F208130E07F
:102150009F5F90938102C9010895809180029091C0
:102160008102891B990B0895CF92DF92EF92FF9223
:102170000F931F93CF93DF937C01CB018A012091B2
:102180008D02222389F0EB016B01C40ED51ECC1504
:10219000DD0569F06991D701ED91FC910190F08125
:1021A000E02DC7010995F3CF642F0E942510C801C7
:1021B000DF91CF911F910F91FF90EF90DF90CF9023
:1021C0000895CF93DF931F92CDB7DEB76983209137
:1021D0008D022223F9F020918A02203258F021E06A
:1021E00030E0FC013383228390E080E00F90DF91A8
:1021F000CF91089580918B02E82FF0E0EE53FE4FCF
:10220000998190838F5F80938B0280938A0281E013
:1022100090E0ECCF61E0CE0101960E942510F7CF4F
:10222000CF92DF92EF92FF920F931F93CF93DF93A2
:10223000D0918A0281E0D13208F09CC0C0918C021A
:102240000E9477076B017C0180914C0281116CC068
:1022500082E080934C0281E080934E028FEF809366
:102260004B0210927002D0936F02A2ECB1E0EFE447
:10227000F2E080E0D8138DC010927102809171025B
:10228000CC0FC82BC093710280914D02813009F0B0
:1022900084C010924D020E9477076B017C018091EF
:1022A00071028093BB008091030290910402A0917F
:1022B0000502B0910602892B8A2B8B2BA1F00E947C
:1022C00077070091030210910402209105023091DA
:1022D00006026C197D098E099F0906171707280742
:1022E000390708F442C08091BC0083FDD8CF85EC4B
:1022F0008093BC000E9477076B017C0180914C02A7
:10230000823009F44CC080914B028F3F09F469C0C0
:1023100080914B02803209F466C080914B02803379
:1023200009F463C084E026C0809103029091040206
:10233000A0910502B0910602892B8A2B8B2B09F400
:1023400083CF0E947707009103021091040220912D
:102350000502309106026C197D098E099F09061746
:1023600017072807390708F06FCF809102020E94F3
:102370006A1085E010928B0210928A0210928D02F0
:10238000DF91CF911F910F91FF90EF90DF90CF9051
:1023900008959D9191938F5F6DCF85EEA9CF809128
:1023A000030290910402A0910502B0910602892BCC
:1023B0008A2B8B2B09F4A2CF0E947707009103028E
:1023C0001091040220910502309106026C197D09DA
:1023D0008E099F09061717072807390708F08ECFBF
:1023E000C4CF80E0C7CF82E0C5CF83E0C3CFEF92F8
:1023F000FF920F931F93CF93DF937C01C62F8091A1
:10240000540390915503009709F459C02091580343
:1024100031E030938D0220938C0210928B02109247
:102420008A02DC01ED91FC910190F081E02D60E0E9
:1024300009958701EE24E394F12CD1E0C1508091FD
:10244000540390915503CF3F91F1B0E2EB16F104A4
:10245000D8F00E941011809154039091550320915F
:102460005803D0938D0220938C0210928B0210920D
:102470008A02DC01ED91FC910190F081E02D60E099
:102480000995EE24E394F12C809154039091550327
:10249000F8016491DC01ED91FC910190F081E02D57
:1024A0000995BFEFEB1AFB0A0F5F1F4FC7CFDF91F4
:1024B000CF911F910F91FF90EF900C941011E0912C
:1024C0006403F0916503908180916A03809589236C
:1024D00080838701C15008F438C0F80184912091AD
:1024E000520330915303232B29F00E94250A0F5FDA
:1024F0001F4FF0CF28E030E040E8E0916003F0911A
:10250000610390916803582F5423D9F05081952B83
:102510009083E0916203F09163039081509169038D
:10252000952B9083E0916203F09163035081909129
:102530006903909595239083469521503109E9F6DA
:10254000D6CF508190959523E3CFDF91CF911F9106
:102550000F91FF90EF9008951F93CF93DF93EC01BD
:102560008D8D9E8D009721F1162F29A131E030939A
:102570008D0220938C0210928B0210928A02DC0151
:10258000ED91FC910190F081E02D60E009958D8D39
:102590009E8DDC01ED91FC910190F081E02D612F89
:1025A00009958D8D9E8DDF91CF911F910C94101107
:1025B000ADA5BEA59C918BA9809589238C938B8D0D
:1025C0009C8D892B31F0862FDF91CF911F910C9438
:1025D000250A28E030E080E8A9A5BAA599A9462FE8
:1025E0004823C1F04C91942B9C93ABA5BCA59C9126
:1025F0004AA9942B9C93ABA5BCA54C919AA9909504
:1026000094239C9386952150310931F7DF91CF9126
:102610001F9108954C9190959423E6CFDF92EF920D
:10262000FF920F931F93CF93DF9380915403909168
:102630005503892B09F498C020916C0330916D03E8
:1026400040916E0350916F0360E074E284EF90E07C
:102650000E944F2220513109410951095695479551
:10266000379527952093B80065E080E49BE00E94B1
:10267000F71160913B03615087E393E00E94AC1235
:1026800020913D0330913E03C901079697FD0796BF
:1026900033E0959587953A95E1F720913B0330918A
:1026A0003C03829F8001839F100D929F100D112487
:1026B000C0915603D09157038091540390915503D4
:1026C0000C0F1D1F009709F48FC02091580331E0B3
:1026D00030938D0220938C0210928B0210928A020A
:1026E000DC01ED91FC910190F081E02D60E4099511
:1026F000EE24E394F12CDD24D39480915403909143
:1027000055030C171D0709F446C0B0E2EB16F1049F
:10271000D8F00E941011809154039091550320919C
:102720005803D0928D0220938C0210928B0210924B
:102730008A02DC01ED91FC910190F081E02D60E4D2
:102740000995EE24E394F12C809154039091550364
:102750006991DC01ED91FC910190F081E02D0995EA
:10276000BFEFEB1AFB0AC9CF80915203909153033C
:10277000892B31F080917503909176030E942C0A89
:10278000E0916603F0916703908180916B038095DF
:102790008923808369CF0E94101180915403909106
:1027A0005503892B09F461C02091700330917103A6
:1027B000409172035091730360E074E284EF90E003
:1027C0000E944F22205131094109510956954795E0
:1027D000379527952093B800DF91CF911F910F91E6
:1027E000FF90EF90DF900895E0916403F09165030E
:1027F000808190916A03892B80830C171D0769F2F1
:1028000089912091520330915303232B19F00E9498
:10281000250AF3CF28E030E040E8E0916003F09132
:10282000610390916803582F5423D9F05081952B60
:102830009083E0916203F09163039081509169036A
:10284000952B9083E0916203F09163035081909106
:102850006903909595239083469521503109E9F6B7
:10286000CCCF508190959523E3CFE0916603F09112
:102870006703808190916B03892B8083ADCF1F9379
:10288000CF93DF93EC01162F8D8D9E8D892BB1F1A7
:102890002DA93EA94FA958AD60E074E284EF90E005
:1028A0000E944F22205131094109510956954795FF
:1028B000379527952093B80066EA111167EACE0193
:1028C0000E94AC128D8D9E8D892B41F129AD3AADC0
:1028D0004BAD5CAD60E074E284EF90E00E944F226B
:1028E000205131094109510956954795379527954A
:1028F0002093B800DF91CF911F9108958B8D9C8D0F
:10290000892B21F08EAD9FAD0E942C0AEFA5F8A96E
:1029100090818CA9809589238083CECFEFA5F8A9DB
:1029200080819CA9892B8083E5CF90E080E0089589
:1029300020913D0330913E03C901079697FD07960C
:1029400023E0959587952A95E1F720913B033091F7
:102950003C03829FA001839F500D929F500D112434
:1029600070E060E080915603909157030C94A1238E
:102970000E949C23FB0101900020E9F73197AF01F1
:10298000461B570BDC01ED91FC910280F381E02D99
:1029900009948F929F92AF92BF92EF92FF920F9302
:1029A0001F93CF93DF93CDB7DEB7A1970FB6F894FF
:1029B000DEBF0FBECDBF7C01FA01CB0119A22230D0
:1029C00008F42AE08E010F5D1F4F822E912CB12C4E
:1029D000A12CBF01A50194010E944F22F901CA0157
:1029E0006A300CF5605DD8016E938D01232B242B8A
:1029F000252B79F790E080E0109721F0BD01C70109
:102A00000E94BA14A1960FB6F894DEBF0FBECDBFD8
:102A1000DF91CF911F910F91FF90EF90BF90AF90FA
:102A20009F908F900895695CDECFCF92DF92EF92F6
:102A3000FF92CF93DF936C01990FEE08FF08F7FE2A
:102A400023C06DE28EE892E00E947206EC014427FA
:102A50005527BA014C195D096E097F092AE08EE8F5
:102A600092E00E94C914C80FD91F6FE671E08EE88A
:102A700092E00E94BA148C0F9D1FDF91CF91FF90BE
:102A8000EF90DF90CF9008952AE0B701A6018EE87D
:102A900092E00E94C914EC01E8CF2F923F924F922E
:102AA0005F926F927F928F929F92AF92BF92CF92DE
:102AB000DF92EF92FF921F93CF93DF93EC016A01B5
:102AC0007B01722EAB019601CB01B6010E947321EE
:102AD00062E771E0811126C046015701E894B7F81A
:102AE0002FEF3FEF4FE75FE7C501B4010E9473216D
:102AF00081110CC02FEF3FEF4FE75FE7C501B40135
:102B00000E94A21E66E771E0181664F02FEF3FEFF7
:102B10004FE75FE4C701B6010E9459201816B4F4CC
:102B20006AE771E0CE01DF91CF911F91FF90EF90A6
:102B3000DF90CF90BF90AF909F908F907F906F90DD
:102B40005F904F903F902F900C94BA142FEF3FEF6F
:102B50004FE75FECC701B6010E94A21E87FDE0CFE0
:102B600020E030E0A901C701B6010E94A21E312C6D
:102B7000212C87FF0DC0E881F9810190F081E02DC3
:102B80006DE2CE0109951C01F7FAF094F7F8F09484
:102B900010E060E070E080E09FE3711641F020E01B
:102BA00030E040E251E40E94A71E1F5FF6CFA7016C
:102BB00096010E94361E2B013C010E94201F4B01F2
:102BC0005C012AE0BC01A401CE010E94C9147C0171
:102BD000E20CF31C1123E1F1C501B4010E944F1F67
:102BE0009B01AC01C301B2010E94351E4B015C0187
:102BF000E881F9810190F081E02D6EE2CE01099526
:102C0000E80EF91E115020F120E030E040E251E4DE
:102C1000C501B4010E94B6202B013C010E94201F77
:102C20004B01B12CA12C2AE0B501A401CE010E94D8
:102C3000C914E80EF91EC501B4010E944F1F9B0183
:102C4000AC01C301B2010E94351E4B015C01DACF19
:102C5000C701DF91CF911F91FF90EF90DF90CF9050
:102C6000BF90AF909F908F907F906F905F904F90AC
:102C70003F902F90089585ED8093BC0080910302D2
:102C800090910402A0910502B09106020796A11D41
:102C9000B11D23E0B695A795979587952A95D1F70D
:102CA0002091BC0024FD03C010924C020895409175
:102CB0000302509104026091050270910602452BB7
:102CC000462B472B69F30097A105B10541F025E399
:102CD0002A95F1F700000197A109B109E1CF809190
:102CE00002020C946A101F920F920FB60F921124D9
:102CF0002F933F934F935F936F937F938F939F9304
:102D0000AF93BF93EF93FF938EE892E00E9450063B
:102D1000FF91EF91BF91AF919F918F917F916F91B3
:102D20005F914F913F912F910F900FBE0F901F9089
:102D300018951F920F920FB60F9211242F938F9315
:102D40009F93EF93FF93E0919E02F0919F02808109
:102D5000E091A402F091A50282FD1BC090818091B8
:102D6000A7028F5F8F732091A802821741F0E09134
:102D7000A702F0E0E257FD4F958F8093A702FF91E5
:102D8000EF919F918F912F910F900FBE0F901F90F9
:102D900018958081F4CF1F920F920FB60F921124D5
:102DA0002F933F938F939F93AF93BF938091730221
:102DB00090917402A0917502B091760230917202E6
:102DC00023E0230F2D3758F50196A11DB11D209347
:102DD00072028093730290937402A0937502B09371
:102DE00076028091770290917802A0917902B09159
:102DF0007A020196A11DB11D80937702909378020B
:102E0000A0937902B0937A02BF91AF919F918F9175
:102E10003F912F910F900FBE0F901F90189526E8AD
:102E2000230F0296A11DB11DD2CF1F920F920FB694
:102E30000F9211242F933F934F935F936F937F9340
:102E40008F939F93AF93BF93EF93FF938091B900BC
:102E5000887F803609F44AC0F0F5883209F4A7C0AB
:102E600018F5803109F49BC0B8F4882309F4F9C03F
:102E7000883009F494C0FF91EF91BF91AF919F9179
:102E80008F917F916F915F914F913F912F910F9013
:102E90000FBE0F901F901895883109F488C08032BA
:102EA00051F780934B0214C0803409F49DC040F464
:102EB0008033B9F38833F9F680934B0285ECB0C0C8
:102EC000803509F485C0883509F496C0883499F6B0
:102ED0000E943B16D0CF883909F48CC038F588376A
:102EE00029F050F4883611F0803729F683E080937A
:102EF0004C0210924A0257C0883809F47BC08039CE
:102F000019F0803809F0B7CF80914A02803208F07A
:102F100071C0E0914A0281E08E0F80934A02809155
:102F2000BB00F0E0E65DFD4F80833DC0803B39F0A3
:102F3000E0F4803A09F479C0883A09F09CCF84E043
:102F400080934C021092290210922802E0917E0296
:102F5000F0917F0209958091280281110FC081E0D4
:102F6000809328021092080209C0803C09F4A6CF81
:102F7000883C09F4A3CF883B09F07DCFE09129027A
:102F800081E08E0F80932902F0E0E85FFD4F8081A1
:102F90008093BB00909129028091280229C08091E2
:102FA00071028093BB0085EC8093BC0064CF90914C
:102FB000700280916F02981758F5E091700281E0DD
:102FC0008E0F80937002F0E0E15BFD4F8081E9CFCE
:102FD000E091700281E08E0F809370028091BB00BF
:102FE000F0E0E15BFD4F80839091700280916F0271
:102FF0009817C8F285E8D8CFE091700281E08E0F73
:10300000809370028091BB00F0E0E15BFD4F808314
:1030100080914E0281115CCF81E080934D0284EA61
:103020008093BC0010924C0226CF85EC8093BC00AC
:1030300010924C0280914A02803230F4E0914A02B0
:10304000F0E0E65DFD4F108260914A0270E0E09191
:103050007C02F0917D028AE292E0099510924A0288
:103060000ACF10924B0234CFCF93DF93AB01BC0158
:103070002AE08EE892E00E944D15EC016FE671E0C7
:103080008EE892E00E94BA148C0F9D1FDF91CF91C1
:103090000895EEE8F2E01382128248EE53E060E019
:1030A00070E0448355836683778383E291E0918364
:1030B000808385EC90E09587848784EC90E0978707
:1030C000868780EC90E0918B808B81EC90E0938BF5
:1030D000828B82EC90E0958B848B86EC90E0978BD2
:1030E000868B118E128E138E148EABE2B3E0139684
:1030F0001C921E92129714964D935D936D937C9340
:10310000179785E391E011969C938E93E7E3F3E0A4
:103110001382128220E830E03583248380E490E03B
:10312000978386833187208793878287168A1586BF
:1031300014861786168681E0858B848B2FEF3FEFF0
:10314000338B228B318B208B878B108E128E118EBE
:1031500087E491E091838083148E138EB68FA58FC0
:1031600010A2178E8FEF84A385A386A387A384E084
:1031700080A780E89AE1A6E0B0E085AB96ABA7AB6C
:10318000B0AF80EA96E8A1E0B0E081AF92AFA3AF24
:10319000B4AF80E586AF17AE0895789484B58260A9
:1031A00084BD84B5816084BD85B5826085BD85B5EB
:1031B000816085BD80916E00816080936E00109269
:1031C00081008091810082608093810080918100E4
:1031D0008160809381008091800081608093800075
:1031E0008091B10084608093B1008091B0008160D3
:1031F0008093B00080917A00846080937A008091FF
:103200007A00826080937A0080917A008160809356
:103210007A0080917A00806880937A001092C100D1
:1032200060E08EE00E94460783E080930001E09119
:103230009E02F0919F0282E08083E0919A02F091D9
:103240009B021082E0919C02F0919D028FEC8083A2
:103250001092A602E091A202F091A30286E0808380
:10326000E091A002F091A102808180618083E091D1
:10327000A002F091A102808188608083E091A00289
:10328000F091A102808180688083E091A002F0919A
:10329000A10280818F7D80836EE771E08EE892E0ED
:1032A0000E94BA146FE671E08EE892E00E94BA14B0
:1032B0008091560390915703892B61F520913D032E
:1032C00030913E03C901079697FD0796B3E09595A7
:1032D0008795BA95E1F720913B0330913C03AC010F
:1032E000429FC001439F900D529F900D11240E9458
:1032F00077229093570380935603892B59F486E2E3
:103300009BE00E94BF066FE671E08EE892E00E94AB
:10331000BA14FFCF0E94981420913D0330913E03D0
:1033200080913B0390913C03B901213231050CF4AB
:103330003DC16054710977FF02C06F5F7F4F759583
:1033400067958255910997FD019600E410E022E50A
:1033500030E04CE358E0959587950E94160F82E087
:10336000809359038091540390915503892B09F45C
:1033700030C18CE380935803109281021092800236
:1033800010928B0210928A020E944C1080ED95E000
:1033900090937F0280937E0281ED95E090937D0271
:1033A00080937C0280915F0387FD1EC061E00E94D4
:1033B000460761E080915F030E94FA0661E070E0D9
:1033C00080E090E00E949C0760E080915F030E9493
:1033D000FA066AE070E080E090E00E949C0761E0FD
:1033E00080915F030E94FA068091540390915503E7
:1033F000892B09F4ADC120916C0330916D0340918C
:103400006E0350916F0360E074E284EF90E00E94DD
:103410004F22205131094109510956954795379559
:1034200027952093B80064E086E296E00E94F711A9
:1034300060913D03615087E393E00E94AC1264E029
:1034400082E296E00E94F7118091590360E1813099
:1034500009F064E187E393E00E94AC1264E08EE13E
:1034600096E00E94F7118FE88093740380913B03EC
:1034700090913C038038910509F083C180913D0310
:1034800090913E038034910509F08BC180915903DE
:10349000813009F074C18FE980937403C2E16AED51
:1034A00087E393E00E94AC126C2F87E393E00E94C5
:1034B000AC1261E887E393E00E94AC126091740360
:1034C00087E393E00E94AC1269ED87E393E00E94EA
:1034D000AC128091590362E2813009F061EF87E319
:1034E00093E00E94AC1266E088E196E00E94F7113A
:1034F0008091540390915503892B09F456C1209172
:10350000700330917103409172035091730360E036
:1035100074E284EF90E00E944F222051310941096A
:10352000510956954795379527952093B8000E94E5
:10353000981482E080934B0380934C0381E090E0E9
:1035400090934A03809349039093480380934703E1
:1035500080934F036EE871E087E393E00E94BA1412
:1035600064E971E087E393E00E94BA146FE671E0CA
:1035700087E393E00E94BA140E940E1368EE73E092
:1035800080E090E00E949C0790E080E00E942D1E69
:10359000C82FD0E0C130D10509F411C189E09BE00A
:1035A0000E94BF06CE010E941515FFCF605271091F
:1035B00077FF02C06F5F7F4F7595679583579109BD
:1035C00097FD019600E210E023E730E04CE556E07D
:1035D000C2CE61E080915D030E94460761E0809168
:1035E0005E030E94460780915D03082E000C990B34
:1035F000FC01E85BF94FE491F0E0EE0FFF1FE25CA5
:10360000F94F259134913093650320936403FC01B5
:10361000E65DF94FE491E0936A0380915E03082E22
:10362000000C990BFC01E85BF94FE491F0E0EE0F20
:10363000FF1FE25CF94FA591B491B0936703A0938B
:103640006603FC01E65DF94FE491E0936B038C9116
:10365000E82BEC938091520390915303892B09F44A
:1036600034C0CFB7F89480917B02811127C0E2E586
:10367000F6E08491E4E3F6E09491E82FF0E0EE0FB9
:10368000FF1FE25FF94FA591B491EC91E92321F47A
:1036900061E08AE00E94FA0661E08AE00E94460743
:1036A0008CB580618CBD8CB580648CBD61E08DE093
:1036B0000E94460761E08BE00E94460780917B02F2
:1036C0008F5F80937B02CFBF6DCE61E080915B0303
:1036D0000E94460761E080915C030E94460780914A
:1036E0005B03082E000C990BFC01E85BF94FE49199
:1036F000F0E0EE0FFF1FE25CF94F2591349130931B
:10370000610320936003FC01E65DF94FE491E093CF
:10371000680380915C03082E000C990BFC01E85BA8
:10372000F94FE491F0E0EE0FFF1FE25CF94FA59135
:10373000B491B0936303A0936203FC01E65DF94F7B
:10374000E491E09369038C91E095E823EC932ACE11
:103750008091520390915303892B31F0809175032E
:10376000909176030E942C0AE0916603F091670322
:10377000908180916B0380958923808354CE8FEC58
:103780008BCE8036910569F480913D0390913E0384
:10379000409739F480915903813029F480E1809376
:1037A0007403C2E07CCE8FEAFACFE0916603F09119
:1037B0006703808190916B03892B8083B8CE01E0F1
:1037C00011E0D0E0C0E0CE010E942D1EF8018193EF
:1037D0008F012196C831D105B1F78CEF9AE00E9494
:1037E000BF066FE671E08EE892E00E94BA1469E9C4
:1037F00071E08EE892E00E94BA14809105019091E8
:1038000006010E94151562EA71E08EE892E00E94BE
:10381000BA146091090170910A0180910B01909195
:103820000C010E94341866EA71E08EE892E00E9472
:10383000BA1460910D0170910E0180910F01909169
:1038400010010E9434186AEA71E08EE892E00E944A
:10385000BA1460911101709112018091130190913D
:1038600014010E9434186EEA71E08EE892E00E9422
:10387000BA14609115017091160180911701909111
:1038800018010E943418609103017091040190E0C6
:1038900080E00E944F1F9B01AC016DEC7CEC8CE83A
:1038A0009FE30E94A71E6B017C0180900501909010
:1038B0000601092C000CAA08BB0860E074E080E057
:1038C00090E0681979098A099B090E94511F9B01A0
:1038D000AC01C701B6010E94A71E609382027093DB
:1038E0008302809384029093850230E0232E30E09F
:1038F000332EC5E1D0E010928902109288028091A7
:103900000301909104019093870280938602809135
:103910008602909187029C012150310930938702E1
:1039200020938602892B39F180910001F0E48F9F6A
:10393000C001112480937C0080917A008064809380
:103940007A0080917A0086FDFCCF209178008091EA
:103950007900382F8091880290918902820F931FFD
:10396000909389028093880264E670E080E090E0A2
:103970000E949C07CCCF609188027091890290E0F0
:1039800080E00E944F1F209182023091830240917B
:103990008402509185020E94B6206B017C012FE6C3
:1039A00032E143E05BE30E94A21E87FF03C0C12C0B
:1039B000D12C760120E030E040E450E4C701B601AC
:1039C0000E9423214B015C0120910D0130910E01D9
:1039D00040910F0150911001C701B6010E94B6201D
:1039E0002091090130910A0140910B0150910C0185
:1039F0000E94361E2B013C01A7019601C701B601AA
:103A00000E94B620209111013091120140911301C2
:103A1000509114010E94B6209B01AC01C301B20178
:103A20000E94361E6B017C01209115013091160118
:103A30004091170150911801C501B4010E94B620B0
:103A40009B01AC01C701B6010E94361E4B015C010F
:103A50002FE632E143E05BE30E94A21E87FDCEC069
:103A60002FE632E143E85AE3C501B4010E94A71EE4
:103A70000E945E2020E030E040E251E40E94B62047
:103A80006B017C0120E030E040E251E40E94A71E7F
:103A90000E948C1F9B01AC0160E070E080EA90E422
:103AA0000E94351E0E94191F162F0E949814109212
:103AB000440310924303109246031092450322E000
:103AC00020934B0320934C032FE632E143E05BE36A
:103AD000C501B4010E94A21E62EB71E087FD09C01E
:103AE000212FB501A40187E393E00E944D1568EBF7
:103AF00071E087E393E00E94BA141092440310929D
:103B00004303D0934603C093450320E030E040E8F0
:103B10005FEBC701B6010E94592018160CF079C05E
:103B200021E0B701A60187E393E00E944D156BEBFE
:103B300071E087E393E00E94BA1420E030E040E2B5
:103B400050E4C701B6010E94B62020E030E040E01A
:103B50005FE30E94361E0E94191F4B0140914103F2
:103B60005091420345515109EE24E394F12C05E1B3
:103B700010E0940170E060E087E393E00E94300E73
:103B800020913F03309140032819390940914103A6
:103B90005091420345515109B4016F5F7F4FF12CA1
:103BA000E12C87E393E00E94300E98E1C92ED12CDE
:103BB00040914103509142034A505109F12CE12CAC
:103BC0000AE010E021E030E0B60187E393E00E94D4
:103BD000300E49E1C40ED11C55E9C516D10441F798
:103BE0000E940E132114310409F485CE0E943C0674
:103BF000882309F480CE0E9400007DCEC12CD12CF8
:103C000020E8E22E2FEBF22E812C912C540113E0B0
:103C10004CCF20913F03309140034091410350919C
:103C2000420345515109F12CE12C05E110E070E00F
:103C300060E087E393E00E94300ED2CF87E491E00A
:103C400090933803809337038091560390915703E4
:103C5000009711F00C9413230895F999FECF92BDAB
:103C600081BDF89A992780B508955058BB27AA2797
:103C70000E944D1E0C9407200E94F91F38F00E94EC
:103C8000002020F039F49F3F19F426F40C94F61F1D
:103C90000EF4E095E7FB0C94C71FE92F0E94182053
:103CA00058F3BA17620773078407950720F079F471
:103CB000A6F50C9452200EF4E0950B2EBA2FA02DF1
:103CC0000B01B90190010C01CA01A0011124FF27C9
:103CD000591B99F0593F50F4503E68F11A16F040C4
:103CE000A22F232F342F4427585FF3CF46953795C3
:103CF0002795A795F0405395C9F77EF41F16BA0B88
:103D0000620B730B840BBAF09150A1F0FF0FBB1F35
:103D1000661F771F881FC2F70EC0BA0F621F731F7E
:103D2000841F48F4879577956795B795F7959E3FDB
:103D300008F0B0CF9395880F08F09927EE0F97956C
:103D4000879508950E94A31F08F481E008950E94BA
:103D5000BB1E0C9407200E94002058F00E94F91FFF
:103D600040F029F45F3F29F00C94C71F51110C94C7
:103D700053200C94F61F0E94182068F39923B1F386
:103D8000552391F3951B550BBB27AA276217730781
:103D9000840738F09F5F5F4F220F331F441FAA1F15
:103DA000A9F335D00E2E3AF0E0E832D091505040D1
:103DB000E695001CCAF72BD0FE2F29D0660F771F7F
:103DC000881FBB1F261737074807AB07B0E809F065
:103DD000BB0B802DBF01FF2793585F4F3AF09E3FEA
:103DE000510578F00C94C71F0C9453205F3FE4F307
:103DF000983ED4F3869577956795B795F7959F5F2D
:103E0000C9F7880F911D9695879597F90895E1E078
:103E1000660F771F881FBB1F621773078407BA07D7
:103E200020F0621B730B840BBA0BEE1F88F7E09532
:103E300008950E94201F6894B1110C945320089596
:103E40000E94202088F09F5798F0B92F9927B751EA
:103E5000B0F0E1F0660F771F881F991F1AF0BA952E
:103E6000C9F714C0B13091F00E945220B1E008951A
:103E70000C945220672F782F8827B85F39F0B93F0C
:103E8000CCF3869577956795B395D9F73EF49095E1
:103E90008095709561957F4F8F4F9F4F0895E8945F
:103EA00009C097FB3EF490958095709561957F4F82
:103EB0008F4F9F4F9923A9F0F92F96E9BB27939530
:103EC000F695879577956795B795F111F8CFFAF440
:103ED000BB0F11F460FF1BC06F5F7F4F8F4F9F4F71
:103EE00016C0882311F096E911C0772321F09EE8CF
:103EF000872F762F05C0662371F096E8862F70E035
:103F000060E02AF09A95660F771F881FDAF7880F0E
:103F10009695879597F908950E943A2090F09F37DB
:103F200048F4911116F00C94532060E070E080E8A2
:103F30009FEB089526F41B16611D711D811D0C94C5
:103F4000CD1F0C94E81F990F0008550FAA0BE0E84D
:103F5000FEEF16161706E807F907C0F0121613064B
:103F6000E407F50798F0621B730B840B950B39F48B
:103F70000A2661F0232B242B252B21F408950A26F1
:103F800009F4A140A6958FEF811D811D089597F931
:103F90009F6780E870E060E00895882371F47723DC
:103FA00021F09850872B762F07C0662311F49927AC
:103FB0000DC09051862B70E060E02AF09A95660F54
:103FC000771F881FDAF7880F9695879597F90895D8
:103FD0009F3F31F0915020F4879577956795B7957D
:103FE000880F911D9695879597F908959FEF80EC1E
:103FF000089500240A94161617061806090608954F
:1040000000240A9412161306140605060895092EB4
:104010000394000C11F4882352F0BB0F40F4BF2B23
:1040200011F460FF04C06F5F7F4F8F4F9F4F089563
:1040300057FD9058440F551F59F05F3F71F0479559
:10404000880F97FB991F61F09F3F79F0879508953E
:10405000121613061406551FF2CF4695F1DF08C05D
:10406000161617061806991FF1CF8695710561057A
:10407000089408950E942020A0F0BEE7B91788F4A4
:10408000BB279F3860F41616B11D672F782F88273D
:10409000985FF7CF869577956795B11D939596397B
:1040A000C8F30895E894BB2766277727CB0197F9D3
:1040B00008950E94A31F08F48FEF08950E946E20B8
:1040C00029ED3BE54EED5EE30C94B62016F00C9422
:1040D000E81F0C94F61F68940C94C71F0E942020C0
:1040E000A8F39923C1F3AEF3DF93CF931F930F93FC
:1040F000FF92C92FDD2788232AF02197660F771FAB
:10410000881FDAF720E030E040E85FEB9FE3883972
:1041100020F0803E38F021968F770E94361EE8E628
:10412000F0E004C00E94361EE5E9F0E00E94B221F2
:104130008B01BE01EC01FB2E6F5771097595771F3E
:10414000880B990B0E94511F28E132E741E35FE39E
:104150000E94C920AF2D9801AE01FF900F911F91D1
:10416000CF91DF910E944D1E0C9407200E94C92020
:104170000C9407200E94F91F38F00E94002020F0C4
:10418000952311F00C94C71F0C94F61F11240C9466
:1041900053200E94182070F3959FC1F3950F50E0B3
:1041A000551F629FF001729FBB27F00DB11D639FE9
:1041B000AA27F00DB11DAA1F649F6627B00DA11D8F
:1041C000661F829F2227B00DA11D621F739FB00D35
:1041D000A11D621F839FA00D611D221F749F3327A5
:1041E000A00D611D231F849F600D211D822F762F3E
:1041F0006A2F11249F5750409AF0F1F088234AF01B
:10420000EE0FFF1FBB1F661F771F881F9150504086
:10421000A9F79E3F510580F00C94C71F0C945320C2
:104220005F3FE4F3983ED4F3869577956795B7950D
:10423000F795E7959F5FC1F7FE2B880F911D969527
:10424000879597F90895FA01EE0FFF1F3096210523
:104250003105A1F16115710561F48038BFE39B0759
:1042600049F168949038810561F08038BFEF9B0771
:1042700041F099234AF5FF3FE1053105210519F188
:10428000E8940894E795D901AA2329F4AB2FBE2F0F
:10429000F85FD0F310C0FF5F70F4A695E0F7F73930
:1042A00050F019F0FF3A38F49F779F930DD00F909C
:1042B00007FC9058089546F00C94F61F60E070E0FB
:1042C00080E89FE308954FE79F775F934F933F9375
:1042D0002F930E946E202F913F914F915F910E94EA
:1042E000B6200C9480210E94A31F880B990B08957F
:1042F00029F416F00C94C71F0C9452200C94F61F4E
:104300000E942020A8F39638A0F707F80F92E894AF
:104310002BE33AEA48EB5FE70E94CC200F920F9222
:104320000F924DB75EB70F920E941B22E2ECF0E0B5
:104330000E94B2214F915F91EF91FF91E595EE1FA1
:10434000FF1F49F0FE57E0684427EE0F441FFA951F
:10435000E1F74195550B0E94E5210F9007FE0C9463
:10436000D9210895DF93CF931F930F93FF92EF927C
:10437000DF927B018C01689406C0DA2EEF010E9467
:10438000C920FE01E894A59125913591459155915B
:10439000A6F3EF010E944D1EFE019701A801DA94D9
:1043A00069F7DF90EF90FF900F911F91CF91DF9110
:1043B00008959B01AC0160E070E080E89FE30C94FD
:1043C000A71E0C94C71F0C94E81F0E942020D8F34E
:1043D0009923C9F3940F511DA3F39150504094F0C9
:1043E00059F0882332F0660F771F881F9150504094
:1043F000C1F79E3F51052CF7880F911D9695879523
:1044000097F908955F3FACF0983E9CF0BB278695E6
:1044100077956795B79508F4B1609395C1F7BB0F91
:1044200058F711F460FFE8CF6F5F7F4F8F4F9F4FBA
:10443000E3CF0C945320FA01DC01AA0FBB1F9B01B0
:10444000AC01BF5728F4222733274427507820C0D7
:10445000B75190F4AB2F0024469537952795011C52
:10446000A395D2F3002071F0220F331F441FB395A0
:10447000DAF30ED00C94351E61307105A0E88A077E
:10448000B94630F49B01AC016627772788279078DE
:10449000309621F020833183428353830895A1E233
:1044A0001A2EAA1BBB1BFD010DC0AA1FBB1FEE1FAE
:1044B000FF1FA217B307E407F50720F0A21BB30BF9
:1044C000E40BF50B661F771F881F991F1A9469F775
:1044D00060957095809590959B01AC01BD01CF01D1
:1044E0000895EE0FFF1F0590F491E02D09940F93AE
:1044F0001F93CF93DF938230910510F482E090E018
:10450000E0917903F0917A0330E020E0B0E0A0E0A0
:10451000309799F42115310509F44AC0281B390B4D
:1045200024303105D8F58A819B816115710589F1A7
:10453000FB0193838283FE0111C04081518102817E
:10454000138148175907E0F04817590799F4109755
:1045500061F012960C93129713961C933296CF012A
:10456000DF91CF911F910F910895009379031093DC
:104570007A03F4CF2115310551F04217530738F073
:10458000A901DB019A01BD01DF01F801C1CFEF01F3
:10459000F9CF90937A0380937903CDCFFE01E20F98
:1045A000F31F819391932250310939832883D7CF08
:1045B0002091770330917803232B41F420911B0144
:1045C00030911C01309378032093770320911901D7
:1045D00030911A012115310541F42DB73EB74091B4
:1045E0001D0150911E01241B350BE0917703F091C2
:1045F0007803E217F307A0F42E1B3F0B28173907A7
:1046000078F0AC014E5F5F4F2417350748F04E0F2E
:104610005F1F5093780340937703819391939FCFCB
:10462000F0E0E0E09CCFCF93DF930097E9F0FC014E
:10463000329713821282A0917903B0917A03ED012F
:1046400030E020E01097A1F420813181820F931F88
:1046500020917703309178032817390709F061C05A
:10466000F0937803E0937703DF91CF910895EA0107
:10467000CE17DF07E8F54A815B819E0141155105A0
:10468000B1F7E901FB83EA8349915991C40FD51F22
:10469000EC17FD0761F4808191810296840F951FCC
:1046A000E90199838883828193819B838A83F0E0E7
:1046B000E0E012968D919C9113970097B9F52D919A
:1046C0003C911197CD010296820F931F20917703A1
:1046D000309178032817390739F6309751F5109241
:1046E0007A0310927903B0937803A0937703BCCF39
:1046F000D383C28340815181840F951FC817D90786
:1047000061F44E5F5F4F88819981480F591F518333
:1047100040838A819B81938382832115310509F02F
:10472000B0CFF0937A03E09379039ECFFD01DC01D3
:10473000C0CF13821282D7CF81E090E0F8940C941E
:10474000A823DC0101C06D9341505040E0F708956B
:1047500015E0C4EAD5E004C0FE010E947122219652
:0A476000C53AD107C9F7F894FFCF5E
:10476A00010000050000000200F07C27B8E9D177BB
:10477A003EF99907420000000000007B0380000018
:10478A000000007206D205FF05DA0630060E062280
:10479A000600000000E110B4109514CF05AD109A80
:1047AA00108B10000000006A0CD2059514241075B5
:1047BA0009CF050F0FE70E030FF70E770FCF05305E
:1047CA000A3F14E5082E09300E130E9B0D3C0D0D01
:1047DA000A006E616E00696E66006F766600536548
:1047EA007269616C20737461727465642E00706DF5
:1047FA00640A7600302E30350061646361646A3A77
:10480A002000613A2000623A2000633A2000643AAC
:10481A0020003C302E3030322057002064426D2078
:02482A0000008C
:00000001FF
